{
  "_format": "hh-sol-artifact-1",
  "contractName": "YieldToken",
  "sourceName": "contracts/YieldToken.sol",
  "abi": [
    {
      "inputs": [
        {
          "internalType": "address",
          "name": "initialOwner",
          "type": "address"
        },
        {
          "internalType": "string",
          "name": "_name",
          "type": "string"
        },
        {
          "internalType": "string",
          "name": "_symbol",
          "type": "string"
        }
      ],
      "stateMutability": "nonpayable",
      "type": "constructor"
    },
    {
      "inputs": [
        {
          "internalType": "address",
          "name": "spender",
          "type": "address"
        },
        {
          "internalType": "uint256",
          "name": "allowance",
          "type": "uint256"
        },
        {
          "internalType": "uint256",
          "name": "needed",
          "type": "uint256"
        }
      ],
      "name": "ERC20InsufficientAllowance",
      "type": "error"
    },
    {
      "inputs": [
        {
          "internalType": "address",
          "name": "sender",
          "type": "address"
        },
        {
          "internalType": "uint256",
          "name": "balance",
          "type": "uint256"
        },
        {
          "internalType": "uint256",
          "name": "needed",
          "type": "uint256"
        }
      ],
      "name": "ERC20InsufficientBalance",
      "type": "error"
    },
    {
      "inputs": [
        {
          "internalType": "address",
          "name": "approver",
          "type": "address"
        }
      ],
      "name": "ERC20InvalidApprover",
      "type": "error"
    },
    {
      "inputs": [
        {
          "internalType": "address",
          "name": "receiver",
          "type": "address"
        }
      ],
      "name": "ERC20InvalidReceiver",
      "type": "error"
    },
    {
      "inputs": [
        {
          "internalType": "address",
          "name": "sender",
          "type": "address"
        }
      ],
      "name": "ERC20InvalidSender",
      "type": "error"
    },
    {
      "inputs": [
        {
          "internalType": "address",
          "name": "spender",
          "type": "address"
        }
      ],
      "name": "ERC20InvalidSpender",
      "type": "error"
    },
    {
      "inputs": [
        {
          "internalType": "address",
          "name": "owner",
          "type": "address"
        }
      ],
      "name": "OwnableInvalidOwner",
      "type": "error"
    },
    {
      "inputs": [
        {
          "internalType": "address",
          "name": "account",
          "type": "address"
        }
      ],
      "name": "OwnableUnauthorizedAccount",
      "type": "error"
    },
    {
      "inputs": [
        {
          "internalType": "address",
          "name": "caller",
          "type": "address"
        }
      ],
      "name": "UnauthorizedMinter",
      "type": "error"
    },
    {
      "inputs": [],
      "name": "ZeroAddressMint",
      "type": "error"
    },
    {
      "anonymous": false,
      "inputs": [
        {
          "indexed": true,
          "internalType": "address",
          "name": "owner",
          "type": "address"
        },
        {
          "indexed": true,
          "internalType": "address",
          "name": "spender",
          "type": "address"
        },
        {
          "indexed": false,
          "internalType": "uint256",
          "name": "value",
          "type": "uint256"
        }
      ],
      "name": "Approval",
      "type": "event"
    },
    {
      "anonymous": false,
      "inputs": [
        {
          "indexed": false,
          "internalType": "address",
          "name": "account",
          "type": "address"
        },
        {
          "indexed": false,
          "internalType": "bool",
          "name": "status",
          "type": "bool"
        }
      ],
      "name": "MinterSet",
      "type": "event"
    },
    {
      "anonymous": false,
      "inputs": [
        {
          "indexed": true,
          "internalType": "address",
          "name": "previousOwner",
          "type": "address"
        },
        {
          "indexed": true,
          "internalType": "address",
          "name": "newOwner",
          "type": "address"
        }
      ],
      "name": "OwnershipTransferred",
      "type": "event"
    },
    {
      "anonymous": false,
      "inputs": [
        {
          "indexed": true,
          "internalType": "address",
          "name": "to",
          "type": "address"
        },
        {
          "indexed": false,
          "internalType": "uint256",
          "name": "amount",
          "type": "uint256"
        },
        {
          "indexed": true,
          "internalType": "address",
          "name": "minter",
          "type": "address"
        }
      ],
      "name": "TokensMinted",
      "type": "event"
    },
    {
      "anonymous": false,
      "inputs": [
        {
          "indexed": true,
          "internalType": "address",
          "name": "from",
          "type": "address"
        },
        {
          "indexed": true,
          "internalType": "address",
          "name": "to",
          "type": "address"
        },
        {
          "indexed": false,
          "internalType": "uint256",
          "name": "value",
          "type": "uint256"
        }
      ],
      "name": "Transfer",
      "type": "event"
    },
    {
      "inputs": [
        {
          "internalType": "address",
          "name": "to",
          "type": "address"
        },
        {
          "internalType": "uint256",
          "name": "amount",
          "type": "uint256"
        }
      ],
      "name": "InsufficientMint",
      "outputs": [],
      "stateMutability": "nonpayable",
      "type": "function"
    },
    {
      "inputs": [],
      "name": "MINT_COOLDOWN",
      "outputs": [
        {
          "internalType": "uint256",
          "name": "",
          "type": "uint256"
        }
      ],
      "stateMutability": "view",
      "type": "function"
    },
    {
      "inputs": [
        {
          "internalType": "address",
          "name": "owner",
          "type": "address"
        },
        {
          "internalType": "address",
          "name": "spender",
          "type": "address"
        }
      ],
      "name": "allowance",
      "outputs": [
        {
          "internalType": "uint256",
          "name": "",
          "type": "uint256"
        }
      ],
      "stateMutability": "view",
      "type": "function"
    },
    {
      "inputs": [
        {
          "internalType": "address",
          "name": "spender",
          "type": "address"
        },
        {
          "internalType": "uint256",
          "name": "value",
          "type": "uint256"
        }
      ],
      "name": "approve",
      "outputs": [
        {
          "internalType": "bool",
          "name": "",
          "type": "bool"
        }
      ],
      "stateMutability": "nonpayable",
      "type": "function"
    },
    {
      "inputs": [
        {
          "internalType": "address",
          "name": "account",
          "type": "address"
        }
      ],
      "name": "balanceOf",
      "outputs": [
        {
          "internalType": "uint256",
          "name": "",
          "type": "uint256"
        }
      ],
      "stateMutability": "view",
      "type": "function"
    },
    {
      "inputs": [
        {
          "internalType": "address",
          "name": "from",
          "type": "address"
        },
        {
          "internalType": "uint256",
          "name": "amount",
          "type": "uint256"
        }
      ],
      "name": "burn",
      "outputs": [],
      "stateMutability": "nonpayable",
      "type": "function"
    },
    {
      "inputs": [],
      "name": "decimals",
      "outputs": [
        {
          "internalType": "uint8",
          "name": "",
          "type": "uint8"
        }
      ],
      "stateMutability": "view",
      "type": "function"
    },
    {
      "inputs": [
        {
          "internalType": "address",
          "name": "student",
          "type": "address"
        }
      ],
      "name": "getIsStudent",
      "outputs": [
        {
          "internalType": "bool",
          "name": "",
          "type": "bool"
        }
      ],
      "stateMutability": "view",
      "type": "function"
    },
    {
      "inputs": [],
      "name": "getMinters",
      "outputs": [
        {
          "internalType": "address[]",
          "name": "",
          "type": "address[]"
        }
      ],
      "stateMutability": "view",
      "type": "function"
    },
    {
      "inputs": [
        {
          "internalType": "address",
          "name": "",
          "type": "address"
        }
      ],
      "name": "isMinter",
      "outputs": [
        {
          "internalType": "bool",
          "name": "",
          "type": "bool"
        }
      ],
      "stateMutability": "view",
      "type": "function"
    },
    {
      "inputs": [
        {
          "internalType": "address",
          "name": "",
          "type": "address"
        }
      ],
      "name": "isStudent",
      "outputs": [
        {
          "internalType": "bool",
          "name": "",
          "type": "bool"
        }
      ],
      "stateMutability": "view",
      "type": "function"
    },
    {
      "inputs": [
        {
          "internalType": "address",
          "name": "",
          "type": "address"
        }
      ],
      "name": "lastMintTime",
      "outputs": [
        {
          "internalType": "uint256",
          "name": "",
          "type": "uint256"
        }
      ],
      "stateMutability": "view",
      "type": "function"
    },
    {
      "inputs": [
        {
          "internalType": "address",
          "name": "to",
          "type": "address"
        },
        {
          "internalType": "uint256",
          "name": "amount",
          "type": "uint256"
        }
      ],
      "name": "mint",
      "outputs": [],
      "stateMutability": "nonpayable",
      "type": "function"
    },
    {
      "inputs": [
        {
          "internalType": "address",
          "name": "to",
          "type": "address"
        },
        {
          "internalType": "uint256",
          "name": "amount",
          "type": "uint256"
        }
      ],
      "name": "mintForStudent",
      "outputs": [],
      "stateMutability": "nonpayable",
      "type": "function"
    },
    {
      "inputs": [
        {
          "internalType": "address",
          "name": "_yieldPoolAddress",
          "type": "address"
        }
      ],
      "name": "mintToPool",
      "outputs": [],
      "stateMutability": "nonpayable",
      "type": "function"
    },
    {
      "inputs": [],
      "name": "name",
      "outputs": [
        {
          "internalType": "string",
          "name": "",
          "type": "string"
        }
      ],
      "stateMutability": "view",
      "type": "function"
    },
    {
      "inputs": [],
      "name": "owner",
      "outputs": [
        {
          "internalType": "address",
          "name": "",
          "type": "address"
        }
      ],
      "stateMutability": "view",
      "type": "function"
    },
    {
      "inputs": [
        {
          "internalType": "address",
          "name": "account",
          "type": "address"
        }
      ],
      "name": "removeMinter",
      "outputs": [],
      "stateMutability": "nonpayable",
      "type": "function"
    },
    {
      "inputs": [],
      "name": "renounceOwnership",
      "outputs": [],
      "stateMutability": "nonpayable",
      "type": "function"
    },
    {
      "inputs": [
        {
          "internalType": "address",
          "name": "account",
          "type": "address"
        },
        {
          "internalType": "bool",
          "name": "status",
          "type": "bool"
        }
      ],
      "name": "setMinter",
      "outputs": [],
      "stateMutability": "nonpayable",
      "type": "function"
    },
    {
      "inputs": [
        {
          "internalType": "address",
          "name": "student",
          "type": "address"
        },
        {
          "internalType": "bool",
          "name": "status",
          "type": "bool"
        }
      ],
      "name": "setStudentStatus",
      "outputs": [],
      "stateMutability": "nonpayable",
      "type": "function"
    },
    {
      "inputs": [],
      "name": "symbol",
      "outputs": [
        {
          "internalType": "string",
          "name": "",
          "type": "string"
        }
      ],
      "stateMutability": "view",
      "type": "function"
    },
    {
      "inputs": [],
      "name": "totalSupply",
      "outputs": [
        {
          "internalType": "uint256",
          "name": "",
          "type": "uint256"
        }
      ],
      "stateMutability": "view",
      "type": "function"
    },
    {
      "inputs": [
        {
          "internalType": "address",
          "name": "to",
          "type": "address"
        },
        {
          "internalType": "uint256",
          "name": "value",
          "type": "uint256"
        }
      ],
      "name": "transfer",
      "outputs": [
        {
          "internalType": "bool",
          "name": "",
          "type": "bool"
        }
      ],
      "stateMutability": "nonpayable",
      "type": "function"
    },
    {
      "inputs": [
        {
          "internalType": "address",
          "name": "from",
          "type": "address"
        },
        {
          "internalType": "address",
          "name": "to",
          "type": "address"
        },
        {
          "internalType": "uint256",
          "name": "value",
          "type": "uint256"
        }
      ],
      "name": "transferFrom",
      "outputs": [
        {
          "internalType": "bool",
          "name": "",
          "type": "bool"
        }
      ],
      "stateMutability": "nonpayable",
      "type": "function"
    },
    {
      "inputs": [
        {
          "internalType": "address",
          "name": "newOwner",
          "type": "address"
        }
      ],
      "name": "transferOwnership",
      "outputs": [],
      "stateMutability": "nonpayable",
      "type": "function"
    }
  ],
  "bytecode": "0x608060405234801561001057600080fd5b5060405161145138038061145183398101604081905261002f91610199565b828282600361003e83826102aa565b50600461004b82826102aa565b5050506001600160a01b03811661007c57604051631e4fbdf760e01b81526000600482015260240160405180910390fd5b6100858161008e565b50505050610368565b600580546001600160a01b038381166001600160a01b0319831681179093556040519116919082907f8be0079c531659141344cd1fd0a4f28419497f9722a3daafe3b4186f6b6457e090600090a35050565b634e487b7160e01b600052604160045260246000fd5b600082601f83011261010757600080fd5b81516001600160401b03811115610120576101206100e0565b604051601f8201601f19908116603f011681016001600160401b038111828210171561014e5761014e6100e0565b60405281815283820160200185101561016657600080fd5b60005b8281101561018557602081860181015183830182015201610169565b506000918101602001919091529392505050565b6000806000606084860312156101ae57600080fd5b83516001600160a01b03811681146101c557600080fd5b60208501519093506001600160401b038111156101e157600080fd5b6101ed868287016100f6565b604086015190935090506001600160401b0381111561020b57600080fd5b610217868287016100f6565b9150509250925092565b600181811c9082168061023557607f821691505b60208210810361025557634e487b7160e01b600052602260045260246000fd5b50919050565b601f8211156102a557806000526020600020601f840160051c810160208510156102825750805b601f840160051c820191505b818110156102a2576000815560010161028e565b50505b505050565b81516001600160401b038111156102c3576102c36100e0565b6102d7816102d18454610221565b8461025b565b6020601f82116001811461030b57600083156102f35750848201515b600019600385901b1c1916600184901b1784556102a2565b600084815260208120601f198516915b8281101561033b578785015182556020948501946001909201910161031b565b50848210156103595786840151600019600387901b60f8161c191681555b50505050600190811b01905550565b6110da806103776000396000f3fe608060405234801561001057600080fd5b506004361061018e5760003560e01c80638da5cb5b116100de578063c7d4f46611610097578063cf456ae711610071578063cf456ae71461039d578063dd62ed3e146103b0578063f2fde38b146103e9578063f7ee7a43146103fc57600080fd5b8063c7d4f4661461034b578063c95c2fc71461035e578063cefee7bc1461037157600080fd5b80638da5cb5b146102cc57806395d89b41146102e75780639dc29fac146102ef578063a9059cbb14610302578063aa271e1a14610315578063c528d5351461033857600080fd5b806340c10f191161014b5780636b32810b116101255780636b32810b1461026357806370a0823114610278578063715018a6146102a157806382f7d392146102a957600080fd5b806340c10f191461021d5780635ea3f9d1146102305780636aa71d181461024357600080fd5b806306fdde0314610193578063095ea7b3146101b157806318160ddd146101d457806323b872dd146101e65780633092afd5146101f9578063313ce5671461020e575b600080fd5b61019b610406565b6040516101a89190610e54565b60405180910390f35b6101c46101bf366004610ebe565b610498565b60405190151581526020016101a8565b6002545b6040519081526020016101a8565b6101c46101f4366004610ee8565b6104b2565b61020c610207366004610f25565b6104d6565b005b604051601281526020016101a8565b61020c61022b366004610ebe565b6106f5565b61020c61023e366004610f25565b6107b5565b6101d8610251366004610f25565b60066020526000908152604090205481565b61026b610820565b6040516101a89190610f47565b6101d8610286366004610f25565b6001600160a01b031660009081526020819052604090205490565b61020c610889565b6101c46102b7366004610f25565b60076020526000908152604090205460ff1681565b6005546040516001600160a01b0390911681526020016101a8565b61019b61089d565b61020c6102fd366004610ebe565b6108ac565b6101c4610310366004610ebe565b6108c2565b6101c4610323366004610f25565b60086020526000908152604090205460ff1681565b61020c610346366004610ebe565b6108d0565b61020c610359366004610ebe565b6108f5565b61020c61036c366004610f93565b61095d565b6101c461037f366004610f25565b6001600160a01b031660009081526007602052604090205460ff1690565b61020c6103ab366004610f93565b610990565b6101d86103be366004610fcf565b6001600160a01b03918216600090815260016020908152604080832093909416825291909152205490565b61020c6103f7366004610f25565b610a3d565b6101d86201518081565b60606003805461041590611002565b80601f016020809104026020016040519081016040528092919081815260200182805461044190611002565b801561048e5780601f106104635761010080835404028352916020019161048e565b820191906000526020600020905b81548152906001019060200180831161047157829003601f168201915b5050505050905090565b6000336104a6818585610a7b565b60019150505b92915050565b6000336104c0858285610a8d565b6104cb858585610b0b565b506001949350505050565b6104de610b6a565b6001600160a01b03811661052b5760405162461bcd60e51b815260206004820152600f60248201526e496e76616c6964206164647265737360881b60448201526064015b60405180910390fd5b6001600160a01b03811660009081526008602052604090205460ff166105935760405162461bcd60e51b815260206004820152601760248201527f41646472657373206973206e6f742061206d696e7465720000000000000000006044820152606401610522565b6001600160a01b0381166000908152600860205260408120805460ff191690555b6009548110156106af57816001600160a01b0316600982815481106105db576105db61103c565b6000918252602090912001546001600160a01b0316036106a7576009805461060590600190611068565b815481106106155761061561103c565b600091825260209091200154600980546001600160a01b0390921691839081106106415761064161103c565b9060005260206000200160006101000a8154816001600160a01b0302191690836001600160a01b0316021790555060098054806106805761068061107b565b600082815260209020810160001990810180546001600160a01b03191690550190556106af565b6001016105b4565b50604080516001600160a01b0383168152600060208201527f583b0aa0e528532caf4b907c11d7a8158a122fe2a6fb80cd9b09776ebea8d92d910160405180910390a150565b6001600160a01b03821661071c576040516322ce111360e11b815260040160405180910390fd5b6005546001600160a01b0316331480159061074757503360009081526008602052604090205460ff16155b156107675760405163a4f3966560e01b8152336004820152602401610522565b6107718282610b97565b60405181815233906001600160a01b038416907f969cd201f68f120baff2bf3c59bc3b534434e08b69a71a14ab85cb79cd3b63e49060200160405180910390a35050565b6107bd610b6a565b6107d2816a084595161401484a000000610b97565b6040516a084595161401484a000000815233906001600160a01b038316907f969cd201f68f120baff2bf3c59bc3b534434e08b69a71a14ab85cb79cd3b63e49060200160405180910390a350565b606061082a610b6a565b600980548060200260200160405190810160405280929190818152602001828054801561048e57602002820191906000526020600020905b81546001600160a01b03168152600190910190602001808311610862575050505050905090565b610891610b6a565b61089b6000610bcd565b565b60606004805461041590611002565b6108b4610b6a565b6108be8282610c1f565b5050565b6000336104a6818585610b0b565b6001600160a01b03821660009081526006602052604090204290556108be8282610b97565b6001600160a01b03821660009081526007602052604090205460ff166108d05760405162461bcd60e51b815260206004820152601960248201527f41646472657373206d75737420626520612073747564656e74000000000000006044820152606401610522565b610965610b6a565b6001600160a01b03919091166000908152600760205260409020805460ff1916911515919091179055565b610998610b6a565b6001600160a01b0382166000818152600860209081526040808320805460ff19168615159081179091556009805460018101825594527f6e1540171b6c0c960b71a7020d9f60077f6af931a8bbf590da0223dacf75c7af90930180546001600160a01b031916851790558051938452908301919091527f583b0aa0e528532caf4b907c11d7a8158a122fe2a6fb80cd9b09776ebea8d92d910160405180910390a15050565b610a45610b6a565b6001600160a01b038116610a6f57604051631e4fbdf760e01b815260006004820152602401610522565b610a7881610bcd565b50565b610a888383836001610c55565b505050565b6001600160a01b038381166000908152600160209081526040808320938616835292905220546000198114610b055781811015610af657604051637dc7a0d960e11b81526001600160a01b03841660048201526024810182905260448101839052606401610522565b610b0584848484036000610c55565b50505050565b6001600160a01b038316610b3557604051634b637e8f60e11b815260006004820152602401610522565b6001600160a01b038216610b5f5760405163ec442f0560e01b815260006004820152602401610522565b610a88838383610d2a565b6005546001600160a01b0316331461089b5760405163118cdaa760e01b8152336004820152602401610522565b6001600160a01b038216610bc15760405163ec442f0560e01b815260006004820152602401610522565b6108be60008383610d2a565b600580546001600160a01b038381166001600160a01b0319831681179093556040519116919082907f8be0079c531659141344cd1fd0a4f28419497f9722a3daafe3b4186f6b6457e090600090a35050565b6001600160a01b038216610c4957604051634b637e8f60e11b815260006004820152602401610522565b6108be82600083610d2a565b6001600160a01b038416610c7f5760405163e602df0560e01b815260006004820152602401610522565b6001600160a01b038316610ca957604051634a1406b160e11b815260006004820152602401610522565b6001600160a01b0380851660009081526001602090815260408083209387168352929052208290558015610b0557826001600160a01b0316846001600160a01b03167f8c5be1e5ebec7d5bd14f71427d1e84f3dd0314c0f7b2291e5b200ac8c7c3b92584604051610d1c91815260200190565b60405180910390a350505050565b6001600160a01b038316610d55578060026000828254610d4a9190611091565b90915550610dc79050565b6001600160a01b03831660009081526020819052604090205481811015610da85760405163391434e360e21b81526001600160a01b03851660048201526024810182905260448101839052606401610522565b6001600160a01b03841660009081526020819052604090209082900390555b6001600160a01b038216610de357600280548290039055610e02565b6001600160a01b03821660009081526020819052604090208054820190555b816001600160a01b0316836001600160a01b03167fddf252ad1be2c89b69c2b068fc378daa952ba7f163c4a11628f55a4df523b3ef83604051610e4791815260200190565b60405180910390a3505050565b602081526000825180602084015260005b81811015610e825760208186018101516040868401015201610e65565b506000604082850101526040601f19601f83011684010191505092915050565b80356001600160a01b0381168114610eb957600080fd5b919050565b60008060408385031215610ed157600080fd5b610eda83610ea2565b946020939093013593505050565b600080600060608486031215610efd57600080fd5b610f0684610ea2565b9250610f1460208501610ea2565b929592945050506040919091013590565b600060208284031215610f3757600080fd5b610f4082610ea2565b9392505050565b602080825282518282018190526000918401906040840190835b81811015610f885783516001600160a01b0316835260209384019390920191600101610f61565b509095945050505050565b60008060408385031215610fa657600080fd5b610faf83610ea2565b915060208301358015158114610fc457600080fd5b809150509250929050565b60008060408385031215610fe257600080fd5b610feb83610ea2565b9150610ff960208401610ea2565b90509250929050565b600181811c9082168061101657607f821691505b60208210810361103657634e487b7160e01b600052602260045260246000fd5b50919050565b634e487b7160e01b600052603260045260246000fd5b634e487b7160e01b600052601160045260246000fd5b818103818111156104ac576104ac611052565b634e487b7160e01b600052603160045260246000fd5b808201808211156104ac576104ac61105256fea2646970667358221220789cd0b18d8713ea7c3ad633a066faf5c992d1869830d840ef7cb08505bf8c0364736f6c634300081c0033",
  "linkReferences": {},
  "deployedLinkReferences": {}
}