{"contracts/BorrowProtocol.sol":{"BorrowProtocol":{"abi":[{"inputs":[{"internalType":"address","name":"_yieldPoolAddress","type":"address"},{"internalType":"address","name":"_yieldTokenAddress","type":"address"},{"internalType":"address","name":"_owner","type":"address"}],"stateMutability":"nonpayable","type":"constructor"},{"inputs":[{"internalType":"address","name":"owner","type":"address"}],"name":"OwnableInvalidOwner","type":"error"},{"inputs":[{"internalType":"address","name":"account","type":"address"}],"name":"OwnableUnauthorizedAccount","type":"error"},{"inputs":[],"name":"ReentrancyGuardReentrantCall","type":"error"},{"inputs":[{"internalType":"address","name":"token","type":"address"}],"name":"SafeERC20FailedOperation","type":"error"},{"anonymous":false,"inputs":[{"indexed":false,"internalType":"uint256","name":"loanId","type":"uint256"},{"indexed":false,"internalType":"bool","name":"active","type":"bool"}],"name":"ActiveLoanUpdated","type":"event"},{"anonymous":false,"inputs":[{"indexed":true,"internalType":"address","name":"user","type":"address"},{"indexed":true,"internalType":"address","name":"token","type":"address"},{"indexed":false,"internalType":"uint256","name":"amount","type":"uint256"}],"name":"CollateralDeposited","type":"event"},{"anonymous":false,"inputs":[{"indexed":true,"internalType":"address","name":"user","type":"address"},{"indexed":false,"internalType":"uint256","name":"loanId","type":"uint256"},{"indexed":false,"internalType":"uint256","name":"amount","type":"uint256"}],"name":"CollateralWithdrawn","type":"event"},{"anonymous":false,"inputs":[{"indexed":true,"internalType":"address","name":"user","type":"address"},{"indexed":false,"internalType":"uint256","name":"loanId","type":"uint256"},{"indexed":false,"internalType":"uint256","name":"amount","type":"uint256"},{"indexed":false,"internalType":"address","name":"token","type":"address"},{"indexed":false,"internalType":"uint256","name":"duration","type":"uint256"}],"name":"LoanCreated","type":"event"},{"anonymous":false,"inputs":[{"indexed":true,"internalType":"address","name":"user","type":"address"},{"indexed":false,"internalType":"uint256","name":"loanId","type":"uint256"},{"indexed":false,"internalType":"address","name":"liquidator","type":"address"}],"name":"LoanLiquidated","type":"event"},{"anonymous":false,"inputs":[{"indexed":true,"internalType":"address","name":"user","type":"address"},{"indexed":false,"internalType":"uint256","name":"loanId","type":"uint256"},{"indexed":false,"internalType":"uint256","name":"amount","type":"uint256"}],"name":"LoanRepaid","type":"event"},{"anonymous":false,"inputs":[{"indexed":true,"internalType":"address","name":"previousOwner","type":"address"},{"indexed":true,"internalType":"address","name":"newOwner","type":"address"}],"name":"OwnershipTransferred","type":"event"},{"anonymous":false,"inputs":[{"indexed":true,"internalType":"address","name":"funder","type":"address"},{"indexed":true,"internalType":"address","name":"token","type":"address"},{"indexed":false,"internalType":"uint256","name":"amount","type":"uint256"}],"name":"PoolFunded","type":"event"},{"inputs":[{"internalType":"address","name":"_collateralToken","type":"address"},{"internalType":"uint256","name":"_collateralAmount","type":"uint256"},{"internalType":"address","name":"_borrowToken","type":"address"},{"internalType":"uint256","name":"_borrowAmount","type":"uint256"},{"internalType":"uint256","name":"_duration","type":"uint256"},{"internalType":"uint256","name":"_interestRate","type":"uint256"}],"name":"Borrow","outputs":[],"stateMutability":"nonpayable","type":"function"},{"inputs":[{"internalType":"uint256","name":"","type":"uint256"}],"name":"allActiveLoans","outputs":[{"internalType":"uint256","name":"loanId","type":"uint256"},{"internalType":"uint256","name":"collateralAmount","type":"uint256"},{"internalType":"address","name":"collateralToken","type":"address"},{"internalType":"address","name":"borrowToken","type":"address"},{"internalType":"uint256","name":"borrowAmount","type":"uint256"},{"internalType":"uint256","name":"duration","type":"uint256"},{"internalType":"uint256","name":"startTime","type":"uint256"},{"internalType":"uint256","name":"interestRate","type":"uint256"},{"internalType":"address","name":"userAddress","type":"address"},{"internalType":"uint256","name":"amountPaid","type":"uint256"},{"internalType":"bool","name":"active","type":"bool"}],"stateMutability":"view","type":"function"},{"inputs":[{"internalType":"uint256","name":"_collateralAmount","type":"uint256"},{"internalType":"uint256","name":"_borrowAmount","type":"uint256"},{"internalType":"address","name":"_yieldTokenAddress","type":"address"}],"name":"calculateHealthFactorSimulated","outputs":[{"internalType":"uint256","name":"","type":"uint256"}],"stateMutability":"view","type":"function"},{"inputs":[{"internalType":"address","name":"user","type":"address"},{"internalType":"uint256","name":"loanId","type":"uint256"}],"name":"calculateTotalDue","outputs":[{"internalType":"uint256","name":"","type":"uint256"}],"stateMutability":"view","type":"function"},{"inputs":[],"name":"currentLoanId","outputs":[{"internalType":"uint256","name":"","type":"uint256"}],"stateMutability":"view","type":"function"},{"inputs":[{"internalType":"address","name":"token","type":"address"},{"internalType":"uint256","name":"amount","type":"uint256"}],"name":"fundPool","outputs":[],"stateMutability":"nonpayable","type":"function"},{"inputs":[],"name":"getAllActiveLoans","outputs":[{"components":[{"internalType":"uint256","name":"loanId","type":"uint256"},{"internalType":"uint256","name":"collateralAmount","type":"uint256"},{"internalType":"address","name":"collateralToken","type":"address"},{"internalType":"address","name":"borrowToken","type":"address"},{"internalType":"uint256","name":"borrowAmount","type":"uint256"},{"internalType":"uint256","name":"duration","type":"uint256"},{"internalType":"uint256","name":"startTime","type":"uint256"},{"internalType":"uint256","name":"interestRate","type":"uint256"},{"internalType":"address","name":"userAddress","type":"address"},{"internalType":"uint256","name":"amountPaid","type":"uint256"},{"internalType":"bool","name":"active","type":"bool"}],"internalType":"struct BorrowProtocol.Loan[]","name":"","type":"tuple[]"}],"stateMutability":"view","type":"function"},{"inputs":[{"internalType":"address","name":"token","type":"address"}],"name":"getLiquidationThreshold","outputs":[{"internalType":"uint256","name":"","type":"uint256"}],"stateMutability":"view","type":"function"},{"inputs":[{"internalType":"address","name":"_tokenAddress","type":"address"}],"name":"getMinCollateralAmount","outputs":[{"internalType":"uint256","name":"","type":"uint256"}],"stateMutability":"view","type":"function"},{"inputs":[],"name":"getMinHealthFactor","outputs":[{"internalType":"uint256","name":"","type":"uint256"}],"stateMutability":"view","type":"function"},{"inputs":[],"name":"getMinimumDuration","outputs":[{"internalType":"uint256","name":"","type":"uint256"}],"stateMutability":"view","type":"function"},{"inputs":[{"internalType":"address","name":"user","type":"address"}],"name":"getUserLoans","outputs":[{"components":[{"internalType":"uint256","name":"loanId","type":"uint256"},{"internalType":"uint256","name":"collateralAmount","type":"uint256"},{"internalType":"address","name":"collateralToken","type":"address"},{"internalType":"address","name":"borrowToken","type":"address"},{"internalType":"uint256","name":"borrowAmount","type":"uint256"},{"internalType":"uint256","name":"duration","type":"uint256"},{"internalType":"uint256","name":"startTime","type":"uint256"},{"internalType":"uint256","name":"interestRate","type":"uint256"},{"internalType":"address","name":"userAddress","type":"address"},{"internalType":"uint256","name":"amountPaid","type":"uint256"},{"internalType":"bool","name":"active","type":"bool"}],"internalType":"struct BorrowProtocol.Loan[]","name":"","type":"tuple[]"}],"stateMutability":"view","type":"function"},{"inputs":[{"internalType":"address","name":"user","type":"address"},{"internalType":"uint256","name":"loanId","type":"uint256"}],"name":"liquidate","outputs":[],"stateMutability":"nonpayable","type":"function"},{"inputs":[],"name":"minHealthFactor","outputs":[{"internalType":"uint256","name":"","type":"uint256"}],"stateMutability":"view","type":"function"},{"inputs":[],"name":"minimumDuration","outputs":[{"internalType":"uint256","name":"","type":"uint256"}],"stateMutability":"view","type":"function"},{"inputs":[],"name":"owner","outputs":[{"internalType":"address","name":"","type":"address"}],"stateMutability":"view","type":"function"},{"inputs":[{"internalType":"uint256","name":"_loanId","type":"uint256"}],"name":"payLoan","outputs":[],"stateMutability":"nonpayable","type":"function"},{"inputs":[],"name":"renounceOwnership","outputs":[],"stateMutability":"nonpayable","type":"function"},{"inputs":[{"internalType":"address","name":"token","type":"address"},{"internalType":"uint256","name":"threshold","type":"uint256"}],"name":"setLiquidationThreshold","outputs":[],"stateMutability":"nonpayable","type":"function"},{"inputs":[{"internalType":"address","name":"_yieldToken","type":"address"},{"internalType":"uint256","name":"_minimumCollateralAmount","type":"uint256"}],"name":"setMinCollateralAmount","outputs":[],"stateMutability":"nonpayable","type":"function"},{"inputs":[{"internalType":"uint256","name":"_minHealthFactor","type":"uint256"}],"name":"setMinHealthFactor","outputs":[],"stateMutability":"nonpayable","type":"function"},{"inputs":[{"internalType":"uint256","name":"_minimumDuration","type":"uint256"}],"name":"setMinimumDuration","outputs":[],"stateMutability":"nonpayable","type":"function"},{"inputs":[{"internalType":"address","name":"newOwner","type":"address"}],"name":"transferOwnership","outputs":[],"stateMutability":"nonpayable","type":"function"},{"inputs":[],"name":"yieldPool","outputs":[{"internalType":"contract IYieldPool","name":"","type":"address"}],"stateMutability":"view","type":"function"}],"evm":{"bytecode":{"linkReferences":{},"object":"608060405260966007556201518060085534801561001c57600080fd5b50604051611da0380380611da083398101604081905261003b91610131565b6001600055806001600160a01b03811661006f57604051631e4fbdf760e01b81526000600482015260240160405180910390fd5b610078816100c3565b5050600280546001600160a01b0319166001600160a01b039384161790551660009081526004602090815260408083206050905560069091529020670de0b6b3a76400009055610174565b600180546001600160a01b038381166001600160a01b0319831681179093556040519116919082907f8be0079c531659141344cd1fd0a4f28419497f9722a3daafe3b4186f6b6457e090600090a35050565b80516001600160a01b038116811461012c57600080fd5b919050565b60008060006060848603121561014657600080fd5b61014f84610115565b925061015d60208501610115565b915061016b60408501610115565b90509250925092565b611c1d806101836000396000f3fe608060405234801561001057600080fd5b50600436106101585760003560e01c80638da5cb5b116100c3578063da7a45761161007c578063da7a457614610350578063de4e5ec814610358578063e1b4264c14610360578063e349695514610369578063ed5ec6481461037c578063f2fde38b1461038f57600080fd5b80638da5cb5b146102b65780638f188dd4146102db578063a8d7b3ec146102ee578063b390878214610301578063bcbaf4871461032a578063cd06b6e91461033d57600080fd5b80633e3ee5a2116101155780633e3ee5a2146102585780634d5c11ee14610261578063715018a6146102745780637b86e42c1461027c57806387f7d5bd146102a55780638c1ae6c8146102ae57600080fd5b806301b08d581461015d57806302bf321f146101725780630d4068171461019b5780630e30428d1461021157806318fa17d4146102245780632bfd514614610245575b600080fd5b61017061016b36600461190b565b6103a2565b005b610185610180366004611940565b6103af565b604051610192919061195b565b60405180910390f35b6101ae6101a936600461190b565b6105f2565b604080519b8c5260208c019a909a526001600160a01b03988916998b019990995295871660608a0152608089019490945260a088019290925260c087015260e0860152909116610100840152610120830152151561014082015261016001610192565b61017061021f366004611a4e565b61066e565b610237610232366004611a78565b6106e8565b604051908152602001610192565b610170610253366004611a4e565b610734565b61023760085481565b61017061026f366004611aad565b610795565b610170610f48565b61023761028a366004611940565b6001600160a01b031660009081526004602052604090205490565b61023760095481565b600754610237565b6001546001600160a01b03165b6040516001600160a01b039091168152602001610192565b6002546102c3906001600160a01b031681565b6101706102fc36600461190b565b610f5c565b61023761030f366004611940565b6001600160a01b031660009081526006602052604090205490565b610170610338366004611a4e565b61126b565b61023761034b366004611a4e565b61158a565b610185611602565b600854610237565b61023760075481565b610170610377366004611a4e565b6116e2565b61017061038a36600461190b565b611706565b61017061039d366004611940565b611713565b6103aa61174e565b600755565b6001600160a01b038116600090815260056020908152604080832080548251818502810185019093528083526060949383018282801561040e57602002820191906000526020600020905b8154815260200190600101908083116103fa575b505050505090506000815167ffffffffffffffff81111561043157610431611b05565b6040519080825280602002602001820160405280156104dc57816020015b6104c9604051806101600160405280600081526020016000815260200160006001600160a01b0316815260200160006001600160a01b031681526020016000815260200160008152602001600081526020016000815260200160006001600160a01b03168152602001600081526020016000151581525090565b81526020019060019003908161044f5790505b50905060005b82518110156105ea576001600160a01b0385166000908152600360205260408120845190919085908490811061051a5761051a611b1b565b60209081029190910181015182528181019290925260409081016000208151610160810183528154815260018201549381019390935260028101546001600160a01b039081169284019290925260038101548216606084015260048101546080840152600581015460a0840152600681015460c0840152600781015460e084015260088101549091166101008301526009810154610120830152600a015460ff16151561014082015282518390839081106105d7576105d7611b1b565b60209081029190910101526001016104e2565b509392505050565b600a818154811061060257600080fd5b60009182526020909120600b9091020180546001820154600283015460038401546004850154600586015460068701546007880154600889015460098a0154600a909a0154989a5096986001600160a01b03968716989587169794969395929491939091169160ff168b565b61067661174e565b60648111156106cc5760405162461bcd60e51b815260206004820152601960248201527f5468726573686f6c64206d757374206265203c3d20313030250000000000000060448201526064015b60405180910390fd5b6001600160a01b03909116600090815260046020526040902055565b6000826000036106fb575060001961072d565b6001600160a01b03821660009081526004602052604090205483906107209086611b47565b61072a9190611b5e565b90505b9392505050565b61073c61174e565b6107516001600160a01b03831633308461177b565b6040518181526001600160a01b0383169033907faa1ff9f7fea9b0b6004b27d6dafaf7545a080426cc7115c6a8bd9019957c43539060200160405180910390a35050565b61079d6117e8565b60025460405163f9eaee0d60e01b81526001600160a01b0388811660048301529091169063f9eaee0d90602401602060405180830381865afa1580156107e7573d6000803e3d6000fd5b505050506040513d601f19601f8201168201806040525081019061080b9190611b80565b6108575760405162461bcd60e51b815260206004820152601b60248201527f636f6c6c61746572616c546f6b656e206e6f7420616c6c6f776564000000000060448201526064016106c3565b60025460405163f9eaee0d60e01b81526001600160a01b0386811660048301529091169063f9eaee0d90602401602060405180830381865afa1580156108a1573d6000803e3d6000fd5b505050506040513d601f19601f820116820180604052508101906108c59190611b80565b6109115760405162461bcd60e51b815260206004820152601760248201527f626f72726f77546f6b656e206e6f7420616c6c6f77656400000000000000000060448201526064016106c3565b600081116109595760405162461bcd60e51b8152602060048201526015602482015274696e76616c696420696e746572657374207261746560581b60448201526064016106c3565b6001600160a01b0386166000908152600660205260409020548510156109b65760405162461bcd60e51b8152602060048201526012602482015271636f6c6c61746572616c20746f6f206c6f7760701b60448201526064016106c3565b600083116109fb5760405162461bcd60e51b81526020600482015260126024820152710626f72726f7720616d6f756e7420697320360741b60448201526064016106c3565b600854821015610a425760405162461bcd60e51b8152602060048201526012602482015271191d5c985d1a5bdb881d1bdbc81cda1bdc9d60721b60448201526064016106c3565b6040516370a0823160e01b815230600482015283906001600160a01b038616906370a0823190602401602060405180830381865afa158015610a88573d6000803e3d6000fd5b505050506040513d601f19601f82011682018060405250810190610aac9190611ba2565b1015610af15760405162461bcd60e51b81526020600482015260146024820152734e6f7420656e6f756768206c697175696469747960601b60448201526064016106c3565b6000610afe8685896106e8565b9050600754811015610b4a5760405162461bcd60e51b81526020600482015260156024820152744865616c746820666163746f7220746f6f206c6f7760581b60448201526064016106c3565b610b5f6001600160a01b03881633308961177b565b610b736001600160a01b0386163386611812565b6009805460009182610b8483611bbb565b91905055905060006040518061016001604052808381526020018981526020018a6001600160a01b03168152602001886001600160a01b03168152602001878152602001868152602001428152602001858152602001336001600160a01b031681526020016000815260200160011515815250905060056000336001600160a01b03166001600160a01b03168152602001908152602001600020829080600181540180825580915050600190039060005260206000200160009091909190915055600a8190806001815401808255809150506001900390600052602060002090600b0201600090919091909150600082015181600001556020820151816001015560408201518160020160006101000a8154816001600160a01b0302191690836001600160a01b0316021790555060608201518160030160006101000a8154816001600160a01b0302191690836001600160a01b031602179055506080820151816004015560a0820151816005015560c0820151816006015560e082015181600701556101008201518160080160006101000a8154816001600160a01b0302191690836001600160a01b03160217905550610120820151816009015561014082015181600a0160006101000a81548160ff02191690831515021790555050508060036000336001600160a01b03166001600160a01b031681526020019081526020016000206000848152602001908152602001600020600082015181600001556020820151816001015560408201518160020160006101000a8154816001600160a01b0302191690836001600160a01b0316021790555060608201518160030160006101000a8154816001600160a01b0302191690836001600160a01b031602179055506080820151816004015560a0820151816005015560c0820151816006015560e082015181600701556101008201518160080160006101000a8154816001600160a01b0302191690836001600160a01b03160217905550610120820151816009015561014082015181600a0160006101000a81548160ff021916908315150217905550905050336001600160a01b03167f3b2b81666fe526902fa85ba380549dd59f155d7258e132ec0bb898f26ede3d2083888a89604051610eeb949392919093845260208401929092526001600160a01b03166040830152606082015260800190565b60405180910390a26040518881526001600160a01b038a169033907ff1c0dd7e9b98bbff859029005ef89b127af049cd18df1a8d79f0b7e019911e569060200160405180910390a3505050610f406001600055565b505050505050565b610f5061174e565b610f5a6000611848565b565b610f646117e8565b336000908152600360209081526040808320848452909152902080548214610fbf5760405162461bcd60e51b815260206004820152600e60248201526d131bd85b881b9bdd08199bdd5b9960921b60448201526064016106c3565b600a81015460ff166110085760405162461bcd60e51b81526020600482015260126024820152714c6f616e206973206e6f742061637469766560701b60448201526064016106c3565b8060050154816006015461101c9190611bd4565b42111561105a5760405162461bcd60e51b815260206004820152600c60248201526b131bd85b88195e1c1a5c995960a21b60448201526064016106c3565b6000611066338461158a565b6003830154909150611083906001600160a01b031633308461177b565b600a8201805460ff1916905560005b600a548110156111b95783600a82815481106110b0576110b0611b1b565b90600052602060002090600b0201600001541480156111065750336001600160a01b0316600a82815481106110e7576110e7611b1b565b600091825260209091206008600b9092020101546001600160a01b0316145b156111b1576000600a828154811061112057611120611b1b565b90600052602060002090600b0201600a0160006101000a81548160ff0219169083151502179055507ff7bdb03fba5957a14f016deea0beb505430aa6a80b743df13510db2e32cbfa86600a828154811061117c5761117c611b1b565b600091825260208220600b90910201546040516111a492909182521515602082015260400190565b60405180910390a16111b9565b600101611092565b50600182015460028301546111db916001600160a01b03909116903390611812565b604080518481526020810183905233917fc7ce0a35f17b490de2a317e7fecb2cae86b1abffb03800b2f492823521382698910160405180910390a2600182015460405133917fdaed309a628faec6cab72194019e2a1a34e890ca9bf9be99788992dd546928199161125491878252602082015260400190565b60405180910390a250506112686001600055565b50565b6112736117e8565b6001600160a01b03821660009081526003602090815260408083208484529091529020600a81015460ff166112df5760405162461bcd60e51b81526020600482015260126024820152714c6f616e206973206e6f742061637469766560701b60448201526064016106c3565b60028101546001600160a01b0316600090815260046020526040902054806113495760405162461bcd60e51b815260206004820152601d60248201527f4c69717569646174696f6e207468726573686f6c64206e6f742073657400000060448201526064016106c3565b6000611355858561158a565b6001840154600285015491925060009161137a919084906001600160a01b03166106e8565b90508281106113dd5760405162461bcd60e51b815260206004820152602960248201527f4865616c746820666163746f722061626f7665206c69717569646174696f6e206044820152681d1a1c995cda1bdb1960ba1b60648201526084016106c3565b600184015460028501546113fe916001600160a01b03909116903390611812565b600a8401805460ff1916905560005b600a548110156115345785600a828154811061142b5761142b611b1b565b90600052602060002090600b0201600001541480156114815750866001600160a01b0316600a828154811061146257611462611b1b565b600091825260209091206008600b9092020101546001600160a01b0316145b1561152c576000600a828154811061149b5761149b611b1b565b90600052602060002090600b0201600a0160006101000a81548160ff0219169083151502179055507ff7bdb03fba5957a14f016deea0beb505430aa6a80b743df13510db2e32cbfa86600a82815481106114f7576114f7611b1b565b600091825260208220600b909102015460405161151f92909182521515602082015260400190565b60405180910390a1611534565b60010161140d565b50604080518681523360208201526001600160a01b038816917fde21b2a43b0a2c2109c049fb1e4bb8653fd67d0ffd74fdcb662db381f1eeab38910160405180910390a2505050506115866001600055565b5050565b6001600160a01b038216600090815260036020908152604080832084845290915281206004810154600782015460058301548464496cebb800826115ce8587611b47565b6115d89190611b47565b6115e29190611b5e565b90508085600401546115f49190611bd4565b955050505050505b92915050565b6060600a805480602002602001604051908101604052809291908181526020016000905b828210156116d95760008481526020908190206040805161016081018252600b8602909201805483526001808201548486015260028201546001600160a01b039081169385019390935260038201548316606085015260048201546080850152600582015460a0850152600682015460c0850152600782015460e085015260088201549092166101008401526009810154610120840152600a015460ff1615156101408301529083529092019101611626565b50505050905090565b6116ea61174e565b6001600160a01b03909116600090815260066020526040902055565b61170e61174e565b600855565b61171b61174e565b6001600160a01b03811661174557604051631e4fbdf760e01b8152600060048201526024016106c3565b61126881611848565b6001546001600160a01b03163314610f5a5760405163118cdaa760e01b81523360048201526024016106c3565b6040516001600160a01b0384811660248301528381166044830152606482018390526117e29186918216906323b872dd906084015b604051602081830303815290604052915060e01b6020820180516001600160e01b03838183161783525050505061189a565b50505050565b60026000540361180b57604051633ee5aeb560e01b815260040160405180910390fd5b6002600055565b6040516001600160a01b0383811660248301526044820183905261184391859182169063a9059cbb906064016117b0565b505050565b600180546001600160a01b038381166001600160a01b0319831681179093556040519116919082907f8be0079c531659141344cd1fd0a4f28419497f9722a3daafe3b4186f6b6457e090600090a35050565b600080602060008451602086016000885af1806118bd576040513d6000823e3d81fd5b50506000513d915081156118d55780600114156118e2565b6001600160a01b0384163b155b156117e257604051635274afe760e01b81526001600160a01b03851660048201526024016106c3565b60006020828403121561191d57600080fd5b5035919050565b80356001600160a01b038116811461193b57600080fd5b919050565b60006020828403121561195257600080fd5b61072d82611924565b602080825282518282018190526000918401906040840190835b81811015611a43578351805184526020810151602085015260408101516119a760408601826001600160a01b03169052565b5060608101516119c260608601826001600160a01b03169052565b506080810151608085015260a081015160a085015260c081015160c085015260e081015160e0850152610100810151611a076101008601826001600160a01b03169052565b506101208101516101208501526101408101519050611a2b61014085018215159052565b50602093909301926101609290920191600101611975565b509095945050505050565b60008060408385031215611a6157600080fd5b611a6a83611924565b946020939093013593505050565b600080600060608486031215611a8d57600080fd5b8335925060208401359150611aa460408501611924565b90509250925092565b60008060008060008060c08789031215611ac657600080fd5b611acf87611924565b955060208701359450611ae460408801611924565b959894975094956060810135955060808101359460a0909101359350915050565b634e487b7160e01b600052604160045260246000fd5b634e487b7160e01b600052603260045260246000fd5b634e487b7160e01b600052601160045260246000fd5b80820281158282048414176115fc576115fc611b31565b600082611b7b57634e487b7160e01b600052601260045260246000fd5b500490565b600060208284031215611b9257600080fd5b8151801515811461072d57600080fd5b600060208284031215611bb457600080fd5b5051919050565b600060018201611bcd57611bcd611b31565b5060010190565b808201808211156115fc576115fc611b3156fea2646970667358221220d02cbad82e070c55132dcd152729148fb72aa51584e341e6c309f8f538d498f264736f6c634300081c0033","opcodes":"PUSH1 0x80 PUSH1 0x40 MSTORE PUSH1 0x96 PUSH1 0x7 SSTORE PUSH3 0x15180 PUSH1 0x8 SSTORE CALLVALUE DUP1 ISZERO PUSH2 0x1C JUMPI PUSH1 0x0 DUP1 REVERT JUMPDEST POP PUSH1 0x40 MLOAD PUSH2 0x1DA0 CODESIZE SUB DUP1 PUSH2 0x1DA0 DUP4 CODECOPY DUP2 ADD PUSH1 0x40 DUP2 SWAP1 MSTORE PUSH2 0x3B SWAP2 PUSH2 0x131 JUMP JUMPDEST PUSH1 0x1 PUSH1 0x0 SSTORE DUP1 PUSH1 0x1 PUSH1 0x1 PUSH1 0xA0 SHL SUB DUP2 AND PUSH2 0x6F JUMPI PUSH1 0x40 MLOAD PUSH4 0x1E4FBDF7 PUSH1 0xE0 SHL DUP2 MSTORE PUSH1 0x0 PUSH1 0x4 DUP3 ADD MSTORE PUSH1 0x24 ADD PUSH1 0x40 MLOAD DUP1 SWAP2 SUB SWAP1 REVERT JUMPDEST PUSH2 0x78 DUP2 PUSH2 0xC3 JUMP JUMPDEST POP POP PUSH1 0x2 DUP1 SLOAD PUSH1 0x1 PUSH1 0x1 PUSH1 0xA0 SHL SUB NOT AND PUSH1 0x1 PUSH1 0x1 PUSH1 0xA0 SHL SUB SWAP4 DUP5 AND OR SWAP1 SSTORE AND PUSH1 0x0 SWAP1 DUP2 MSTORE PUSH1 0x4 PUSH1 0x20 SWAP1 DUP2 MSTORE PUSH1 0x40 DUP1 DUP4 KECCAK256 PUSH1 0x50 SWAP1 SSTORE PUSH1 0x6 SWAP1 SWAP2 MSTORE SWAP1 KECCAK256 PUSH8 0xDE0B6B3A7640000 SWAP1 SSTORE PUSH2 0x174 JUMP JUMPDEST PUSH1 0x1 DUP1 SLOAD PUSH1 0x1 PUSH1 0x1 PUSH1 0xA0 SHL SUB DUP4 DUP2 AND PUSH1 0x1 PUSH1 0x1 PUSH1 0xA0 SHL SUB NOT DUP4 AND DUP2 OR SWAP1 SWAP4 SSTORE PUSH1 0x40 MLOAD SWAP2 AND SWAP2 SWAP1 DUP3 SWAP1 PUSH32 0x8BE0079C531659141344CD1FD0A4F28419497F9722A3DAAFE3B4186F6B6457E0 SWAP1 PUSH1 0x0 SWAP1 LOG3 POP POP JUMP JUMPDEST DUP1 MLOAD PUSH1 0x1 PUSH1 0x1 PUSH1 0xA0 SHL SUB DUP2 AND DUP2 EQ PUSH2 0x12C JUMPI PUSH1 0x0 DUP1 REVERT JUMPDEST SWAP2 SWAP1 POP JUMP JUMPDEST PUSH1 0x0 DUP1 PUSH1 0x0 PUSH1 0x60 DUP5 DUP7 SUB SLT ISZERO PUSH2 0x146 JUMPI PUSH1 0x0 DUP1 REVERT JUMPDEST PUSH2 0x14F DUP5 PUSH2 0x115 JUMP JUMPDEST SWAP3 POP PUSH2 0x15D PUSH1 0x20 DUP6 ADD PUSH2 0x115 JUMP JUMPDEST SWAP2 POP PUSH2 0x16B PUSH1 0x40 DUP6 ADD PUSH2 0x115 JUMP JUMPDEST SWAP1 POP SWAP3 POP SWAP3 POP SWAP3 JUMP JUMPDEST PUSH2 0x1C1D DUP1 PUSH2 0x183 PUSH1 0x0 CODECOPY PUSH1 0x0 RETURN INVALID PUSH1 0x80 PUSH1 0x40 MSTORE CALLVALUE DUP1 ISZERO PUSH2 0x10 JUMPI PUSH1 0x0 DUP1 REVERT JUMPDEST POP PUSH1 0x4 CALLDATASIZE LT PUSH2 0x158 JUMPI PUSH1 0x0 CALLDATALOAD PUSH1 0xE0 SHR DUP1 PUSH4 0x8DA5CB5B GT PUSH2 0xC3 JUMPI DUP1 PUSH4 0xDA7A4576 GT PUSH2 0x7C JUMPI DUP1 PUSH4 0xDA7A4576 EQ PUSH2 0x350 JUMPI DUP1 PUSH4 0xDE4E5EC8 EQ PUSH2 0x358 JUMPI DUP1 PUSH4 0xE1B4264C EQ PUSH2 0x360 JUMPI DUP1 PUSH4 0xE3496955 EQ PUSH2 0x369 JUMPI DUP1 PUSH4 0xED5EC648 EQ PUSH2 0x37C JUMPI DUP1 PUSH4 0xF2FDE38B EQ PUSH2 0x38F JUMPI PUSH1 0x0 DUP1 REVERT JUMPDEST DUP1 PUSH4 0x8DA5CB5B EQ PUSH2 0x2B6 JUMPI DUP1 PUSH4 0x8F188DD4 EQ PUSH2 0x2DB JUMPI DUP1 PUSH4 0xA8D7B3EC EQ PUSH2 0x2EE JUMPI DUP1 PUSH4 0xB3908782 EQ PUSH2 0x301 JUMPI DUP1 PUSH4 0xBCBAF487 EQ PUSH2 0x32A JUMPI DUP1 PUSH4 0xCD06B6E9 EQ PUSH2 0x33D JUMPI PUSH1 0x0 DUP1 REVERT JUMPDEST DUP1 PUSH4 0x3E3EE5A2 GT PUSH2 0x115 JUMPI DUP1 PUSH4 0x3E3EE5A2 EQ PUSH2 0x258 JUMPI DUP1 PUSH4 0x4D5C11EE EQ PUSH2 0x261 JUMPI DUP1 PUSH4 0x715018A6 EQ PUSH2 0x274 JUMPI DUP1 PUSH4 0x7B86E42C EQ PUSH2 0x27C JUMPI DUP1 PUSH4 0x87F7D5BD EQ PUSH2 0x2A5 JUMPI DUP1 PUSH4 0x8C1AE6C8 EQ PUSH2 0x2AE JUMPI PUSH1 0x0 DUP1 REVERT JUMPDEST DUP1 PUSH4 0x1B08D58 EQ PUSH2 0x15D JUMPI DUP1 PUSH4 0x2BF321F EQ PUSH2 0x172 JUMPI DUP1 PUSH4 0xD406817 EQ PUSH2 0x19B JUMPI DUP1 PUSH4 0xE30428D EQ PUSH2 0x211 JUMPI DUP1 PUSH4 0x18FA17D4 EQ PUSH2 0x224 JUMPI DUP1 PUSH4 0x2BFD5146 EQ PUSH2 0x245 JUMPI JUMPDEST PUSH1 0x0 DUP1 REVERT JUMPDEST PUSH2 0x170 PUSH2 0x16B CALLDATASIZE PUSH1 0x4 PUSH2 0x190B JUMP JUMPDEST PUSH2 0x3A2 JUMP JUMPDEST STOP JUMPDEST PUSH2 0x185 PUSH2 0x180 CALLDATASIZE PUSH1 0x4 PUSH2 0x1940 JUMP JUMPDEST PUSH2 0x3AF JUMP JUMPDEST PUSH1 0x40 MLOAD PUSH2 0x192 SWAP2 SWAP1 PUSH2 0x195B JUMP JUMPDEST PUSH1 0x40 MLOAD DUP1 SWAP2 SUB SWAP1 RETURN JUMPDEST PUSH2 0x1AE PUSH2 0x1A9 CALLDATASIZE PUSH1 0x4 PUSH2 0x190B JUMP JUMPDEST PUSH2 0x5F2 JUMP JUMPDEST PUSH1 0x40 DUP1 MLOAD SWAP12 DUP13 MSTORE PUSH1 0x20 DUP13 ADD SWAP11 SWAP1 SWAP11 MSTORE PUSH1 0x1 PUSH1 0x1 PUSH1 0xA0 SHL SUB SWAP9 DUP10 AND SWAP10 DUP12 ADD SWAP10 SWAP1 SWAP10 MSTORE SWAP6 DUP8 AND PUSH1 0x60 DUP11 ADD MSTORE PUSH1 0x80 DUP10 ADD SWAP5 SWAP1 SWAP5 MSTORE PUSH1 0xA0 DUP9 ADD SWAP3 SWAP1 SWAP3 MSTORE PUSH1 0xC0 DUP8 ADD MSTORE PUSH1 0xE0 DUP7 ADD MSTORE SWAP1 SWAP2 AND PUSH2 0x100 DUP5 ADD MSTORE PUSH2 0x120 DUP4 ADD MSTORE ISZERO ISZERO PUSH2 0x140 DUP3 ADD MSTORE PUSH2 0x160 ADD PUSH2 0x192 JUMP JUMPDEST PUSH2 0x170 PUSH2 0x21F CALLDATASIZE PUSH1 0x4 PUSH2 0x1A4E JUMP JUMPDEST PUSH2 0x66E JUMP JUMPDEST PUSH2 0x237 PUSH2 0x232 CALLDATASIZE PUSH1 0x4 PUSH2 0x1A78 JUMP JUMPDEST PUSH2 0x6E8 JUMP JUMPDEST PUSH1 0x40 MLOAD SWAP1 DUP2 MSTORE PUSH1 0x20 ADD PUSH2 0x192 JUMP JUMPDEST PUSH2 0x170 PUSH2 0x253 CALLDATASIZE PUSH1 0x4 PUSH2 0x1A4E JUMP JUMPDEST PUSH2 0x734 JUMP JUMPDEST PUSH2 0x237 PUSH1 0x8 SLOAD DUP2 JUMP JUMPDEST PUSH2 0x170 PUSH2 0x26F CALLDATASIZE PUSH1 0x4 PUSH2 0x1AAD JUMP JUMPDEST PUSH2 0x795 JUMP JUMPDEST PUSH2 0x170 PUSH2 0xF48 JUMP JUMPDEST PUSH2 0x237 PUSH2 0x28A CALLDATASIZE PUSH1 0x4 PUSH2 0x1940 JUMP JUMPDEST PUSH1 0x1 PUSH1 0x1 PUSH1 0xA0 SHL SUB AND PUSH1 0x0 SWAP1 DUP2 MSTORE PUSH1 0x4 PUSH1 0x20 MSTORE PUSH1 0x40 SWAP1 KECCAK256 SLOAD SWAP1 JUMP JUMPDEST PUSH2 0x237 PUSH1 0x9 SLOAD DUP2 JUMP JUMPDEST PUSH1 0x7 SLOAD PUSH2 0x237 JUMP JUMPDEST PUSH1 0x1 SLOAD PUSH1 0x1 PUSH1 0x1 PUSH1 0xA0 SHL SUB AND JUMPDEST PUSH1 0x40 MLOAD PUSH1 0x1 PUSH1 0x1 PUSH1 0xA0 SHL SUB SWAP1 SWAP2 AND DUP2 MSTORE PUSH1 0x20 ADD PUSH2 0x192 JUMP JUMPDEST PUSH1 0x2 SLOAD PUSH2 0x2C3 SWAP1 PUSH1 0x1 PUSH1 0x1 PUSH1 0xA0 SHL SUB AND DUP2 JUMP JUMPDEST PUSH2 0x170 PUSH2 0x2FC CALLDATASIZE PUSH1 0x4 PUSH2 0x190B JUMP JUMPDEST PUSH2 0xF5C JUMP JUMPDEST PUSH2 0x237 PUSH2 0x30F CALLDATASIZE PUSH1 0x4 PUSH2 0x1940 JUMP JUMPDEST PUSH1 0x1 PUSH1 0x1 PUSH1 0xA0 SHL SUB AND PUSH1 0x0 SWAP1 DUP2 MSTORE PUSH1 0x6 PUSH1 0x20 MSTORE PUSH1 0x40 SWAP1 KECCAK256 SLOAD SWAP1 JUMP JUMPDEST PUSH2 0x170 PUSH2 0x338 CALLDATASIZE PUSH1 0x4 PUSH2 0x1A4E JUMP JUMPDEST PUSH2 0x126B JUMP JUMPDEST PUSH2 0x237 PUSH2 0x34B CALLDATASIZE PUSH1 0x4 PUSH2 0x1A4E JUMP JUMPDEST PUSH2 0x158A JUMP JUMPDEST PUSH2 0x185 PUSH2 0x1602 JUMP JUMPDEST PUSH1 0x8 SLOAD PUSH2 0x237 JUMP JUMPDEST PUSH2 0x237 PUSH1 0x7 SLOAD DUP2 JUMP JUMPDEST PUSH2 0x170 PUSH2 0x377 CALLDATASIZE PUSH1 0x4 PUSH2 0x1A4E JUMP JUMPDEST PUSH2 0x16E2 JUMP JUMPDEST PUSH2 0x170 PUSH2 0x38A CALLDATASIZE PUSH1 0x4 PUSH2 0x190B JUMP JUMPDEST PUSH2 0x1706 JUMP JUMPDEST PUSH2 0x170 PUSH2 0x39D CALLDATASIZE PUSH1 0x4 PUSH2 0x1940 JUMP JUMPDEST PUSH2 0x1713 JUMP JUMPDEST PUSH2 0x3AA PUSH2 0x174E JUMP JUMPDEST PUSH1 0x7 SSTORE JUMP JUMPDEST PUSH1 0x1 PUSH1 0x1 PUSH1 0xA0 SHL SUB DUP2 AND PUSH1 0x0 SWAP1 DUP2 MSTORE PUSH1 0x5 PUSH1 0x20 SWAP1 DUP2 MSTORE PUSH1 0x40 DUP1 DUP4 KECCAK256 DUP1 SLOAD DUP3 MLOAD DUP2 DUP6 MUL DUP2 ADD DUP6 ADD SWAP1 SWAP4 MSTORE DUP1 DUP4 MSTORE PUSH1 0x60 SWAP5 SWAP4 DUP4 ADD DUP3 DUP3 DUP1 ISZERO PUSH2 0x40E JUMPI PUSH1 0x20 MUL DUP3 ADD SWAP2 SWAP1 PUSH1 0x0 MSTORE PUSH1 0x20 PUSH1 0x0 KECCAK256 SWAP1 JUMPDEST DUP2 SLOAD DUP2 MSTORE PUSH1 0x20 ADD SWAP1 PUSH1 0x1 ADD SWAP1 DUP1 DUP4 GT PUSH2 0x3FA JUMPI JUMPDEST POP POP POP POP POP SWAP1 POP PUSH1 0x0 DUP2 MLOAD PUSH8 0xFFFFFFFFFFFFFFFF DUP2 GT ISZERO PUSH2 0x431 JUMPI PUSH2 0x431 PUSH2 0x1B05 JUMP JUMPDEST PUSH1 0x40 MLOAD SWAP1 DUP1 DUP3 MSTORE DUP1 PUSH1 0x20 MUL PUSH1 0x20 ADD DUP3 ADD PUSH1 0x40 MSTORE DUP1 ISZERO PUSH2 0x4DC JUMPI DUP2 PUSH1 0x20 ADD JUMPDEST PUSH2 0x4C9 PUSH1 0x40 MLOAD DUP1 PUSH2 0x160 ADD PUSH1 0x40 MSTORE DUP1 PUSH1 0x0 DUP2 MSTORE PUSH1 0x20 ADD PUSH1 0x0 DUP2 MSTORE PUSH1 0x20 ADD PUSH1 0x0 PUSH1 0x1 PUSH1 0x1 PUSH1 0xA0 SHL SUB AND DUP2 MSTORE PUSH1 0x20 ADD PUSH1 0x0 PUSH1 0x1 PUSH1 0x1 PUSH1 0xA0 SHL SUB AND DUP2 MSTORE PUSH1 0x20 ADD PUSH1 0x0 DUP2 MSTORE PUSH1 0x20 ADD PUSH1 0x0 DUP2 MSTORE PUSH1 0x20 ADD PUSH1 0x0 DUP2 MSTORE PUSH1 0x20 ADD PUSH1 0x0 DUP2 MSTORE PUSH1 0x20 ADD PUSH1 0x0 PUSH1 0x1 PUSH1 0x1 PUSH1 0xA0 SHL SUB AND DUP2 MSTORE PUSH1 0x20 ADD PUSH1 0x0 DUP2 MSTORE PUSH1 0x20 ADD PUSH1 0x0 ISZERO ISZERO DUP2 MSTORE POP SWAP1 JUMP JUMPDEST DUP2 MSTORE PUSH1 0x20 ADD SWAP1 PUSH1 0x1 SWAP1 SUB SWAP1 DUP2 PUSH2 0x44F JUMPI SWAP1 POP JUMPDEST POP SWAP1 POP PUSH1 0x0 JUMPDEST DUP3 MLOAD DUP2 LT ISZERO PUSH2 0x5EA JUMPI PUSH1 0x1 PUSH1 0x1 PUSH1 0xA0 SHL SUB DUP6 AND PUSH1 0x0 SWAP1 DUP2 MSTORE PUSH1 0x3 PUSH1 0x20 MSTORE PUSH1 0x40 DUP2 KECCAK256 DUP5 MLOAD SWAP1 SWAP2 SWAP1 DUP6 SWAP1 DUP5 SWAP1 DUP2 LT PUSH2 0x51A JUMPI PUSH2 0x51A PUSH2 0x1B1B JUMP JUMPDEST PUSH1 0x20 SWAP1 DUP2 MUL SWAP2 SWAP1 SWAP2 ADD DUP2 ADD MLOAD DUP3 MSTORE DUP2 DUP2 ADD SWAP3 SWAP1 SWAP3 MSTORE PUSH1 0x40 SWAP1 DUP2 ADD PUSH1 0x0 KECCAK256 DUP2 MLOAD PUSH2 0x160 DUP2 ADD DUP4 MSTORE DUP2 SLOAD DUP2 MSTORE PUSH1 0x1 DUP3 ADD SLOAD SWAP4 DUP2 ADD SWAP4 SWAP1 SWAP4 MSTORE PUSH1 0x2 DUP2 ADD SLOAD PUSH1 0x1 PUSH1 0x1 PUSH1 0xA0 SHL SUB SWAP1 DUP2 AND SWAP3 DUP5 ADD SWAP3 SWAP1 SWAP3 MSTORE PUSH1 0x3 DUP2 ADD SLOAD DUP3 AND PUSH1 0x60 DUP5 ADD MSTORE PUSH1 0x4 DUP2 ADD SLOAD PUSH1 0x80 DUP5 ADD MSTORE PUSH1 0x5 DUP2 ADD SLOAD PUSH1 0xA0 DUP5 ADD MSTORE PUSH1 0x6 DUP2 ADD SLOAD PUSH1 0xC0 DUP5 ADD MSTORE PUSH1 0x7 DUP2 ADD SLOAD PUSH1 0xE0 DUP5 ADD MSTORE PUSH1 0x8 DUP2 ADD SLOAD SWAP1 SWAP2 AND PUSH2 0x100 DUP4 ADD MSTORE PUSH1 0x9 DUP2 ADD SLOAD PUSH2 0x120 DUP4 ADD MSTORE PUSH1 0xA ADD SLOAD PUSH1 0xFF AND ISZERO ISZERO PUSH2 0x140 DUP3 ADD MSTORE DUP3 MLOAD DUP4 SWAP1 DUP4 SWAP1 DUP2 LT PUSH2 0x5D7 JUMPI PUSH2 0x5D7 PUSH2 0x1B1B JUMP JUMPDEST PUSH1 0x20 SWAP1 DUP2 MUL SWAP2 SWAP1 SWAP2 ADD ADD MSTORE PUSH1 0x1 ADD PUSH2 0x4E2 JUMP JUMPDEST POP SWAP4 SWAP3 POP POP POP JUMP JUMPDEST PUSH1 0xA DUP2 DUP2 SLOAD DUP2 LT PUSH2 0x602 JUMPI PUSH1 0x0 DUP1 REVERT JUMPDEST PUSH1 0x0 SWAP2 DUP3 MSTORE PUSH1 0x20 SWAP1 SWAP2 KECCAK256 PUSH1 0xB SWAP1 SWAP2 MUL ADD DUP1 SLOAD PUSH1 0x1 DUP3 ADD SLOAD PUSH1 0x2 DUP4 ADD SLOAD PUSH1 0x3 DUP5 ADD SLOAD PUSH1 0x4 DUP6 ADD SLOAD PUSH1 0x5 DUP7 ADD SLOAD PUSH1 0x6 DUP8 ADD SLOAD PUSH1 0x7 DUP9 ADD SLOAD PUSH1 0x8 DUP10 ADD SLOAD PUSH1 0x9 DUP11 ADD SLOAD PUSH1 0xA SWAP1 SWAP11 ADD SLOAD SWAP9 SWAP11 POP SWAP7 SWAP9 PUSH1 0x1 PUSH1 0x1 PUSH1 0xA0 SHL SUB SWAP7 DUP8 AND SWAP9 SWAP6 DUP8 AND SWAP8 SWAP5 SWAP7 SWAP4 SWAP6 SWAP3 SWAP5 SWAP2 SWAP4 SWAP1 SWAP2 AND SWAP2 PUSH1 0xFF AND DUP12 JUMP JUMPDEST PUSH2 0x676 PUSH2 0x174E JUMP JUMPDEST PUSH1 0x64 DUP2 GT ISZERO PUSH2 0x6CC JUMPI PUSH1 0x40 MLOAD PUSH3 0x461BCD PUSH1 0xE5 SHL DUP2 MSTORE PUSH1 0x20 PUSH1 0x4 DUP3 ADD MSTORE PUSH1 0x19 PUSH1 0x24 DUP3 ADD MSTORE PUSH32 0x5468726573686F6C64206D757374206265203C3D203130302500000000000000 PUSH1 0x44 DUP3 ADD MSTORE PUSH1 0x64 ADD JUMPDEST PUSH1 0x40 MLOAD DUP1 SWAP2 SUB SWAP1 REVERT JUMPDEST PUSH1 0x1 PUSH1 0x1 PUSH1 0xA0 SHL SUB SWAP1 SWAP2 AND PUSH1 0x0 SWAP1 DUP2 MSTORE PUSH1 0x4 PUSH1 0x20 MSTORE PUSH1 0x40 SWAP1 KECCAK256 SSTORE JUMP JUMPDEST PUSH1 0x0 DUP3 PUSH1 0x0 SUB PUSH2 0x6FB JUMPI POP PUSH1 0x0 NOT PUSH2 0x72D JUMP JUMPDEST PUSH1 0x1 PUSH1 0x1 PUSH1 0xA0 SHL SUB DUP3 AND PUSH1 0x0 SWAP1 DUP2 MSTORE PUSH1 0x4 PUSH1 0x20 MSTORE PUSH1 0x40 SWAP1 KECCAK256 SLOAD DUP4 SWAP1 PUSH2 0x720 SWAP1 DUP7 PUSH2 0x1B47 JUMP JUMPDEST PUSH2 0x72A SWAP2 SWAP1 PUSH2 0x1B5E JUMP JUMPDEST SWAP1 POP JUMPDEST SWAP4 SWAP3 POP POP POP JUMP JUMPDEST PUSH2 0x73C PUSH2 0x174E JUMP JUMPDEST PUSH2 0x751 PUSH1 0x1 PUSH1 0x1 PUSH1 0xA0 SHL SUB DUP4 AND CALLER ADDRESS DUP5 PUSH2 0x177B JUMP JUMPDEST PUSH1 0x40 MLOAD DUP2 DUP2 MSTORE PUSH1 0x1 PUSH1 0x1 PUSH1 0xA0 SHL SUB DUP4 AND SWAP1 CALLER SWAP1 PUSH32 0xAA1FF9F7FEA9B0B6004B27D6DAFAF7545A080426CC7115C6A8BD9019957C4353 SWAP1 PUSH1 0x20 ADD PUSH1 0x40 MLOAD DUP1 SWAP2 SUB SWAP1 LOG3 POP POP JUMP JUMPDEST PUSH2 0x79D PUSH2 0x17E8 JUMP JUMPDEST PUSH1 0x2 SLOAD PUSH1 0x40 MLOAD PUSH4 0xF9EAEE0D PUSH1 0xE0 SHL DUP2 MSTORE PUSH1 0x1 PUSH1 0x1 PUSH1 0xA0 SHL SUB DUP9 DUP2 AND PUSH1 0x4 DUP4 ADD MSTORE SWAP1 SWAP2 AND SWAP1 PUSH4 0xF9EAEE0D SWAP1 PUSH1 0x24 ADD PUSH1 0x20 PUSH1 0x40 MLOAD DUP1 DUP4 SUB DUP2 DUP7 GAS STATICCALL ISZERO DUP1 ISZERO PUSH2 0x7E7 JUMPI RETURNDATASIZE PUSH1 0x0 DUP1 RETURNDATACOPY RETURNDATASIZE PUSH1 0x0 REVERT JUMPDEST POP POP POP POP PUSH1 0x40 MLOAD RETURNDATASIZE PUSH1 0x1F NOT PUSH1 0x1F DUP3 ADD AND DUP3 ADD DUP1 PUSH1 0x40 MSTORE POP DUP2 ADD SWAP1 PUSH2 0x80B SWAP2 SWAP1 PUSH2 0x1B80 JUMP JUMPDEST PUSH2 0x857 JUMPI PUSH1 0x40 MLOAD PUSH3 0x461BCD PUSH1 0xE5 SHL DUP2 MSTORE PUSH1 0x20 PUSH1 0x4 DUP3 ADD MSTORE PUSH1 0x1B PUSH1 0x24 DUP3 ADD MSTORE PUSH32 0x636F6C6C61746572616C546F6B656E206E6F7420616C6C6F7765640000000000 PUSH1 0x44 DUP3 ADD MSTORE PUSH1 0x64 ADD PUSH2 0x6C3 JUMP JUMPDEST PUSH1 0x2 SLOAD PUSH1 0x40 MLOAD PUSH4 0xF9EAEE0D PUSH1 0xE0 SHL DUP2 MSTORE PUSH1 0x1 PUSH1 0x1 PUSH1 0xA0 SHL SUB DUP7 DUP2 AND PUSH1 0x4 DUP4 ADD MSTORE SWAP1 SWAP2 AND SWAP1 PUSH4 0xF9EAEE0D SWAP1 PUSH1 0x24 ADD PUSH1 0x20 PUSH1 0x40 MLOAD DUP1 DUP4 SUB DUP2 DUP7 GAS STATICCALL ISZERO DUP1 ISZERO PUSH2 0x8A1 JUMPI RETURNDATASIZE PUSH1 0x0 DUP1 RETURNDATACOPY RETURNDATASIZE PUSH1 0x0 REVERT JUMPDEST POP POP POP POP PUSH1 0x40 MLOAD RETURNDATASIZE PUSH1 0x1F NOT PUSH1 0x1F DUP3 ADD AND DUP3 ADD DUP1 PUSH1 0x40 MSTORE POP DUP2 ADD SWAP1 PUSH2 0x8C5 SWAP2 SWAP1 PUSH2 0x1B80 JUMP JUMPDEST PUSH2 0x911 JUMPI PUSH1 0x40 MLOAD PUSH3 0x461BCD PUSH1 0xE5 SHL DUP2 MSTORE PUSH1 0x20 PUSH1 0x4 DUP3 ADD MSTORE PUSH1 0x17 PUSH1 0x24 DUP3 ADD MSTORE PUSH32 0x626F72726F77546F6B656E206E6F7420616C6C6F776564000000000000000000 PUSH1 0x44 DUP3 ADD MSTORE PUSH1 0x64 ADD PUSH2 0x6C3 JUMP JUMPDEST PUSH1 0x0 DUP2 GT PUSH2 0x959 JUMPI PUSH1 0x40 MLOAD PUSH3 0x461BCD PUSH1 0xE5 SHL DUP2 MSTORE PUSH1 0x20 PUSH1 0x4 DUP3 ADD MSTORE PUSH1 0x15 PUSH1 0x24 DUP3 ADD MSTORE PUSH21 0x696E76616C696420696E7465726573742072617465 PUSH1 0x58 SHL PUSH1 0x44 DUP3 ADD MSTORE PUSH1 0x64 ADD PUSH2 0x6C3 JUMP JUMPDEST PUSH1 0x1 PUSH1 0x1 PUSH1 0xA0 SHL SUB DUP7 AND PUSH1 0x0 SWAP1 DUP2 MSTORE PUSH1 0x6 PUSH1 0x20 MSTORE PUSH1 0x40 SWAP1 KECCAK256 SLOAD DUP6 LT ISZERO PUSH2 0x9B6 JUMPI PUSH1 0x40 MLOAD PUSH3 0x461BCD PUSH1 0xE5 SHL DUP2 MSTORE PUSH1 0x20 PUSH1 0x4 DUP3 ADD MSTORE PUSH1 0x12 PUSH1 0x24 DUP3 ADD MSTORE PUSH18 0x636F6C6C61746572616C20746F6F206C6F77 PUSH1 0x70 SHL PUSH1 0x44 DUP3 ADD MSTORE PUSH1 0x64 ADD PUSH2 0x6C3 JUMP JUMPDEST PUSH1 0x0 DUP4 GT PUSH2 0x9FB JUMPI PUSH1 0x40 MLOAD PUSH3 0x461BCD PUSH1 0xE5 SHL DUP2 MSTORE PUSH1 0x20 PUSH1 0x4 DUP3 ADD MSTORE PUSH1 0x12 PUSH1 0x24 DUP3 ADD MSTORE PUSH18 0x626F72726F7720616D6F756E74206973203 PUSH1 0x74 SHL PUSH1 0x44 DUP3 ADD MSTORE PUSH1 0x64 ADD PUSH2 0x6C3 JUMP JUMPDEST PUSH1 0x8 SLOAD DUP3 LT ISZERO PUSH2 0xA42 JUMPI PUSH1 0x40 MLOAD PUSH3 0x461BCD PUSH1 0xE5 SHL DUP2 MSTORE PUSH1 0x20 PUSH1 0x4 DUP3 ADD MSTORE PUSH1 0x12 PUSH1 0x24 DUP3 ADD MSTORE PUSH18 0x191D5C985D1A5BDB881D1BDBC81CDA1BDC9D PUSH1 0x72 SHL PUSH1 0x44 DUP3 ADD MSTORE PUSH1 0x64 ADD PUSH2 0x6C3 JUMP JUMPDEST PUSH1 0x40 MLOAD PUSH4 0x70A08231 PUSH1 0xE0 SHL DUP2 MSTORE ADDRESS PUSH1 0x4 DUP3 ADD MSTORE DUP4 SWAP1 PUSH1 0x1 PUSH1 0x1 PUSH1 0xA0 SHL SUB DUP7 AND SWAP1 PUSH4 0x70A08231 SWAP1 PUSH1 0x24 ADD PUSH1 0x20 PUSH1 0x40 MLOAD DUP1 DUP4 SUB DUP2 DUP7 GAS STATICCALL ISZERO DUP1 ISZERO PUSH2 0xA88 JUMPI RETURNDATASIZE PUSH1 0x0 DUP1 RETURNDATACOPY RETURNDATASIZE PUSH1 0x0 REVERT JUMPDEST POP POP POP POP PUSH1 0x40 MLOAD RETURNDATASIZE PUSH1 0x1F NOT PUSH1 0x1F DUP3 ADD AND DUP3 ADD DUP1 PUSH1 0x40 MSTORE POP DUP2 ADD SWAP1 PUSH2 0xAAC SWAP2 SWAP1 PUSH2 0x1BA2 JUMP JUMPDEST LT ISZERO PUSH2 0xAF1 JUMPI PUSH1 0x40 MLOAD PUSH3 0x461BCD PUSH1 0xE5 SHL DUP2 MSTORE PUSH1 0x20 PUSH1 0x4 DUP3 ADD MSTORE PUSH1 0x14 PUSH1 0x24 DUP3 ADD MSTORE PUSH20 0x4E6F7420656E6F756768206C6971756964697479 PUSH1 0x60 SHL PUSH1 0x44 DUP3 ADD MSTORE PUSH1 0x64 ADD PUSH2 0x6C3 JUMP JUMPDEST PUSH1 0x0 PUSH2 0xAFE DUP7 DUP6 DUP10 PUSH2 0x6E8 JUMP JUMPDEST SWAP1 POP PUSH1 0x7 SLOAD DUP2 LT ISZERO PUSH2 0xB4A JUMPI PUSH1 0x40 MLOAD PUSH3 0x461BCD PUSH1 0xE5 SHL DUP2 MSTORE PUSH1 0x20 PUSH1 0x4 DUP3 ADD MSTORE PUSH1 0x15 PUSH1 0x24 DUP3 ADD MSTORE PUSH21 0x4865616C746820666163746F7220746F6F206C6F77 PUSH1 0x58 SHL PUSH1 0x44 DUP3 ADD MSTORE PUSH1 0x64 ADD PUSH2 0x6C3 JUMP JUMPDEST PUSH2 0xB5F PUSH1 0x1 PUSH1 0x1 PUSH1 0xA0 SHL SUB DUP9 AND CALLER ADDRESS DUP10 PUSH2 0x177B JUMP JUMPDEST PUSH2 0xB73 PUSH1 0x1 PUSH1 0x1 PUSH1 0xA0 SHL SUB DUP7 AND CALLER DUP7 PUSH2 0x1812 JUMP JUMPDEST PUSH1 0x9 DUP1 SLOAD PUSH1 0x0 SWAP2 DUP3 PUSH2 0xB84 DUP4 PUSH2 0x1BBB JUMP JUMPDEST SWAP2 SWAP1 POP SSTORE SWAP1 POP PUSH1 0x0 PUSH1 0x40 MLOAD DUP1 PUSH2 0x160 ADD PUSH1 0x40 MSTORE DUP1 DUP4 DUP2 MSTORE PUSH1 0x20 ADD DUP10 DUP2 MSTORE PUSH1 0x20 ADD DUP11 PUSH1 0x1 PUSH1 0x1 PUSH1 0xA0 SHL SUB AND DUP2 MSTORE PUSH1 0x20 ADD DUP9 PUSH1 0x1 PUSH1 0x1 PUSH1 0xA0 SHL SUB AND DUP2 MSTORE PUSH1 0x20 ADD DUP8 DUP2 MSTORE PUSH1 0x20 ADD DUP7 DUP2 MSTORE PUSH1 0x20 ADD TIMESTAMP DUP2 MSTORE PUSH1 0x20 ADD DUP6 DUP2 MSTORE PUSH1 0x20 ADD CALLER PUSH1 0x1 PUSH1 0x1 PUSH1 0xA0 SHL SUB AND DUP2 MSTORE PUSH1 0x20 ADD PUSH1 0x0 DUP2 MSTORE PUSH1 0x20 ADD PUSH1 0x1 ISZERO ISZERO DUP2 MSTORE POP SWAP1 POP PUSH1 0x5 PUSH1 0x0 CALLER PUSH1 0x1 PUSH1 0x1 PUSH1 0xA0 SHL SUB AND PUSH1 0x1 PUSH1 0x1 PUSH1 0xA0 SHL SUB AND DUP2 MSTORE PUSH1 0x20 ADD SWAP1 DUP2 MSTORE PUSH1 0x20 ADD PUSH1 0x0 KECCAK256 DUP3 SWAP1 DUP1 PUSH1 0x1 DUP2 SLOAD ADD DUP1 DUP3 SSTORE DUP1 SWAP2 POP POP PUSH1 0x1 SWAP1 SUB SWAP1 PUSH1 0x0 MSTORE PUSH1 0x20 PUSH1 0x0 KECCAK256 ADD PUSH1 0x0 SWAP1 SWAP2 SWAP1 SWAP2 SWAP1 SWAP2 POP SSTORE PUSH1 0xA DUP2 SWAP1 DUP1 PUSH1 0x1 DUP2 SLOAD ADD DUP1 DUP3 SSTORE DUP1 SWAP2 POP POP PUSH1 0x1 SWAP1 SUB SWAP1 PUSH1 0x0 MSTORE PUSH1 0x20 PUSH1 0x0 KECCAK256 SWAP1 PUSH1 0xB MUL ADD PUSH1 0x0 SWAP1 SWAP2 SWAP1 SWAP2 SWAP1 SWAP2 POP PUSH1 0x0 DUP3 ADD MLOAD DUP2 PUSH1 0x0 ADD SSTORE PUSH1 0x20 DUP3 ADD MLOAD DUP2 PUSH1 0x1 ADD SSTORE PUSH1 0x40 DUP3 ADD MLOAD DUP2 PUSH1 0x2 ADD PUSH1 0x0 PUSH2 0x100 EXP DUP2 SLOAD DUP2 PUSH1 0x1 PUSH1 0x1 PUSH1 0xA0 SHL SUB MUL NOT AND SWAP1 DUP4 PUSH1 0x1 PUSH1 0x1 PUSH1 0xA0 SHL SUB AND MUL OR SWAP1 SSTORE POP PUSH1 0x60 DUP3 ADD MLOAD DUP2 PUSH1 0x3 ADD PUSH1 0x0 PUSH2 0x100 EXP DUP2 SLOAD DUP2 PUSH1 0x1 PUSH1 0x1 PUSH1 0xA0 SHL SUB MUL NOT AND SWAP1 DUP4 PUSH1 0x1 PUSH1 0x1 PUSH1 0xA0 SHL SUB AND MUL OR SWAP1 SSTORE POP PUSH1 0x80 DUP3 ADD MLOAD DUP2 PUSH1 0x4 ADD SSTORE PUSH1 0xA0 DUP3 ADD MLOAD DUP2 PUSH1 0x5 ADD SSTORE PUSH1 0xC0 DUP3 ADD MLOAD DUP2 PUSH1 0x6 ADD SSTORE PUSH1 0xE0 DUP3 ADD MLOAD DUP2 PUSH1 0x7 ADD SSTORE PUSH2 0x100 DUP3 ADD MLOAD DUP2 PUSH1 0x8 ADD PUSH1 0x0 PUSH2 0x100 EXP DUP2 SLOAD DUP2 PUSH1 0x1 PUSH1 0x1 PUSH1 0xA0 SHL SUB MUL NOT AND SWAP1 DUP4 PUSH1 0x1 PUSH1 0x1 PUSH1 0xA0 SHL SUB AND MUL OR SWAP1 SSTORE POP PUSH2 0x120 DUP3 ADD MLOAD DUP2 PUSH1 0x9 ADD SSTORE PUSH2 0x140 DUP3 ADD MLOAD DUP2 PUSH1 0xA ADD PUSH1 0x0 PUSH2 0x100 EXP DUP2 SLOAD DUP2 PUSH1 0xFF MUL NOT AND SWAP1 DUP4 ISZERO ISZERO MUL OR SWAP1 SSTORE POP POP POP DUP1 PUSH1 0x3 PUSH1 0x0 CALLER PUSH1 0x1 PUSH1 0x1 PUSH1 0xA0 SHL SUB AND PUSH1 0x1 PUSH1 0x1 PUSH1 0xA0 SHL SUB AND DUP2 MSTORE PUSH1 0x20 ADD SWAP1 DUP2 MSTORE PUSH1 0x20 ADD PUSH1 0x0 KECCAK256 PUSH1 0x0 DUP5 DUP2 MSTORE PUSH1 0x20 ADD SWAP1 DUP2 MSTORE PUSH1 0x20 ADD PUSH1 0x0 KECCAK256 PUSH1 0x0 DUP3 ADD MLOAD DUP2 PUSH1 0x0 ADD SSTORE PUSH1 0x20 DUP3 ADD MLOAD DUP2 PUSH1 0x1 ADD SSTORE PUSH1 0x40 DUP3 ADD MLOAD DUP2 PUSH1 0x2 ADD PUSH1 0x0 PUSH2 0x100 EXP DUP2 SLOAD DUP2 PUSH1 0x1 PUSH1 0x1 PUSH1 0xA0 SHL SUB MUL NOT AND SWAP1 DUP4 PUSH1 0x1 PUSH1 0x1 PUSH1 0xA0 SHL SUB AND MUL OR SWAP1 SSTORE POP PUSH1 0x60 DUP3 ADD MLOAD DUP2 PUSH1 0x3 ADD PUSH1 0x0 PUSH2 0x100 EXP DUP2 SLOAD DUP2 PUSH1 0x1 PUSH1 0x1 PUSH1 0xA0 SHL SUB MUL NOT AND SWAP1 DUP4 PUSH1 0x1 PUSH1 0x1 PUSH1 0xA0 SHL SUB AND MUL OR SWAP1 SSTORE POP PUSH1 0x80 DUP3 ADD MLOAD DUP2 PUSH1 0x4 ADD SSTORE PUSH1 0xA0 DUP3 ADD MLOAD DUP2 PUSH1 0x5 ADD SSTORE PUSH1 0xC0 DUP3 ADD MLOAD DUP2 PUSH1 0x6 ADD SSTORE PUSH1 0xE0 DUP3 ADD MLOAD DUP2 PUSH1 0x7 ADD SSTORE PUSH2 0x100 DUP3 ADD MLOAD DUP2 PUSH1 0x8 ADD PUSH1 0x0 PUSH2 0x100 EXP DUP2 SLOAD DUP2 PUSH1 0x1 PUSH1 0x1 PUSH1 0xA0 SHL SUB MUL NOT AND SWAP1 DUP4 PUSH1 0x1 PUSH1 0x1 PUSH1 0xA0 SHL SUB AND MUL OR SWAP1 SSTORE POP PUSH2 0x120 DUP3 ADD MLOAD DUP2 PUSH1 0x9 ADD SSTORE PUSH2 0x140 DUP3 ADD MLOAD DUP2 PUSH1 0xA ADD PUSH1 0x0 PUSH2 0x100 EXP DUP2 SLOAD DUP2 PUSH1 0xFF MUL NOT AND SWAP1 DUP4 ISZERO ISZERO MUL OR SWAP1 SSTORE POP SWAP1 POP POP CALLER PUSH1 0x1 PUSH1 0x1 PUSH1 0xA0 SHL SUB AND PUSH32 0x3B2B81666FE526902FA85BA380549DD59F155D7258E132EC0BB898F26EDE3D20 DUP4 DUP9 DUP11 DUP10 PUSH1 0x40 MLOAD PUSH2 0xEEB SWAP5 SWAP4 SWAP3 SWAP2 SWAP1 SWAP4 DUP5 MSTORE PUSH1 0x20 DUP5 ADD SWAP3 SWAP1 SWAP3 MSTORE PUSH1 0x1 PUSH1 0x1 PUSH1 0xA0 SHL SUB AND PUSH1 0x40 DUP4 ADD MSTORE PUSH1 0x60 DUP3 ADD MSTORE PUSH1 0x80 ADD SWAP1 JUMP JUMPDEST PUSH1 0x40 MLOAD DUP1 SWAP2 SUB SWAP1 LOG2 PUSH1 0x40 MLOAD DUP9 DUP2 MSTORE PUSH1 0x1 PUSH1 0x1 PUSH1 0xA0 SHL SUB DUP11 AND SWAP1 CALLER SWAP1 PUSH32 0xF1C0DD7E9B98BBFF859029005EF89B127AF049CD18DF1A8D79F0B7E019911E56 SWAP1 PUSH1 0x20 ADD PUSH1 0x40 MLOAD DUP1 SWAP2 SUB SWAP1 LOG3 POP POP POP PUSH2 0xF40 PUSH1 0x1 PUSH1 0x0 SSTORE JUMP JUMPDEST POP POP POP POP POP POP JUMP JUMPDEST PUSH2 0xF50 PUSH2 0x174E JUMP JUMPDEST PUSH2 0xF5A PUSH1 0x0 PUSH2 0x1848 JUMP JUMPDEST JUMP JUMPDEST PUSH2 0xF64 PUSH2 0x17E8 JUMP JUMPDEST CALLER PUSH1 0x0 SWAP1 DUP2 MSTORE PUSH1 0x3 PUSH1 0x20 SWAP1 DUP2 MSTORE PUSH1 0x40 DUP1 DUP4 KECCAK256 DUP5 DUP5 MSTORE SWAP1 SWAP2 MSTORE SWAP1 KECCAK256 DUP1 SLOAD DUP3 EQ PUSH2 0xFBF JUMPI PUSH1 0x40 MLOAD PUSH3 0x461BCD PUSH1 0xE5 SHL DUP2 MSTORE PUSH1 0x20 PUSH1 0x4 DUP3 ADD MSTORE PUSH1 0xE PUSH1 0x24 DUP3 ADD MSTORE PUSH14 0x131BD85B881B9BDD08199BDD5B99 PUSH1 0x92 SHL PUSH1 0x44 DUP3 ADD MSTORE PUSH1 0x64 ADD PUSH2 0x6C3 JUMP JUMPDEST PUSH1 0xA DUP2 ADD SLOAD PUSH1 0xFF AND PUSH2 0x1008 JUMPI PUSH1 0x40 MLOAD PUSH3 0x461BCD PUSH1 0xE5 SHL DUP2 MSTORE PUSH1 0x20 PUSH1 0x4 DUP3 ADD MSTORE PUSH1 0x12 PUSH1 0x24 DUP3 ADD MSTORE PUSH18 0x4C6F616E206973206E6F7420616374697665 PUSH1 0x70 SHL PUSH1 0x44 DUP3 ADD MSTORE PUSH1 0x64 ADD PUSH2 0x6C3 JUMP JUMPDEST DUP1 PUSH1 0x5 ADD SLOAD DUP2 PUSH1 0x6 ADD SLOAD PUSH2 0x101C SWAP2 SWAP1 PUSH2 0x1BD4 JUMP JUMPDEST TIMESTAMP GT ISZERO PUSH2 0x105A JUMPI PUSH1 0x40 MLOAD PUSH3 0x461BCD PUSH1 0xE5 SHL DUP2 MSTORE PUSH1 0x20 PUSH1 0x4 DUP3 ADD MSTORE PUSH1 0xC PUSH1 0x24 DUP3 ADD MSTORE PUSH12 0x131BD85B88195E1C1A5C9959 PUSH1 0xA2 SHL PUSH1 0x44 DUP3 ADD MSTORE PUSH1 0x64 ADD PUSH2 0x6C3 JUMP JUMPDEST PUSH1 0x0 PUSH2 0x1066 CALLER DUP5 PUSH2 0x158A JUMP JUMPDEST PUSH1 0x3 DUP4 ADD SLOAD SWAP1 SWAP2 POP PUSH2 0x1083 SWAP1 PUSH1 0x1 PUSH1 0x1 PUSH1 0xA0 SHL SUB AND CALLER ADDRESS DUP5 PUSH2 0x177B JUMP JUMPDEST PUSH1 0xA DUP3 ADD DUP1 SLOAD PUSH1 0xFF NOT AND SWAP1 SSTORE PUSH1 0x0 JUMPDEST PUSH1 0xA SLOAD DUP2 LT ISZERO PUSH2 0x11B9 JUMPI DUP4 PUSH1 0xA DUP3 DUP2 SLOAD DUP2 LT PUSH2 0x10B0 JUMPI PUSH2 0x10B0 PUSH2 0x1B1B JUMP JUMPDEST SWAP1 PUSH1 0x0 MSTORE PUSH1 0x20 PUSH1 0x0 KECCAK256 SWAP1 PUSH1 0xB MUL ADD PUSH1 0x0 ADD SLOAD EQ DUP1 ISZERO PUSH2 0x1106 JUMPI POP CALLER PUSH1 0x1 PUSH1 0x1 PUSH1 0xA0 SHL SUB AND PUSH1 0xA DUP3 DUP2 SLOAD DUP2 LT PUSH2 0x10E7 JUMPI PUSH2 0x10E7 PUSH2 0x1B1B JUMP JUMPDEST PUSH1 0x0 SWAP2 DUP3 MSTORE PUSH1 0x20 SWAP1 SWAP2 KECCAK256 PUSH1 0x8 PUSH1 0xB SWAP1 SWAP3 MUL ADD ADD SLOAD PUSH1 0x1 PUSH1 0x1 PUSH1 0xA0 SHL SUB AND EQ JUMPDEST ISZERO PUSH2 0x11B1 JUMPI PUSH1 0x0 PUSH1 0xA DUP3 DUP2 SLOAD DUP2 LT PUSH2 0x1120 JUMPI PUSH2 0x1120 PUSH2 0x1B1B JUMP JUMPDEST SWAP1 PUSH1 0x0 MSTORE PUSH1 0x20 PUSH1 0x0 KECCAK256 SWAP1 PUSH1 0xB MUL ADD PUSH1 0xA ADD PUSH1 0x0 PUSH2 0x100 EXP DUP2 SLOAD DUP2 PUSH1 0xFF MUL NOT AND SWAP1 DUP4 ISZERO ISZERO MUL OR SWAP1 SSTORE POP PUSH32 0xF7BDB03FBA5957A14F016DEEA0BEB505430AA6A80B743DF13510DB2E32CBFA86 PUSH1 0xA DUP3 DUP2 SLOAD DUP2 LT PUSH2 0x117C JUMPI PUSH2 0x117C PUSH2 0x1B1B JUMP JUMPDEST PUSH1 0x0 SWAP2 DUP3 MSTORE PUSH1 0x20 DUP3 KECCAK256 PUSH1 0xB SWAP1 SWAP2 MUL ADD SLOAD PUSH1 0x40 MLOAD PUSH2 0x11A4 SWAP3 SWAP1 SWAP2 DUP3 MSTORE ISZERO ISZERO PUSH1 0x20 DUP3 ADD MSTORE PUSH1 0x40 ADD SWAP1 JUMP JUMPDEST PUSH1 0x40 MLOAD DUP1 SWAP2 SUB SWAP1 LOG1 PUSH2 0x11B9 JUMP JUMPDEST PUSH1 0x1 ADD PUSH2 0x1092 JUMP JUMPDEST POP PUSH1 0x1 DUP3 ADD SLOAD PUSH1 0x2 DUP4 ADD SLOAD PUSH2 0x11DB SWAP2 PUSH1 0x1 PUSH1 0x1 PUSH1 0xA0 SHL SUB SWAP1 SWAP2 AND SWAP1 CALLER SWAP1 PUSH2 0x1812 JUMP JUMPDEST PUSH1 0x40 DUP1 MLOAD DUP5 DUP2 MSTORE PUSH1 0x20 DUP2 ADD DUP4 SWAP1 MSTORE CALLER SWAP2 PUSH32 0xC7CE0A35F17B490DE2A317E7FECB2CAE86B1ABFFB03800B2F492823521382698 SWAP2 ADD PUSH1 0x40 MLOAD DUP1 SWAP2 SUB SWAP1 LOG2 PUSH1 0x1 DUP3 ADD SLOAD PUSH1 0x40 MLOAD CALLER SWAP2 PUSH32 0xDAED309A628FAEC6CAB72194019E2A1A34E890CA9BF9BE99788992DD54692819 SWAP2 PUSH2 0x1254 SWAP2 DUP8 DUP3 MSTORE PUSH1 0x20 DUP3 ADD MSTORE PUSH1 0x40 ADD SWAP1 JUMP JUMPDEST PUSH1 0x40 MLOAD DUP1 SWAP2 SUB SWAP1 LOG2 POP POP PUSH2 0x1268 PUSH1 0x1 PUSH1 0x0 SSTORE JUMP JUMPDEST POP JUMP JUMPDEST PUSH2 0x1273 PUSH2 0x17E8 JUMP JUMPDEST PUSH1 0x1 PUSH1 0x1 PUSH1 0xA0 SHL SUB DUP3 AND PUSH1 0x0 SWAP1 DUP2 MSTORE PUSH1 0x3 PUSH1 0x20 SWAP1 DUP2 MSTORE PUSH1 0x40 DUP1 DUP4 KECCAK256 DUP5 DUP5 MSTORE SWAP1 SWAP2 MSTORE SWAP1 KECCAK256 PUSH1 0xA DUP2 ADD SLOAD PUSH1 0xFF AND PUSH2 0x12DF JUMPI PUSH1 0x40 MLOAD PUSH3 0x461BCD PUSH1 0xE5 SHL DUP2 MSTORE PUSH1 0x20 PUSH1 0x4 DUP3 ADD MSTORE PUSH1 0x12 PUSH1 0x24 DUP3 ADD MSTORE PUSH18 0x4C6F616E206973206E6F7420616374697665 PUSH1 0x70 SHL PUSH1 0x44 DUP3 ADD MSTORE PUSH1 0x64 ADD PUSH2 0x6C3 JUMP JUMPDEST PUSH1 0x2 DUP2 ADD SLOAD PUSH1 0x1 PUSH1 0x1 PUSH1 0xA0 SHL SUB AND PUSH1 0x0 SWAP1 DUP2 MSTORE PUSH1 0x4 PUSH1 0x20 MSTORE PUSH1 0x40 SWAP1 KECCAK256 SLOAD DUP1 PUSH2 0x1349 JUMPI PUSH1 0x40 MLOAD PUSH3 0x461BCD PUSH1 0xE5 SHL DUP2 MSTORE PUSH1 0x20 PUSH1 0x4 DUP3 ADD MSTORE PUSH1 0x1D PUSH1 0x24 DUP3 ADD MSTORE PUSH32 0x4C69717569646174696F6E207468726573686F6C64206E6F7420736574000000 PUSH1 0x44 DUP3 ADD MSTORE PUSH1 0x64 ADD PUSH2 0x6C3 JUMP JUMPDEST PUSH1 0x0 PUSH2 0x1355 DUP6 DUP6 PUSH2 0x158A JUMP JUMPDEST PUSH1 0x1 DUP5 ADD SLOAD PUSH1 0x2 DUP6 ADD SLOAD SWAP2 SWAP3 POP PUSH1 0x0 SWAP2 PUSH2 0x137A SWAP2 SWAP1 DUP5 SWAP1 PUSH1 0x1 PUSH1 0x1 PUSH1 0xA0 SHL SUB AND PUSH2 0x6E8 JUMP JUMPDEST SWAP1 POP DUP3 DUP2 LT PUSH2 0x13DD JUMPI PUSH1 0x40 MLOAD PUSH3 0x461BCD PUSH1 0xE5 SHL DUP2 MSTORE PUSH1 0x20 PUSH1 0x4 DUP3 ADD MSTORE PUSH1 0x29 PUSH1 0x24 DUP3 ADD MSTORE PUSH32 0x4865616C746820666163746F722061626F7665206C69717569646174696F6E20 PUSH1 0x44 DUP3 ADD MSTORE PUSH9 0x1D1A1C995CDA1BDB19 PUSH1 0xBA SHL PUSH1 0x64 DUP3 ADD MSTORE PUSH1 0x84 ADD PUSH2 0x6C3 JUMP JUMPDEST PUSH1 0x1 DUP5 ADD SLOAD PUSH1 0x2 DUP6 ADD SLOAD PUSH2 0x13FE SWAP2 PUSH1 0x1 PUSH1 0x1 PUSH1 0xA0 SHL SUB SWAP1 SWAP2 AND SWAP1 CALLER SWAP1 PUSH2 0x1812 JUMP JUMPDEST PUSH1 0xA DUP5 ADD DUP1 SLOAD PUSH1 0xFF NOT AND SWAP1 SSTORE PUSH1 0x0 JUMPDEST PUSH1 0xA SLOAD DUP2 LT ISZERO PUSH2 0x1534 JUMPI DUP6 PUSH1 0xA DUP3 DUP2 SLOAD DUP2 LT PUSH2 0x142B JUMPI PUSH2 0x142B PUSH2 0x1B1B JUMP JUMPDEST SWAP1 PUSH1 0x0 MSTORE PUSH1 0x20 PUSH1 0x0 KECCAK256 SWAP1 PUSH1 0xB MUL ADD PUSH1 0x0 ADD SLOAD EQ DUP1 ISZERO PUSH2 0x1481 JUMPI POP DUP7 PUSH1 0x1 PUSH1 0x1 PUSH1 0xA0 SHL SUB AND PUSH1 0xA DUP3 DUP2 SLOAD DUP2 LT PUSH2 0x1462 JUMPI PUSH2 0x1462 PUSH2 0x1B1B JUMP JUMPDEST PUSH1 0x0 SWAP2 DUP3 MSTORE PUSH1 0x20 SWAP1 SWAP2 KECCAK256 PUSH1 0x8 PUSH1 0xB SWAP1 SWAP3 MUL ADD ADD SLOAD PUSH1 0x1 PUSH1 0x1 PUSH1 0xA0 SHL SUB AND EQ JUMPDEST ISZERO PUSH2 0x152C JUMPI PUSH1 0x0 PUSH1 0xA DUP3 DUP2 SLOAD DUP2 LT PUSH2 0x149B JUMPI PUSH2 0x149B PUSH2 0x1B1B JUMP JUMPDEST SWAP1 PUSH1 0x0 MSTORE PUSH1 0x20 PUSH1 0x0 KECCAK256 SWAP1 PUSH1 0xB MUL ADD PUSH1 0xA ADD PUSH1 0x0 PUSH2 0x100 EXP DUP2 SLOAD DUP2 PUSH1 0xFF MUL NOT AND SWAP1 DUP4 ISZERO ISZERO MUL OR SWAP1 SSTORE POP PUSH32 0xF7BDB03FBA5957A14F016DEEA0BEB505430AA6A80B743DF13510DB2E32CBFA86 PUSH1 0xA DUP3 DUP2 SLOAD DUP2 LT PUSH2 0x14F7 JUMPI PUSH2 0x14F7 PUSH2 0x1B1B JUMP JUMPDEST PUSH1 0x0 SWAP2 DUP3 MSTORE PUSH1 0x20 DUP3 KECCAK256 PUSH1 0xB SWAP1 SWAP2 MUL ADD SLOAD PUSH1 0x40 MLOAD PUSH2 0x151F SWAP3 SWAP1 SWAP2 DUP3 MSTORE ISZERO ISZERO PUSH1 0x20 DUP3 ADD MSTORE PUSH1 0x40 ADD SWAP1 JUMP JUMPDEST PUSH1 0x40 MLOAD DUP1 SWAP2 SUB SWAP1 LOG1 PUSH2 0x1534 JUMP JUMPDEST PUSH1 0x1 ADD PUSH2 0x140D JUMP JUMPDEST POP PUSH1 0x40 DUP1 MLOAD DUP7 DUP2 MSTORE CALLER PUSH1 0x20 DUP3 ADD MSTORE PUSH1 0x1 PUSH1 0x1 PUSH1 0xA0 SHL SUB DUP9 AND SWAP2 PUSH32 0xDE21B2A43B0A2C2109C049FB1E4BB8653FD67D0FFD74FDCB662DB381F1EEAB38 SWAP2 ADD PUSH1 0x40 MLOAD DUP1 SWAP2 SUB SWAP1 LOG2 POP POP POP POP PUSH2 0x1586 PUSH1 0x1 PUSH1 0x0 SSTORE JUMP JUMPDEST POP POP JUMP JUMPDEST PUSH1 0x1 PUSH1 0x1 PUSH1 0xA0 SHL SUB DUP3 AND PUSH1 0x0 SWAP1 DUP2 MSTORE PUSH1 0x3 PUSH1 0x20 SWAP1 DUP2 MSTORE PUSH1 0x40 DUP1 DUP4 KECCAK256 DUP5 DUP5 MSTORE SWAP1 SWAP2 MSTORE DUP2 KECCAK256 PUSH1 0x4 DUP2 ADD SLOAD PUSH1 0x7 DUP3 ADD SLOAD PUSH1 0x5 DUP4 ADD SLOAD DUP5 PUSH5 0x496CEBB800 DUP3 PUSH2 0x15CE DUP6 DUP8 PUSH2 0x1B47 JUMP JUMPDEST PUSH2 0x15D8 SWAP2 SWAP1 PUSH2 0x1B47 JUMP JUMPDEST PUSH2 0x15E2 SWAP2 SWAP1 PUSH2 0x1B5E JUMP JUMPDEST SWAP1 POP DUP1 DUP6 PUSH1 0x4 ADD SLOAD PUSH2 0x15F4 SWAP2 SWAP1 PUSH2 0x1BD4 JUMP JUMPDEST SWAP6 POP POP POP POP POP POP JUMPDEST SWAP3 SWAP2 POP POP JUMP JUMPDEST PUSH1 0x60 PUSH1 0xA DUP1 SLOAD DUP1 PUSH1 0x20 MUL PUSH1 0x20 ADD PUSH1 0x40 MLOAD SWAP1 DUP2 ADD PUSH1 0x40 MSTORE DUP1 SWAP3 SWAP2 SWAP1 DUP2 DUP2 MSTORE PUSH1 0x20 ADD PUSH1 0x0 SWAP1 JUMPDEST DUP3 DUP3 LT ISZERO PUSH2 0x16D9 JUMPI PUSH1 0x0 DUP5 DUP2 MSTORE PUSH1 0x20 SWAP1 DUP2 SWAP1 KECCAK256 PUSH1 0x40 DUP1 MLOAD PUSH2 0x160 DUP2 ADD DUP3 MSTORE PUSH1 0xB DUP7 MUL SWAP1 SWAP3 ADD DUP1 SLOAD DUP4 MSTORE PUSH1 0x1 DUP1 DUP3 ADD SLOAD DUP5 DUP7 ADD MSTORE PUSH1 0x2 DUP3 ADD SLOAD PUSH1 0x1 PUSH1 0x1 PUSH1 0xA0 SHL SUB SWAP1 DUP2 AND SWAP4 DUP6 ADD SWAP4 SWAP1 SWAP4 MSTORE PUSH1 0x3 DUP3 ADD SLOAD DUP4 AND PUSH1 0x60 DUP6 ADD MSTORE PUSH1 0x4 DUP3 ADD SLOAD PUSH1 0x80 DUP6 ADD MSTORE PUSH1 0x5 DUP3 ADD SLOAD PUSH1 0xA0 DUP6 ADD MSTORE PUSH1 0x6 DUP3 ADD SLOAD PUSH1 0xC0 DUP6 ADD MSTORE PUSH1 0x7 DUP3 ADD SLOAD PUSH1 0xE0 DUP6 ADD MSTORE PUSH1 0x8 DUP3 ADD SLOAD SWAP1 SWAP3 AND PUSH2 0x100 DUP5 ADD MSTORE PUSH1 0x9 DUP2 ADD SLOAD PUSH2 0x120 DUP5 ADD MSTORE PUSH1 0xA ADD SLOAD PUSH1 0xFF AND ISZERO ISZERO PUSH2 0x140 DUP4 ADD MSTORE SWAP1 DUP4 MSTORE SWAP1 SWAP3 ADD SWAP2 ADD PUSH2 0x1626 JUMP JUMPDEST POP POP POP POP SWAP1 POP SWAP1 JUMP JUMPDEST PUSH2 0x16EA PUSH2 0x174E JUMP JUMPDEST PUSH1 0x1 PUSH1 0x1 PUSH1 0xA0 SHL SUB SWAP1 SWAP2 AND PUSH1 0x0 SWAP1 DUP2 MSTORE PUSH1 0x6 PUSH1 0x20 MSTORE PUSH1 0x40 SWAP1 KECCAK256 SSTORE JUMP JUMPDEST PUSH2 0x170E PUSH2 0x174E JUMP JUMPDEST PUSH1 0x8 SSTORE JUMP JUMPDEST PUSH2 0x171B PUSH2 0x174E JUMP JUMPDEST PUSH1 0x1 PUSH1 0x1 PUSH1 0xA0 SHL SUB DUP2 AND PUSH2 0x1745 JUMPI PUSH1 0x40 MLOAD PUSH4 0x1E4FBDF7 PUSH1 0xE0 SHL DUP2 MSTORE PUSH1 0x0 PUSH1 0x4 DUP3 ADD MSTORE PUSH1 0x24 ADD PUSH2 0x6C3 JUMP JUMPDEST PUSH2 0x1268 DUP2 PUSH2 0x1848 JUMP JUMPDEST PUSH1 0x1 SLOAD PUSH1 0x1 PUSH1 0x1 PUSH1 0xA0 SHL SUB AND CALLER EQ PUSH2 0xF5A JUMPI PUSH1 0x40 MLOAD PUSH4 0x118CDAA7 PUSH1 0xE0 SHL DUP2 MSTORE CALLER PUSH1 0x4 DUP3 ADD MSTORE PUSH1 0x24 ADD PUSH2 0x6C3 JUMP JUMPDEST PUSH1 0x40 MLOAD PUSH1 0x1 PUSH1 0x1 PUSH1 0xA0 SHL SUB DUP5 DUP2 AND PUSH1 0x24 DUP4 ADD MSTORE DUP4 DUP2 AND PUSH1 0x44 DUP4 ADD MSTORE PUSH1 0x64 DUP3 ADD DUP4 SWAP1 MSTORE PUSH2 0x17E2 SWAP2 DUP7 SWAP2 DUP3 AND SWAP1 PUSH4 0x23B872DD SWAP1 PUSH1 0x84 ADD JUMPDEST PUSH1 0x40 MLOAD PUSH1 0x20 DUP2 DUP4 SUB SUB DUP2 MSTORE SWAP1 PUSH1 0x40 MSTORE SWAP2 POP PUSH1 0xE0 SHL PUSH1 0x20 DUP3 ADD DUP1 MLOAD PUSH1 0x1 PUSH1 0x1 PUSH1 0xE0 SHL SUB DUP4 DUP2 DUP4 AND OR DUP4 MSTORE POP POP POP POP PUSH2 0x189A JUMP JUMPDEST POP POP POP POP JUMP JUMPDEST PUSH1 0x2 PUSH1 0x0 SLOAD SUB PUSH2 0x180B JUMPI PUSH1 0x40 MLOAD PUSH4 0x3EE5AEB5 PUSH1 0xE0 SHL DUP2 MSTORE PUSH1 0x4 ADD PUSH1 0x40 MLOAD DUP1 SWAP2 SUB SWAP1 REVERT JUMPDEST PUSH1 0x2 PUSH1 0x0 SSTORE JUMP JUMPDEST PUSH1 0x40 MLOAD PUSH1 0x1 PUSH1 0x1 PUSH1 0xA0 SHL SUB DUP4 DUP2 AND PUSH1 0x24 DUP4 ADD MSTORE PUSH1 0x44 DUP3 ADD DUP4 SWAP1 MSTORE PUSH2 0x1843 SWAP2 DUP6 SWAP2 DUP3 AND SWAP1 PUSH4 0xA9059CBB SWAP1 PUSH1 0x64 ADD PUSH2 0x17B0 JUMP JUMPDEST POP POP POP JUMP JUMPDEST PUSH1 0x1 DUP1 SLOAD PUSH1 0x1 PUSH1 0x1 PUSH1 0xA0 SHL SUB DUP4 DUP2 AND PUSH1 0x1 PUSH1 0x1 PUSH1 0xA0 SHL SUB NOT DUP4 AND DUP2 OR SWAP1 SWAP4 SSTORE PUSH1 0x40 MLOAD SWAP2 AND SWAP2 SWAP1 DUP3 SWAP1 PUSH32 0x8BE0079C531659141344CD1FD0A4F28419497F9722A3DAAFE3B4186F6B6457E0 SWAP1 PUSH1 0x0 SWAP1 LOG3 POP POP JUMP JUMPDEST PUSH1 0x0 DUP1 PUSH1 0x20 PUSH1 0x0 DUP5 MLOAD PUSH1 0x20 DUP7 ADD PUSH1 0x0 DUP9 GAS CALL DUP1 PUSH2 0x18BD JUMPI PUSH1 0x40 MLOAD RETURNDATASIZE PUSH1 0x0 DUP3 RETURNDATACOPY RETURNDATASIZE DUP2 REVERT JUMPDEST POP POP PUSH1 0x0 MLOAD RETURNDATASIZE SWAP2 POP DUP2 ISZERO PUSH2 0x18D5 JUMPI DUP1 PUSH1 0x1 EQ ISZERO PUSH2 0x18E2 JUMP JUMPDEST PUSH1 0x1 PUSH1 0x1 PUSH1 0xA0 SHL SUB DUP5 AND EXTCODESIZE ISZERO JUMPDEST ISZERO PUSH2 0x17E2 JUMPI PUSH1 0x40 MLOAD PUSH4 0x5274AFE7 PUSH1 0xE0 SHL DUP2 MSTORE PUSH1 0x1 PUSH1 0x1 PUSH1 0xA0 SHL SUB DUP6 AND PUSH1 0x4 DUP3 ADD MSTORE PUSH1 0x24 ADD PUSH2 0x6C3 JUMP JUMPDEST PUSH1 0x0 PUSH1 0x20 DUP3 DUP5 SUB SLT ISZERO PUSH2 0x191D JUMPI PUSH1 0x0 DUP1 REVERT JUMPDEST POP CALLDATALOAD SWAP2 SWAP1 POP JUMP JUMPDEST DUP1 CALLDATALOAD PUSH1 0x1 PUSH1 0x1 PUSH1 0xA0 SHL SUB DUP2 AND DUP2 EQ PUSH2 0x193B JUMPI PUSH1 0x0 DUP1 REVERT JUMPDEST SWAP2 SWAP1 POP JUMP JUMPDEST PUSH1 0x0 PUSH1 0x20 DUP3 DUP5 SUB SLT ISZERO PUSH2 0x1952 JUMPI PUSH1 0x0 DUP1 REVERT JUMPDEST PUSH2 0x72D DUP3 PUSH2 0x1924 JUMP JUMPDEST PUSH1 0x20 DUP1 DUP3 MSTORE DUP3 MLOAD DUP3 DUP3 ADD DUP2 SWAP1 MSTORE PUSH1 0x0 SWAP2 DUP5 ADD SWAP1 PUSH1 0x40 DUP5 ADD SWAP1 DUP4 JUMPDEST DUP2 DUP2 LT ISZERO PUSH2 0x1A43 JUMPI DUP4 MLOAD DUP1 MLOAD DUP5 MSTORE PUSH1 0x20 DUP2 ADD MLOAD PUSH1 0x20 DUP6 ADD MSTORE PUSH1 0x40 DUP2 ADD MLOAD PUSH2 0x19A7 PUSH1 0x40 DUP7 ADD DUP3 PUSH1 0x1 PUSH1 0x1 PUSH1 0xA0 SHL SUB AND SWAP1 MSTORE JUMP JUMPDEST POP PUSH1 0x60 DUP2 ADD MLOAD PUSH2 0x19C2 PUSH1 0x60 DUP7 ADD DUP3 PUSH1 0x1 PUSH1 0x1 PUSH1 0xA0 SHL SUB AND SWAP1 MSTORE JUMP JUMPDEST POP PUSH1 0x80 DUP2 ADD MLOAD PUSH1 0x80 DUP6 ADD MSTORE PUSH1 0xA0 DUP2 ADD MLOAD PUSH1 0xA0 DUP6 ADD MSTORE PUSH1 0xC0 DUP2 ADD MLOAD PUSH1 0xC0 DUP6 ADD MSTORE PUSH1 0xE0 DUP2 ADD MLOAD PUSH1 0xE0 DUP6 ADD MSTORE PUSH2 0x100 DUP2 ADD MLOAD PUSH2 0x1A07 PUSH2 0x100 DUP7 ADD DUP3 PUSH1 0x1 PUSH1 0x1 PUSH1 0xA0 SHL SUB AND SWAP1 MSTORE JUMP JUMPDEST POP PUSH2 0x120 DUP2 ADD MLOAD PUSH2 0x120 DUP6 ADD MSTORE PUSH2 0x140 DUP2 ADD MLOAD SWAP1 POP PUSH2 0x1A2B PUSH2 0x140 DUP6 ADD DUP3 ISZERO ISZERO SWAP1 MSTORE JUMP JUMPDEST POP PUSH1 0x20 SWAP4 SWAP1 SWAP4 ADD SWAP3 PUSH2 0x160 SWAP3 SWAP1 SWAP3 ADD SWAP2 PUSH1 0x1 ADD PUSH2 0x1975 JUMP JUMPDEST POP SWAP1 SWAP6 SWAP5 POP POP POP POP POP JUMP JUMPDEST PUSH1 0x0 DUP1 PUSH1 0x40 DUP4 DUP6 SUB SLT ISZERO PUSH2 0x1A61 JUMPI PUSH1 0x0 DUP1 REVERT JUMPDEST PUSH2 0x1A6A DUP4 PUSH2 0x1924 JUMP JUMPDEST SWAP5 PUSH1 0x20 SWAP4 SWAP1 SWAP4 ADD CALLDATALOAD SWAP4 POP POP POP JUMP JUMPDEST PUSH1 0x0 DUP1 PUSH1 0x0 PUSH1 0x60 DUP5 DUP7 SUB SLT ISZERO PUSH2 0x1A8D JUMPI PUSH1 0x0 DUP1 REVERT JUMPDEST DUP4 CALLDATALOAD SWAP3 POP PUSH1 0x20 DUP5 ADD CALLDATALOAD SWAP2 POP PUSH2 0x1AA4 PUSH1 0x40 DUP6 ADD PUSH2 0x1924 JUMP JUMPDEST SWAP1 POP SWAP3 POP SWAP3 POP SWAP3 JUMP JUMPDEST PUSH1 0x0 DUP1 PUSH1 0x0 DUP1 PUSH1 0x0 DUP1 PUSH1 0xC0 DUP8 DUP10 SUB SLT ISZERO PUSH2 0x1AC6 JUMPI PUSH1 0x0 DUP1 REVERT JUMPDEST PUSH2 0x1ACF DUP8 PUSH2 0x1924 JUMP JUMPDEST SWAP6 POP PUSH1 0x20 DUP8 ADD CALLDATALOAD SWAP5 POP PUSH2 0x1AE4 PUSH1 0x40 DUP9 ADD PUSH2 0x1924 JUMP JUMPDEST SWAP6 SWAP9 SWAP5 SWAP8 POP SWAP5 SWAP6 PUSH1 0x60 DUP2 ADD CALLDATALOAD SWAP6 POP PUSH1 0x80 DUP2 ADD CALLDATALOAD SWAP5 PUSH1 0xA0 SWAP1 SWAP2 ADD CALLDATALOAD SWAP4 POP SWAP2 POP POP JUMP JUMPDEST PUSH4 0x4E487B71 PUSH1 0xE0 SHL PUSH1 0x0 MSTORE PUSH1 0x41 PUSH1 0x4 MSTORE PUSH1 0x24 PUSH1 0x0 REVERT JUMPDEST PUSH4 0x4E487B71 PUSH1 0xE0 SHL PUSH1 0x0 MSTORE PUSH1 0x32 PUSH1 0x4 MSTORE PUSH1 0x24 PUSH1 0x0 REVERT JUMPDEST PUSH4 0x4E487B71 PUSH1 0xE0 SHL PUSH1 0x0 MSTORE PUSH1 0x11 PUSH1 0x4 MSTORE PUSH1 0x24 PUSH1 0x0 REVERT JUMPDEST DUP1 DUP3 MUL DUP2 ISZERO DUP3 DUP3 DIV DUP5 EQ OR PUSH2 0x15FC JUMPI PUSH2 0x15FC PUSH2 0x1B31 JUMP JUMPDEST PUSH1 0x0 DUP3 PUSH2 0x1B7B JUMPI PUSH4 0x4E487B71 PUSH1 0xE0 SHL PUSH1 0x0 MSTORE PUSH1 0x12 PUSH1 0x4 MSTORE PUSH1 0x24 PUSH1 0x0 REVERT JUMPDEST POP DIV SWAP1 JUMP JUMPDEST PUSH1 0x0 PUSH1 0x20 DUP3 DUP5 SUB SLT ISZERO PUSH2 0x1B92 JUMPI PUSH1 0x0 DUP1 REVERT JUMPDEST DUP2 MLOAD DUP1 ISZERO ISZERO DUP2 EQ PUSH2 0x72D JUMPI PUSH1 0x0 DUP1 REVERT JUMPDEST PUSH1 0x0 PUSH1 0x20 DUP3 DUP5 SUB SLT ISZERO PUSH2 0x1BB4 JUMPI PUSH1 0x0 DUP1 REVERT JUMPDEST POP MLOAD SWAP2 SWAP1 POP JUMP JUMPDEST PUSH1 0x0 PUSH1 0x1 DUP3 ADD PUSH2 0x1BCD JUMPI PUSH2 0x1BCD PUSH2 0x1B31 JUMP JUMPDEST POP PUSH1 0x1 ADD SWAP1 JUMP JUMPDEST DUP1 DUP3 ADD DUP1 DUP3 GT ISZERO PUSH2 0x15FC JUMPI PUSH2 0x15FC PUSH2 0x1B31 JUMP INVALID LOG2 PUSH5 0x6970667358 0x22 SLT KECCAK256 0xD0 0x2C 0xBA 0xD8 0x2E SMOD 0xC SSTORE SGT 0x2D 0xCD ISZERO 0x27 0x29 EQ DUP16 0xB7 0x2A 0xA5 ISZERO DUP5 0xE3 COINBASE 0xE6 0xC3 MULMOD 0xF8 CREATE2 CODESIZE 0xD4 SWAP9 CALLCODE PUSH5 0x736F6C6343 STOP ADDMOD SHR STOP CALLER "},"methodIdentifiers":{"Borrow(address,uint256,address,uint256,uint256,uint256)":"4d5c11ee","allActiveLoans(uint256)":"0d406817","calculateHealthFactorSimulated(uint256,uint256,address)":"18fa17d4","calculateTotalDue(address,uint256)":"cd06b6e9","currentLoanId()":"87f7d5bd","fundPool(address,uint256)":"2bfd5146","getAllActiveLoans()":"da7a4576","getLiquidationThreshold(address)":"7b86e42c","getMinCollateralAmount(address)":"b3908782","getMinHealthFactor()":"8c1ae6c8","getMinimumDuration()":"de4e5ec8","getUserLoans(address)":"02bf321f","liquidate(address,uint256)":"bcbaf487","minHealthFactor()":"e1b4264c","minimumDuration()":"3e3ee5a2","owner()":"8da5cb5b","payLoan(uint256)":"a8d7b3ec","renounceOwnership()":"715018a6","setLiquidationThreshold(address,uint256)":"0e30428d","setMinCollateralAmount(address,uint256)":"e3496955","setMinHealthFactor(uint256)":"01b08d58","setMinimumDuration(uint256)":"ed5ec648","transferOwnership(address)":"f2fde38b","yieldPool()":"8f188dd4"}},"storageLayout":{"storage":[{"astId":820,"contract":"contracts/BorrowProtocol.sol:BorrowProtocol","label":"_status","offset":0,"slot":"0","type":"t_uint256"},{"astId":8,"contract":"contracts/BorrowProtocol.sol:BorrowProtocol","label":"_owner","offset":0,"slot":"1","type":"t_address"},{"astId":915,"contract":"contracts/BorrowProtocol.sol:BorrowProtocol","label":"yieldPool","offset":0,"slot":"2","type":"t_contract(IYieldPool)904"},{"astId":945,"contract":"contracts/BorrowProtocol.sol:BorrowProtocol","label":"userLoans","offset":0,"slot":"3","type":"t_mapping(t_address,t_mapping(t_uint256,t_struct(Loan)938_storage))"},{"astId":949,"contract":"contracts/BorrowProtocol.sol:BorrowProtocol","label":"liquidationThresholds","offset":0,"slot":"4","type":"t_mapping(t_address,t_uint256)"},{"astId":954,"contract":"contracts/BorrowProtocol.sol:BorrowProtocol","label":"userLoanIds","offset":0,"slot":"5","type":"t_mapping(t_address,t_array(t_uint256)dyn_storage)"},{"astId":958,"contract":"contracts/BorrowProtocol.sol:BorrowProtocol","label":"minimumCollateralAmount","offset":0,"slot":"6","type":"t_mapping(t_address,t_uint256)"},{"astId":961,"contract":"contracts/BorrowProtocol.sol:BorrowProtocol","label":"minHealthFactor","offset":0,"slot":"7","type":"t_uint256"},{"astId":964,"contract":"contracts/BorrowProtocol.sol:BorrowProtocol","label":"minimumDuration","offset":0,"slot":"8","type":"t_uint256"},{"astId":966,"contract":"contracts/BorrowProtocol.sol:BorrowProtocol","label":"currentLoanId","offset":0,"slot":"9","type":"t_uint256"},{"astId":970,"contract":"contracts/BorrowProtocol.sol:BorrowProtocol","label":"allActiveLoans","offset":0,"slot":"10","type":"t_array(t_struct(Loan)938_storage)dyn_storage"}],"types":{"t_address":{"encoding":"inplace","label":"address","numberOfBytes":"20"},"t_array(t_struct(Loan)938_storage)dyn_storage":{"base":"t_struct(Loan)938_storage","encoding":"dynamic_array","label":"struct BorrowProtocol.Loan[]","numberOfBytes":"32"},"t_array(t_uint256)dyn_storage":{"base":"t_uint256","encoding":"dynamic_array","label":"uint256[]","numberOfBytes":"32"},"t_bool":{"encoding":"inplace","label":"bool","numberOfBytes":"1"},"t_contract(IYieldPool)904":{"encoding":"inplace","label":"contract IYieldPool","numberOfBytes":"20"},"t_mapping(t_address,t_array(t_uint256)dyn_storage)":{"encoding":"mapping","key":"t_address","label":"mapping(address => uint256[])","numberOfBytes":"32","value":"t_array(t_uint256)dyn_storage"},"t_mapping(t_address,t_mapping(t_uint256,t_struct(Loan)938_storage))":{"encoding":"mapping","key":"t_address","label":"mapping(address => mapping(uint256 => struct BorrowProtocol.Loan))","numberOfBytes":"32","value":"t_mapping(t_uint256,t_struct(Loan)938_storage)"},"t_mapping(t_address,t_uint256)":{"encoding":"mapping","key":"t_address","label":"mapping(address => uint256)","numberOfBytes":"32","value":"t_uint256"},"t_mapping(t_uint256,t_struct(Loan)938_storage)":{"encoding":"mapping","key":"t_uint256","label":"mapping(uint256 => struct BorrowProtocol.Loan)","numberOfBytes":"32","value":"t_struct(Loan)938_storage"},"t_struct(Loan)938_storage":{"encoding":"inplace","label":"struct BorrowProtocol.Loan","members":[{"astId":917,"contract":"contracts/BorrowProtocol.sol:BorrowProtocol","label":"loanId","offset":0,"slot":"0","type":"t_uint256"},{"astId":919,"contract":"contracts/BorrowProtocol.sol:BorrowProtocol","label":"collateralAmount","offset":0,"slot":"1","type":"t_uint256"},{"astId":921,"contract":"contracts/BorrowProtocol.sol:BorrowProtocol","label":"collateralToken","offset":0,"slot":"2","type":"t_address"},{"astId":923,"contract":"contracts/BorrowProtocol.sol:BorrowProtocol","label":"borrowToken","offset":0,"slot":"3","type":"t_address"},{"astId":925,"contract":"contracts/BorrowProtocol.sol:BorrowProtocol","label":"borrowAmount","offset":0,"slot":"4","type":"t_uint256"},{"astId":927,"contract":"contracts/BorrowProtocol.sol:BorrowProtocol","label":"duration","offset":0,"slot":"5","type":"t_uint256"},{"astId":929,"contract":"contracts/BorrowProtocol.sol:BorrowProtocol","label":"startTime","offset":0,"slot":"6","type":"t_uint256"},{"astId":931,"contract":"contracts/BorrowProtocol.sol:BorrowProtocol","label":"interestRate","offset":0,"slot":"7","type":"t_uint256"},{"astId":933,"contract":"contracts/BorrowProtocol.sol:BorrowProtocol","label":"userAddress","offset":0,"slot":"8","type":"t_address"},{"astId":935,"contract":"contracts/BorrowProtocol.sol:BorrowProtocol","label":"amountPaid","offset":0,"slot":"9","type":"t_uint256"},{"astId":937,"contract":"contracts/BorrowProtocol.sol:BorrowProtocol","label":"active","offset":0,"slot":"10","type":"t_bool"}],"numberOfBytes":"352"},"t_uint256":{"encoding":"inplace","label":"uint256","numberOfBytes":"32"}}}}}}