{"contracts/YieldPool.sol":{"YieldPool":{"abi":[{"inputs":[{"internalType":"address","name":"_yieldTokenAddress","type":"address"},{"internalType":"uint256","name":"_yieldRate","type":"uint256"},{"internalType":"uint256","name":"_minDuration","type":"uint256"},{"internalType":"uint256","name":"_maxDuration","type":"uint256"}],"stateMutability":"nonpayable","type":"constructor"},{"inputs":[],"name":"ReentrancyGuardReentrantCall","type":"error"},{"inputs":[{"internalType":"address","name":"token","type":"address"}],"name":"SafeERC20FailedOperation","type":"error"},{"anonymous":false,"inputs":[{"indexed":true,"internalType":"address","name":"user","type":"address"},{"indexed":false,"internalType":"address","name":"token","type":"address"},{"indexed":false,"internalType":"uint256","name":"amount","type":"uint256"},{"indexed":false,"internalType":"uint256","name":"duration","type":"uint256"}],"name":"Deposited","type":"event"},{"anonymous":false,"inputs":[{"indexed":false,"internalType":"address","name":"token","type":"address"},{"indexed":false,"internalType":"bool","name":"allowed","type":"bool"}],"name":"TokenAllowedStatusChanged","type":"event"},{"anonymous":false,"inputs":[{"indexed":true,"internalType":"address","name":"user","type":"address"},{"indexed":false,"internalType":"address","name":"token","type":"address"},{"indexed":false,"internalType":"uint256","name":"amount","type":"uint256"},{"indexed":false,"internalType":"uint256","name":"yield","type":"uint256"}],"name":"Withdrawn","type":"event"},{"anonymous":false,"inputs":[{"indexed":false,"internalType":"uint256","name":"yieldRate","type":"uint256"},{"indexed":false,"internalType":"uint256","name":"minDuration","type":"uint256"},{"indexed":false,"internalType":"uint256","name":"maxDuration","type":"uint256"}],"name":"YieldParametersUpdated","type":"event"},{"inputs":[{"internalType":"address","name":"_tokenAddress","type":"address"}],"name":"addAllowedTokens","outputs":[],"stateMutability":"nonpayable","type":"function"},{"inputs":[{"internalType":"uint256","name":"_amount","type":"uint256"},{"internalType":"uint256","name":"_lockDuration","type":"uint256"}],"name":"calculateExpectedYield","outputs":[{"internalType":"uint256","name":"","type":"uint256"}],"stateMutability":"view","type":"function"},{"inputs":[{"internalType":"address","name":"_token","type":"address"},{"internalType":"uint256","name":"_amount","type":"uint256"},{"internalType":"uint256","name":"duration","type":"uint256"}],"name":"deposit","outputs":[],"stateMutability":"nonpayable","type":"function"},{"inputs":[],"name":"getActivePositions","outputs":[{"components":[{"internalType":"address","name":"positionAddress","type":"address"},{"internalType":"address","name":"token","type":"address"},{"internalType":"uint256","name":"id","type":"uint256"},{"internalType":"uint256","name":"amount","type":"uint256"},{"internalType":"uint256","name":"startTime","type":"uint256"},{"internalType":"uint256","name":"lockDuration","type":"uint256"},{"internalType":"bool","name":"withdrawn","type":"bool"}],"internalType":"struct YieldPool.Position[]","name":"activePositions","type":"tuple[]"}],"stateMutability":"view","type":"function"},{"inputs":[],"name":"getAllowedTokens","outputs":[{"internalType":"address[]","name":"","type":"address[]"}],"stateMutability":"view","type":"function"},{"inputs":[],"name":"getMaxStakeDuration","outputs":[{"internalType":"uint256","name":"","type":"uint256"}],"stateMutability":"view","type":"function"},{"inputs":[],"name":"getMinStakeDuration","outputs":[{"internalType":"uint256","name":"","type":"uint256"}],"stateMutability":"view","type":"function"},{"inputs":[{"internalType":"uint256","name":"positionId","type":"uint256"}],"name":"getPosition","outputs":[{"components":[{"internalType":"address","name":"positionAddress","type":"address"},{"internalType":"address","name":"token","type":"address"},{"internalType":"uint256","name":"id","type":"uint256"},{"internalType":"uint256","name":"amount","type":"uint256"},{"internalType":"uint256","name":"startTime","type":"uint256"},{"internalType":"uint256","name":"lockDuration","type":"uint256"},{"internalType":"bool","name":"withdrawn","type":"bool"}],"internalType":"struct YieldPool.Position","name":"","type":"tuple"}],"stateMutability":"view","type":"function"},{"inputs":[],"name":"getTotalStakers","outputs":[{"internalType":"uint256","name":"","type":"uint256"}],"stateMutability":"view","type":"function"},{"inputs":[],"name":"getTotalValueLocked","outputs":[{"internalType":"uint256","name":"","type":"uint256"}],"stateMutability":"view","type":"function"},{"inputs":[],"name":"getUserTokenBalances","outputs":[{"internalType":"address[]","name":"tokens","type":"address[]"},{"internalType":"uint256[]","name":"balances","type":"uint256[]"}],"stateMutability":"view","type":"function"},{"inputs":[],"name":"getYieldRate","outputs":[{"internalType":"uint256","name":"","type":"uint256"}],"stateMutability":"view","type":"function"},{"inputs":[],"name":"getYieldToken","outputs":[{"internalType":"contract YieldToken","name":"","type":"address"}],"stateMutability":"view","type":"function"},{"inputs":[{"internalType":"address","name":"_token","type":"address"}],"name":"isTokenAllowed","outputs":[{"internalType":"bool","name":"","type":"bool"}],"stateMutability":"view","type":"function"},{"inputs":[{"internalType":"address","name":"_newToken","type":"address"},{"internalType":"bool","name":"_allowed","type":"bool"}],"name":"modifyAllowedTokens","outputs":[],"stateMutability":"nonpayable","type":"function"},{"inputs":[{"internalType":"address","name":"_tokenAddress","type":"address"}],"name":"removeAllowedToken","outputs":[],"stateMutability":"nonpayable","type":"function"},{"inputs":[{"internalType":"uint256","name":"positionId","type":"uint256"}],"name":"unstake","outputs":[],"stateMutability":"nonpayable","type":"function"},{"inputs":[{"internalType":"uint256","name":"_yieldRate","type":"uint256"},{"internalType":"uint256","name":"_minDuration","type":"uint256"},{"internalType":"uint256","name":"_maxDuration","type":"uint256"}],"name":"updateYieldParameters","outputs":[],"stateMutability":"nonpayable","type":"function"},{"inputs":[{"internalType":"uint256","name":"positionId","type":"uint256"}],"name":"withdraw","outputs":[],"stateMutability":"nonpayable","type":"function"}],"evm":{"bytecode":{"linkReferences":{},"object":"6080604052601080546001600160a01b0319163317905534801561002257600080fd5b5060405161254838038061254883398101604081905261004191610111565b6001600081815584825560028490556003839055600480546001600160a01b0388166001600160a01b03199182168117909255600583905560068390556007849055600880548086019091557ff3f7a9fe364faab93b216da50a3214154f22a0a2b415b23a84c8169e8b636ee301805490911682179055808252600a6020908152604092839020805460ff19168517905582519182528101929092527f35ec8a295a68c142349d2e1ff041d419582a35f45de73279a3f0d331004c1e46910160405180910390a15050505061015c565b6000806000806080858703121561012757600080fd5b84516001600160a01b038116811461013e57600080fd5b60208601516040870151606090970151919890975090945092505050565b6123dd8061016b6000396000f3fe608060405234801561001057600080fd5b50600436106101215760003560e01c80635dd5999e116100ad578063b26025aa11610071578063b26025aa14610233578063b99732ee1461023b578063eb02c3011461024e578063f10098991461026e578063f9eaee0d1461027657600080fd5b80635dd5999e146101da5780635fc75ec2146101ed5780637697299914610202578063864a65e51461020a57806390469a9d1461022057600080fd5b80632e17de78116100f45780632e17de781461017e5780632e1a7d4d1461019157806331ed0db4146101a457806336c19428146101ac5780633b8dbc11146101bf57600080fd5b8063024ece89146101265780630c5d13a2146101445780630efe6a8b14610156578063171e44ea1461016b575b600080fd5b61012e6102b2565b60405161013b9190611ff2565b60405180910390f35b6002545b60405190815260200161013b565b610169610164366004612028565b610430565b005b61016961017936600461205b565b6108e3565b61016961018c366004612076565b610a63565b61016961019f366004612076565b610eb2565b600554610148565b6101696101ba36600461208f565b6113bc565b6004546040516001600160a01b03909116815260200161013b565b6101696101e83660046120bb565b61143b565b6101f56114c8565b60405161013b9190612148565b600354610148565b6102126117e0565b60405161013b929190612196565b61016961022e36600461205b565b6119bd565b600654610148565b6101486102493660046121f0565b611c70565b61026161025c366004612076565b611c86565b60405161013b9190612212565b600154610148565b6102a261028436600461205b565b6001600160a01b03166000908152600a602052604090205460ff1690565b604051901515815260200161013b565b60606000805b60085481101561031c57600a6000600883815481106102d9576102d9612220565b60009182526020808320909101546001600160a01b0316835282019290925260400190205460ff161561031457816103108161224c565b9250505b6001016102b8565b5060008167ffffffffffffffff81111561033857610338612265565b604051908082528060200260200182016040528015610361578160200160208202803683370190505b5090506000805b60085481101561042757600a60006008838154811061038957610389612220565b60009182526020808320909101546001600160a01b0316835282019290925260400190205460ff161561041f57600881815481106103c9576103c9612220565b9060005260206000200160009054906101000a90046001600160a01b03168383815181106103f9576103f9612220565b6001600160a01b03909216602092830291909101909101528161041b8161224c565b9250505b600101610368565b50909392505050565b610438611e23565b6000821161048d5760405162461bcd60e51b815260206004820152601d60248201527f416d6f756e74206d7573742062652067726561746572207468616e203000000060448201526064015b60405180910390fd5b60025481101580156104a157506003548111155b6104e05760405162461bcd60e51b815260206004820152601060248201526f24b73b30b634b210323ab930ba34b7b760811b6044820152606401610484565b6001600160a01b0383166000908152600a602052604090205460ff1661055c5760405162461bcd60e51b815260206004820152602b60248201527f576520646f206e6f7420737570706f72742074686520746f6b656e7320796f7560448201526a277265207374616b696e6760a81b6064820152608401610484565b6040516370a0823160e01b81523060048201526000906001600160a01b038516906370a0823190602401602060405180830381865afa1580156105a3573d6000803e3d6000fd5b505050506040513d601f19601f820116820180604052508101906105c7919061227b565b90506105de6001600160a01b038516333086611e4d565b6040516370a0823160e01b81523060048201526000906001600160a01b038616906370a0823190602401602060405180830381865afa158015610625573d6000803e3d6000fd5b505050506040513d601f19601f82011682018060405250810190610649919061227b565b905060006106578383612294565b9050600081116106a95760405162461bcd60e51b815260206004820152601a60248201527f4e6f20746f6b656e732077657265207472616e736665727265640000000000006044820152606401610484565b80600660008282546106bb91906122a7565b9091555050336000908152600d602090815260408083206001600160a01b038a168452909152812080548392906106f39084906122a7565b9091555050336000908152600e602052604081205490036107765760098054336000818152600c602052604081208390556001830184559283527f6e1540171b6c0c960b71a7020d9f60077f6af931a8bbf590da0223dacf75c7af90910180546001600160a01b031916909117905560058054916107708361224c565b91905055505b60078054600091826107878361224c565b909155506040805160e081018252338082526001600160a01b038b81166020808501918252848601878152606086018a8152426080880190815260a088018f8152600060c08a01818152898252600e87528b82208054600181810183559184528884208d516007909202018054918c166001600160a01b03199283161781559951918a01805492909b169181169190911790995594516002880155925160038701559051600486015551600585015590516006909301805493151560ff1990941693909317909255868252600f815285822080549093168417909255918252600b9052918220805493945090929161087e8361224c565b9091555050604080516001600160a01b038a1681526020810185905290810187905233907ff5681f9d0db1b911ac18ee83d515a1cf1051853a9eae418316a2fdf7dea427c59060600160405180910390a250505050506108de6001600055565b505050565b6010546001600160a01b0316331461090d5760405162461bcd60e51b8152600401610484906122ba565b6001600160a01b03811661095b5760405162461bcd60e51b8152602060048201526015602482015274496e76616c696420746f6b656e206164647265737360581b6044820152606401610484565b6001600160a01b0381166000908152600a602052604090205460ff16156109c45760405162461bcd60e51b815260206004820152601f60248201527f546f6b656e20616c726561647920616464656420616e6420616c6c6f776564006044820152606401610484565b6008805460018082019092557ff3f7a9fe364faab93b216da50a3214154f22a0a2b415b23a84c8169e8b636ee30180546001600160a01b0319166001600160a01b0384169081179091556000818152600a6020908152604091829020805460ff19168517905581519283528201929092527f35ec8a295a68c142349d2e1ff041d419582a35f45de73279a3f0d331004c1e46910160405180910390a150565b610a6b611e23565b6000818152600f60205260409020546001600160a01b03163314610ac65760405162461bcd60e51b81526020600482015260126024820152712737ba103837b9b4ba34b7b71037bbb732b960711b6044820152606401610484565b336000908152600e602052604081209080805b8354811015610b205784848281548110610af557610af5612220565b90600052602060002090600702016002015403610b185780925060019150610b20565b600101610ad9565b5080610b3e5760405162461bcd60e51b8152600401610484906122ea565b6000838381548110610b5257610b52612220565b60009182526020909120600790910201600681015490915060ff1615610bae5760405162461bcd60e51b815260206004820152601160248201527020b63932b0b23c903bb4ba34323930bbb760791b6044820152606401610484565b60018101546003820154600583015460048401546001600160a01b0390931692610bd891906122a7565b421015610c08576000600a8460030154610bf29190612316565b9050808460030154610c049190612294565b9150505b6040516370a0823160e01b81523060048201526000906001600160a01b038416906370a0823190602401602060405180830381865afa158015610c4f573d6000803e3d6000fd5b505050506040513d601f19601f82011682018060405250810190610c73919061227b565b905081811015610c955760405162461bcd60e51b815260040161048490612338565b836003015460066000828254610cab9190612294565b90915550506003840154336000908152600d602090815260408083206001600160a01b038816845290915281208054909190610ce8908490612294565b909155505060068401805460ff191660011790556000888152600f6020908152604080832080546001600160a01b0319169055338352600b9091528120805491610d318361237a565b9091555050336000908152600b60205260408120549003610e3e57600954600090610d5e90600190612294565b9050600060098281548110610d7557610d75612220565b6000918252602090912001546001600160a01b03169050338114610df257336000908152600c60205260409020546009805483919083908110610dba57610dba612220565b600091825260208083209190910180546001600160a01b0319166001600160a01b039485161790559184168152600c90915260409020555b6009805480610e0357610e03612391565b600082815260208120820160001990810180546001600160a01b03191690559091019091556005805491610e368361237a565b919050555050505b610e526001600160a01b0384163384611eba565b604080516001600160a01b038516815260208101849052600081830152905133917f91fb9d98b786c57d74c099ccd2beca1739e9f6a81fb49001ca465c4b7591bbe2919081900360600190a250505050505050610eaf6001600055565b50565b610eba611e23565b6000818152600f60205260409020546001600160a01b031680610f195760405162461bcd60e51b8152602060048201526017602482015276141bdcda5d1a5bdb88191bd95cc81b9bdd08195e1a5cdd604a1b6044820152606401610484565b6001600160a01b0381163314610f805760405162461bcd60e51b815260206004820152602660248201527f596f7520617265206e6f7420746865206f776e6572206f66207468697320706f60448201526539b4ba34b7b760d11b6064820152608401610484565b336000908152600e602052604081209080805b8354811015610fda5785848281548110610faf57610faf612220565b90600052602060002090600702016002015403610fd25780925060019150610fda565b600101610f93565b5080610ff85760405162461bcd60e51b8152600401610484906122ea565b600083838154811061100c5761100c612220565b60009182526020909120600790910201600681015490915060ff16156110685760405162461bcd60e51b815260206004820152601160248201527020b63932b0b23c903bb4ba34323930bbb760791b6044820152606401610484565b8060050154816004015461107c91906122a7565b4210156110ba5760405162461bcd60e51b815260206004820152600c60248201526b14dd1a5b1b081b1bd8dad95960a21b6044820152606401610484565b6001810154600382015460058301546001600160a01b03909216916000916110e191611c70565b6040516370a0823160e01b81523060048201529091506000906001600160a01b038416906370a0823190602401602060405180830381865afa15801561112b573d6000803e3d6000fd5b505050506040513d601f19601f8201168201806040525081019061114f919061227b565b905081846003015461116191906122a7565b8110156111805760405162461bcd60e51b815260040161048490612338565b8360030154600660008282546111969190612294565b90915550506003840154336000908152600d602090815260408083206001600160a01b0388168452909152812080549091906111d3908490612294565b909155505060068401805460ff191660011790556003840154611202906001600160a01b038516903390611eba565b6112166001600160a01b0384163384611eba565b336000908152600b602052604081208054916112318361237a565b9091555050336000908152600b6020526040812054900361133e5760095460009061125e90600190612294565b905060006009828154811061127557611275612220565b6000918252602090912001546001600160a01b031690503381146112f257336000908152600c602052604090205460098054839190839081106112ba576112ba612220565b600091825260208083209190910180546001600160a01b0319166001600160a01b039485161790559184168152600c90915260409020555b600980548061130357611303612391565b600082815260208120820160001990810180546001600160a01b031916905590910190915560058054916113368361237a565b919050555050505b6000898152600f602090815260409182902080546001600160a01b0319169055600386015482516001600160a01b03871681529182015290810183905233907f91fb9d98b786c57d74c099ccd2beca1739e9f6a81fb49001ca465c4b7591bbe29060600160405180910390a25050505050505050610eaf6001600055565b6010546001600160a01b031633146113e65760405162461bcd60e51b8152600401610484906122ba565b60018390556002829055600381905560408051848152602081018490529081018290527fefeeae12018cad4c8c8285ce10d106bd4084b37ddd067fb0b5ba5567d7f8d4eb9060600160405180910390a1505050565b6010546001600160a01b031633146114655760405162461bcd60e51b8152600401610484906122ba565b6001600160a01b0382166000818152600a6020908152604091829020805460ff19168515159081179091558251938452908301527f35ec8a295a68c142349d2e1ff041d419582a35f45de73279a3f0d331004c1e46910160405180910390a15050565b60606000805b60095481101561160b576000600e6000600984815481106114f1576114f1612220565b60009182526020808320909101546001600160a01b031683528281019390935260409182018120805483518186028101860190945280845292939092919084015b828210156115b75760008481526020908190206040805160e0810182526007860290920180546001600160a01b039081168452600180830154909116848601526002820154928401929092526003810154606084015260048101546080840152600581015460a08401526006015460ff16151560c08301529083529092019101611532565b50505050905060005b8151811015611601578181815181106115db576115db612220565b602002602001015160c001516115f957836115f58161224c565b9450505b6001016115c0565b50506001016114ce565b508067ffffffffffffffff81111561162557611625612265565b60405190808252806020026020018201604052801561165e57816020015b61164b611f5c565b8152602001906001900390816116435790505b5091506000805b6009548110156117da576000600e60006009848154811061168857611688612220565b60009182526020808320909101546001600160a01b031683528281019390935260409182018120805483518186028101860190945280845292939092919084015b8282101561174e5760008481526020908190206040805160e0810182526007860290920180546001600160a01b039081168452600180830154909116848601526002820154928401929092526003810154606084015260048101546080840152600581015460a08401526006015460ff16151560c083015290835290920191016116c9565b50505050905060005b81518110156117d05781818151811061177257611772612220565b602002602001015160c001516117c85781818151811061179457611794612220565b60200260200101518685815181106117ae576117ae612220565b602002602001018190525083806117c49061224c565b9450505b600101611757565b5050600101611665565b50505090565b6060806000805b6008548110156118545760006008828154811061180657611806612220565b6000918252602080832090910154338352600d825260408084206001600160a01b03909216808552919092529120549091501561184b57826118478161224c565b9350505b506001016117e7565b508067ffffffffffffffff81111561186e5761186e612265565b604051908082528060200260200182016040528015611897578160200160208202803683370190505b5092508067ffffffffffffffff8111156118b3576118b3612265565b6040519080825280602002602001820160405280156118dc578160200160208202803683370190505b5091506000805b6008548110156119b65760006008828154811061190257611902612220565b6000918252602080832090910154338352600d825260408084206001600160a01b0390921680855291909252912054909150156119ad578086848151811061194c5761194c612220565b6001600160a01b03928316602091820292909201810191909152336000908152600d825260408082209385168252929091522054855186908590811061199457611994612220565b6020908102919091010152826119a98161224c565b9350505b506001016118e3565b5050509091565b6010546001600160a01b031633146119e75760405162461bcd60e51b8152600401610484906122ba565b600080805b600854811015611a4157836001600160a01b031660088281548110611a1357611a13612220565b6000918252602090912001546001600160a01b031603611a395780925060019150611a41565b6001016119ec565b5080611a995760405162461bcd60e51b815260206004820152602160248201527f546f6b656e206e6f7420666f756e6420696e20616c6c6f77656420746f6b656e6044820152607360f81b6064820152608401610484565b6000611aa36114c8565b905060005b8151811015611b5357846001600160a01b0316828281518110611acd57611acd612220565b6020026020010151602001516001600160a01b031603611b4b5760405162461bcd60e51b815260206004820152603360248201527f546f6b656e2068617320616e2061637469766520706f736974696f6e2e2043616044820152726e6e6f742062652072656d6f766564206e6f7760681b6064820152608401610484565b600101611aa8565b50600854600090611b6690600190612294565b9050808414611bdd5760088181548110611b8257611b82612220565b600091825260209091200154600880546001600160a01b039092169186908110611bae57611bae612220565b9060005260206000200160006101000a8154816001600160a01b0302191690836001600160a01b031602179055505b6008805480611bee57611bee612391565b60008281526020808220600019908401810180546001600160a01b03191690559092019092556001600160a01b038716808352600a82526040808420805460ff191690558051918252918101929092527f35ec8a295a68c142349d2e1ff041d419582a35f45de73279a3f0d331004c1e46910160405180910390a15050505050565b60015463bbf81e00828402909102045b92915050565b611c8e611f5c565b6000828152600f60205260409020546001600160a01b031680611ced5760405162461bcd60e51b8152602060048201526017602482015276141bdcda5d1a5bdb88191bd95cc81b9bdd08195e1a5cdd604a1b6044820152606401610484565b6001600160a01b0381166000908152600e6020908152604080832080548251818502810185019093528083529192909190849084015b82821015611da85760008481526020908190206040805160e0810182526007860290920180546001600160a01b039081168452600180830154909116848601526002820154928401929092526003810154606084015260048101546080840152600581015460a08401526006015460ff16151560c08301529083529092019101611d23565b50505050905060005b8151811015611e0a5784828281518110611dcd57611dcd612220565b60200260200101516040015103611e0257818181518110611df057611df0612220565b60200260200101519350505050919050565b600101611db1565b5060405162461bcd60e51b8152600401610484906122ea565b600260005403611e4657604051633ee5aeb560e01b815260040160405180910390fd5b6002600055565b6040516001600160a01b038481166024830152838116604483015260648201839052611eb49186918216906323b872dd906084015b604051602081830303815290604052915060e01b6020820180516001600160e01b038381831617835250505050611eeb565b50505050565b6040516001600160a01b038381166024830152604482018390526108de91859182169063a9059cbb90606401611e82565b600080602060008451602086016000885af180611f0e576040513d6000823e3d81fd5b50506000513d91508115611f26578060011415611f33565b6001600160a01b0384163b155b15611eb457604051635274afe760e01b81526001600160a01b0385166004820152602401610484565b6040518060e0016040528060006001600160a01b0316815260200160006001600160a01b03168152602001600081526020016000815260200160008152602001600081526020016000151581525090565b600081518084526020840193506020830160005b82811015611fe85781516001600160a01b0316865260209586019590910190600101611fc1565b5093949350505050565b6020815260006120056020830184611fad565b9392505050565b80356001600160a01b038116811461202357600080fd5b919050565b60008060006060848603121561203d57600080fd5b6120468461200c565b95602085013595506040909401359392505050565b60006020828403121561206d57600080fd5b6120058261200c565b60006020828403121561208857600080fd5b5035919050565b6000806000606084860312156120a457600080fd5b505081359360208301359350604090920135919050565b600080604083850312156120ce57600080fd5b6120d78361200c565b9150602083013580151581146120ec57600080fd5b809150509250929050565b80516001600160a01b0390811683526020808301519091169083015260408082015190830152606080820151908301526080808201519083015260a0818101519083015260c0908101511515910152565b602080825282518282018190526000918401906040840190835b8181101561218b576121758385516120f7565b6020939093019260e09290920191600101612162565b509095945050505050565b6040815260006121a96040830185611fad565b828103602084015280845180835260208301915060208601925060005b818110156121e45783518352602093840193909201916001016121c6565b50909695505050505050565b6000806040838503121561220357600080fd5b50508035926020909101359150565b60e08101611c8082846120f7565b634e487b7160e01b600052603260045260246000fd5b634e487b7160e01b600052601160045260246000fd5b60006001820161225e5761225e612236565b5060010190565b634e487b7160e01b600052604160045260246000fd5b60006020828403121561228d57600080fd5b5051919050565b81810381811115611c8057611c80612236565b80820180821115611c8057611c80612236565b6020808252601690820152752737ba103a34329031b7b73a3930b1ba1037bbb732b960511b604082015260600190565b602080825260129082015271141bdcda5d1a5bdb881b9bdd08199bdd5b9960721b604082015260600190565b60008261233357634e487b7160e01b600052601260045260246000fd5b500490565b60208082526022908201527f496e73756666696369656e7420746f6b656e2062616c616e636520696e20706f6040820152611bdb60f21b606082015260800190565b60008161238957612389612236565b506000190190565b634e487b7160e01b600052603160045260246000fdfea264697066735822122012cc6f26c3ba50835d4b3331cb672b8aeb96b449aec12b904f832b3c301803e064736f6c634300081c0033","opcodes":"PUSH1 0x80 PUSH1 0x40 MSTORE PUSH1 0x10 DUP1 SLOAD PUSH1 0x1 PUSH1 0x1 PUSH1 0xA0 SHL SUB NOT AND CALLER OR SWAP1 SSTORE CALLVALUE DUP1 ISZERO PUSH2 0x22 JUMPI PUSH1 0x0 DUP1 REVERT JUMPDEST POP PUSH1 0x40 MLOAD PUSH2 0x2548 CODESIZE SUB DUP1 PUSH2 0x2548 DUP4 CODECOPY DUP2 ADD PUSH1 0x40 DUP2 SWAP1 MSTORE PUSH2 0x41 SWAP2 PUSH2 0x111 JUMP JUMPDEST PUSH1 0x1 PUSH1 0x0 DUP2 DUP2 SSTORE DUP5 DUP3 SSTORE PUSH1 0x2 DUP5 SWAP1 SSTORE PUSH1 0x3 DUP4 SWAP1 SSTORE PUSH1 0x4 DUP1 SLOAD PUSH1 0x1 PUSH1 0x1 PUSH1 0xA0 SHL SUB DUP9 AND PUSH1 0x1 PUSH1 0x1 PUSH1 0xA0 SHL SUB NOT SWAP2 DUP3 AND DUP2 OR SWAP1 SWAP3 SSTORE PUSH1 0x5 DUP4 SWAP1 SSTORE PUSH1 0x6 DUP4 SWAP1 SSTORE PUSH1 0x7 DUP5 SWAP1 SSTORE PUSH1 0x8 DUP1 SLOAD DUP1 DUP7 ADD SWAP1 SWAP2 SSTORE PUSH32 0xF3F7A9FE364FAAB93B216DA50A3214154F22A0A2B415B23A84C8169E8B636EE3 ADD DUP1 SLOAD SWAP1 SWAP2 AND DUP3 OR SWAP1 SSTORE DUP1 DUP3 MSTORE PUSH1 0xA PUSH1 0x20 SWAP1 DUP2 MSTORE PUSH1 0x40 SWAP3 DUP4 SWAP1 KECCAK256 DUP1 SLOAD PUSH1 0xFF NOT AND DUP6 OR SWAP1 SSTORE DUP3 MLOAD SWAP2 DUP3 MSTORE DUP2 ADD SWAP3 SWAP1 SWAP3 MSTORE PUSH32 0x35EC8A295A68C142349D2E1FF041D419582A35F45DE73279A3F0D331004C1E46 SWAP2 ADD PUSH1 0x40 MLOAD DUP1 SWAP2 SUB SWAP1 LOG1 POP POP POP POP PUSH2 0x15C JUMP JUMPDEST PUSH1 0x0 DUP1 PUSH1 0x0 DUP1 PUSH1 0x80 DUP6 DUP8 SUB SLT ISZERO PUSH2 0x127 JUMPI PUSH1 0x0 DUP1 REVERT JUMPDEST DUP5 MLOAD PUSH1 0x1 PUSH1 0x1 PUSH1 0xA0 SHL SUB DUP2 AND DUP2 EQ PUSH2 0x13E JUMPI PUSH1 0x0 DUP1 REVERT JUMPDEST PUSH1 0x20 DUP7 ADD MLOAD PUSH1 0x40 DUP8 ADD MLOAD PUSH1 0x60 SWAP1 SWAP8 ADD MLOAD SWAP2 SWAP9 SWAP1 SWAP8 POP SWAP1 SWAP5 POP SWAP3 POP POP POP JUMP JUMPDEST PUSH2 0x23DD DUP1 PUSH2 0x16B PUSH1 0x0 CODECOPY PUSH1 0x0 RETURN INVALID PUSH1 0x80 PUSH1 0x40 MSTORE CALLVALUE DUP1 ISZERO PUSH2 0x10 JUMPI PUSH1 0x0 DUP1 REVERT JUMPDEST POP PUSH1 0x4 CALLDATASIZE LT PUSH2 0x121 JUMPI PUSH1 0x0 CALLDATALOAD PUSH1 0xE0 SHR DUP1 PUSH4 0x5DD5999E GT PUSH2 0xAD JUMPI DUP1 PUSH4 0xB26025AA GT PUSH2 0x71 JUMPI DUP1 PUSH4 0xB26025AA EQ PUSH2 0x233 JUMPI DUP1 PUSH4 0xB99732EE EQ PUSH2 0x23B JUMPI DUP1 PUSH4 0xEB02C301 EQ PUSH2 0x24E JUMPI DUP1 PUSH4 0xF1009899 EQ PUSH2 0x26E JUMPI DUP1 PUSH4 0xF9EAEE0D EQ PUSH2 0x276 JUMPI PUSH1 0x0 DUP1 REVERT JUMPDEST DUP1 PUSH4 0x5DD5999E EQ PUSH2 0x1DA JUMPI DUP1 PUSH4 0x5FC75EC2 EQ PUSH2 0x1ED JUMPI DUP1 PUSH4 0x76972999 EQ PUSH2 0x202 JUMPI DUP1 PUSH4 0x864A65E5 EQ PUSH2 0x20A JUMPI DUP1 PUSH4 0x90469A9D EQ PUSH2 0x220 JUMPI PUSH1 0x0 DUP1 REVERT JUMPDEST DUP1 PUSH4 0x2E17DE78 GT PUSH2 0xF4 JUMPI DUP1 PUSH4 0x2E17DE78 EQ PUSH2 0x17E JUMPI DUP1 PUSH4 0x2E1A7D4D EQ PUSH2 0x191 JUMPI DUP1 PUSH4 0x31ED0DB4 EQ PUSH2 0x1A4 JUMPI DUP1 PUSH4 0x36C19428 EQ PUSH2 0x1AC JUMPI DUP1 PUSH4 0x3B8DBC11 EQ PUSH2 0x1BF JUMPI PUSH1 0x0 DUP1 REVERT JUMPDEST DUP1 PUSH4 0x24ECE89 EQ PUSH2 0x126 JUMPI DUP1 PUSH4 0xC5D13A2 EQ PUSH2 0x144 JUMPI DUP1 PUSH4 0xEFE6A8B EQ PUSH2 0x156 JUMPI DUP1 PUSH4 0x171E44EA EQ PUSH2 0x16B JUMPI JUMPDEST PUSH1 0x0 DUP1 REVERT JUMPDEST PUSH2 0x12E PUSH2 0x2B2 JUMP JUMPDEST PUSH1 0x40 MLOAD PUSH2 0x13B SWAP2 SWAP1 PUSH2 0x1FF2 JUMP JUMPDEST PUSH1 0x40 MLOAD DUP1 SWAP2 SUB SWAP1 RETURN JUMPDEST PUSH1 0x2 SLOAD JUMPDEST PUSH1 0x40 MLOAD SWAP1 DUP2 MSTORE PUSH1 0x20 ADD PUSH2 0x13B JUMP JUMPDEST PUSH2 0x169 PUSH2 0x164 CALLDATASIZE PUSH1 0x4 PUSH2 0x2028 JUMP JUMPDEST PUSH2 0x430 JUMP JUMPDEST STOP JUMPDEST PUSH2 0x169 PUSH2 0x179 CALLDATASIZE PUSH1 0x4 PUSH2 0x205B JUMP JUMPDEST PUSH2 0x8E3 JUMP JUMPDEST PUSH2 0x169 PUSH2 0x18C CALLDATASIZE PUSH1 0x4 PUSH2 0x2076 JUMP JUMPDEST PUSH2 0xA63 JUMP JUMPDEST PUSH2 0x169 PUSH2 0x19F CALLDATASIZE PUSH1 0x4 PUSH2 0x2076 JUMP JUMPDEST PUSH2 0xEB2 JUMP JUMPDEST PUSH1 0x5 SLOAD PUSH2 0x148 JUMP JUMPDEST PUSH2 0x169 PUSH2 0x1BA CALLDATASIZE PUSH1 0x4 PUSH2 0x208F JUMP JUMPDEST PUSH2 0x13BC JUMP JUMPDEST PUSH1 0x4 SLOAD PUSH1 0x40 MLOAD PUSH1 0x1 PUSH1 0x1 PUSH1 0xA0 SHL SUB SWAP1 SWAP2 AND DUP2 MSTORE PUSH1 0x20 ADD PUSH2 0x13B JUMP JUMPDEST PUSH2 0x169 PUSH2 0x1E8 CALLDATASIZE PUSH1 0x4 PUSH2 0x20BB JUMP JUMPDEST PUSH2 0x143B JUMP JUMPDEST PUSH2 0x1F5 PUSH2 0x14C8 JUMP JUMPDEST PUSH1 0x40 MLOAD PUSH2 0x13B SWAP2 SWAP1 PUSH2 0x2148 JUMP JUMPDEST PUSH1 0x3 SLOAD PUSH2 0x148 JUMP JUMPDEST PUSH2 0x212 PUSH2 0x17E0 JUMP JUMPDEST PUSH1 0x40 MLOAD PUSH2 0x13B SWAP3 SWAP2 SWAP1 PUSH2 0x2196 JUMP JUMPDEST PUSH2 0x169 PUSH2 0x22E CALLDATASIZE PUSH1 0x4 PUSH2 0x205B JUMP JUMPDEST PUSH2 0x19BD JUMP JUMPDEST PUSH1 0x6 SLOAD PUSH2 0x148 JUMP JUMPDEST PUSH2 0x148 PUSH2 0x249 CALLDATASIZE PUSH1 0x4 PUSH2 0x21F0 JUMP JUMPDEST PUSH2 0x1C70 JUMP JUMPDEST PUSH2 0x261 PUSH2 0x25C CALLDATASIZE PUSH1 0x4 PUSH2 0x2076 JUMP JUMPDEST PUSH2 0x1C86 JUMP JUMPDEST PUSH1 0x40 MLOAD PUSH2 0x13B SWAP2 SWAP1 PUSH2 0x2212 JUMP JUMPDEST PUSH1 0x1 SLOAD PUSH2 0x148 JUMP JUMPDEST PUSH2 0x2A2 PUSH2 0x284 CALLDATASIZE PUSH1 0x4 PUSH2 0x205B JUMP JUMPDEST PUSH1 0x1 PUSH1 0x1 PUSH1 0xA0 SHL SUB AND PUSH1 0x0 SWAP1 DUP2 MSTORE PUSH1 0xA PUSH1 0x20 MSTORE PUSH1 0x40 SWAP1 KECCAK256 SLOAD PUSH1 0xFF AND SWAP1 JUMP JUMPDEST PUSH1 0x40 MLOAD SWAP1 ISZERO ISZERO DUP2 MSTORE PUSH1 0x20 ADD PUSH2 0x13B JUMP JUMPDEST PUSH1 0x60 PUSH1 0x0 DUP1 JUMPDEST PUSH1 0x8 SLOAD DUP2 LT ISZERO PUSH2 0x31C JUMPI PUSH1 0xA PUSH1 0x0 PUSH1 0x8 DUP4 DUP2 SLOAD DUP2 LT PUSH2 0x2D9 JUMPI PUSH2 0x2D9 PUSH2 0x2220 JUMP JUMPDEST PUSH1 0x0 SWAP2 DUP3 MSTORE PUSH1 0x20 DUP1 DUP4 KECCAK256 SWAP1 SWAP2 ADD SLOAD PUSH1 0x1 PUSH1 0x1 PUSH1 0xA0 SHL SUB AND DUP4 MSTORE DUP3 ADD SWAP3 SWAP1 SWAP3 MSTORE PUSH1 0x40 ADD SWAP1 KECCAK256 SLOAD PUSH1 0xFF AND ISZERO PUSH2 0x314 JUMPI DUP2 PUSH2 0x310 DUP2 PUSH2 0x224C JUMP JUMPDEST SWAP3 POP POP JUMPDEST PUSH1 0x1 ADD PUSH2 0x2B8 JUMP JUMPDEST POP PUSH1 0x0 DUP2 PUSH8 0xFFFFFFFFFFFFFFFF DUP2 GT ISZERO PUSH2 0x338 JUMPI PUSH2 0x338 PUSH2 0x2265 JUMP JUMPDEST PUSH1 0x40 MLOAD SWAP1 DUP1 DUP3 MSTORE DUP1 PUSH1 0x20 MUL PUSH1 0x20 ADD DUP3 ADD PUSH1 0x40 MSTORE DUP1 ISZERO PUSH2 0x361 JUMPI DUP2 PUSH1 0x20 ADD PUSH1 0x20 DUP3 MUL DUP1 CALLDATASIZE DUP4 CALLDATACOPY ADD SWAP1 POP JUMPDEST POP SWAP1 POP PUSH1 0x0 DUP1 JUMPDEST PUSH1 0x8 SLOAD DUP2 LT ISZERO PUSH2 0x427 JUMPI PUSH1 0xA PUSH1 0x0 PUSH1 0x8 DUP4 DUP2 SLOAD DUP2 LT PUSH2 0x389 JUMPI PUSH2 0x389 PUSH2 0x2220 JUMP JUMPDEST PUSH1 0x0 SWAP2 DUP3 MSTORE PUSH1 0x20 DUP1 DUP4 KECCAK256 SWAP1 SWAP2 ADD SLOAD PUSH1 0x1 PUSH1 0x1 PUSH1 0xA0 SHL SUB AND DUP4 MSTORE DUP3 ADD SWAP3 SWAP1 SWAP3 MSTORE PUSH1 0x40 ADD SWAP1 KECCAK256 SLOAD PUSH1 0xFF AND ISZERO PUSH2 0x41F JUMPI PUSH1 0x8 DUP2 DUP2 SLOAD DUP2 LT PUSH2 0x3C9 JUMPI PUSH2 0x3C9 PUSH2 0x2220 JUMP JUMPDEST SWAP1 PUSH1 0x0 MSTORE PUSH1 0x20 PUSH1 0x0 KECCAK256 ADD PUSH1 0x0 SWAP1 SLOAD SWAP1 PUSH2 0x100 EXP SWAP1 DIV PUSH1 0x1 PUSH1 0x1 PUSH1 0xA0 SHL SUB AND DUP4 DUP4 DUP2 MLOAD DUP2 LT PUSH2 0x3F9 JUMPI PUSH2 0x3F9 PUSH2 0x2220 JUMP JUMPDEST PUSH1 0x1 PUSH1 0x1 PUSH1 0xA0 SHL SUB SWAP1 SWAP3 AND PUSH1 0x20 SWAP3 DUP4 MUL SWAP2 SWAP1 SWAP2 ADD SWAP1 SWAP2 ADD MSTORE DUP2 PUSH2 0x41B DUP2 PUSH2 0x224C JUMP JUMPDEST SWAP3 POP POP JUMPDEST PUSH1 0x1 ADD PUSH2 0x368 JUMP JUMPDEST POP SWAP1 SWAP4 SWAP3 POP POP POP JUMP JUMPDEST PUSH2 0x438 PUSH2 0x1E23 JUMP JUMPDEST PUSH1 0x0 DUP3 GT PUSH2 0x48D JUMPI PUSH1 0x40 MLOAD PUSH3 0x461BCD PUSH1 0xE5 SHL DUP2 MSTORE PUSH1 0x20 PUSH1 0x4 DUP3 ADD MSTORE PUSH1 0x1D PUSH1 0x24 DUP3 ADD MSTORE PUSH32 0x416D6F756E74206D7573742062652067726561746572207468616E2030000000 PUSH1 0x44 DUP3 ADD MSTORE PUSH1 0x64 ADD JUMPDEST PUSH1 0x40 MLOAD DUP1 SWAP2 SUB SWAP1 REVERT JUMPDEST PUSH1 0x2 SLOAD DUP2 LT ISZERO DUP1 ISZERO PUSH2 0x4A1 JUMPI POP PUSH1 0x3 SLOAD DUP2 GT ISZERO JUMPDEST PUSH2 0x4E0 JUMPI PUSH1 0x40 MLOAD PUSH3 0x461BCD PUSH1 0xE5 SHL DUP2 MSTORE PUSH1 0x20 PUSH1 0x4 DUP3 ADD MSTORE PUSH1 0x10 PUSH1 0x24 DUP3 ADD MSTORE PUSH16 0x24B73B30B634B210323AB930BA34B7B7 PUSH1 0x81 SHL PUSH1 0x44 DUP3 ADD MSTORE PUSH1 0x64 ADD PUSH2 0x484 JUMP JUMPDEST PUSH1 0x1 PUSH1 0x1 PUSH1 0xA0 SHL SUB DUP4 AND PUSH1 0x0 SWAP1 DUP2 MSTORE PUSH1 0xA PUSH1 0x20 MSTORE PUSH1 0x40 SWAP1 KECCAK256 SLOAD PUSH1 0xFF AND PUSH2 0x55C JUMPI PUSH1 0x40 MLOAD PUSH3 0x461BCD PUSH1 0xE5 SHL DUP2 MSTORE PUSH1 0x20 PUSH1 0x4 DUP3 ADD MSTORE PUSH1 0x2B PUSH1 0x24 DUP3 ADD MSTORE PUSH32 0x576520646F206E6F7420737570706F72742074686520746F6B656E7320796F75 PUSH1 0x44 DUP3 ADD MSTORE PUSH11 0x277265207374616B696E67 PUSH1 0xA8 SHL PUSH1 0x64 DUP3 ADD MSTORE PUSH1 0x84 ADD PUSH2 0x484 JUMP JUMPDEST PUSH1 0x40 MLOAD PUSH4 0x70A08231 PUSH1 0xE0 SHL DUP2 MSTORE ADDRESS PUSH1 0x4 DUP3 ADD MSTORE PUSH1 0x0 SWAP1 PUSH1 0x1 PUSH1 0x1 PUSH1 0xA0 SHL SUB DUP6 AND SWAP1 PUSH4 0x70A08231 SWAP1 PUSH1 0x24 ADD PUSH1 0x20 PUSH1 0x40 MLOAD DUP1 DUP4 SUB DUP2 DUP7 GAS STATICCALL ISZERO DUP1 ISZERO PUSH2 0x5A3 JUMPI RETURNDATASIZE PUSH1 0x0 DUP1 RETURNDATACOPY RETURNDATASIZE PUSH1 0x0 REVERT JUMPDEST POP POP POP POP PUSH1 0x40 MLOAD RETURNDATASIZE PUSH1 0x1F NOT PUSH1 0x1F DUP3 ADD AND DUP3 ADD DUP1 PUSH1 0x40 MSTORE POP DUP2 ADD SWAP1 PUSH2 0x5C7 SWAP2 SWAP1 PUSH2 0x227B JUMP JUMPDEST SWAP1 POP PUSH2 0x5DE PUSH1 0x1 PUSH1 0x1 PUSH1 0xA0 SHL SUB DUP6 AND CALLER ADDRESS DUP7 PUSH2 0x1E4D JUMP JUMPDEST PUSH1 0x40 MLOAD PUSH4 0x70A08231 PUSH1 0xE0 SHL DUP2 MSTORE ADDRESS PUSH1 0x4 DUP3 ADD MSTORE PUSH1 0x0 SWAP1 PUSH1 0x1 PUSH1 0x1 PUSH1 0xA0 SHL SUB DUP7 AND SWAP1 PUSH4 0x70A08231 SWAP1 PUSH1 0x24 ADD PUSH1 0x20 PUSH1 0x40 MLOAD DUP1 DUP4 SUB DUP2 DUP7 GAS STATICCALL ISZERO DUP1 ISZERO PUSH2 0x625 JUMPI RETURNDATASIZE PUSH1 0x0 DUP1 RETURNDATACOPY RETURNDATASIZE PUSH1 0x0 REVERT JUMPDEST POP POP POP POP PUSH1 0x40 MLOAD RETURNDATASIZE PUSH1 0x1F NOT PUSH1 0x1F DUP3 ADD AND DUP3 ADD DUP1 PUSH1 0x40 MSTORE POP DUP2 ADD SWAP1 PUSH2 0x649 SWAP2 SWAP1 PUSH2 0x227B JUMP JUMPDEST SWAP1 POP PUSH1 0x0 PUSH2 0x657 DUP4 DUP4 PUSH2 0x2294 JUMP JUMPDEST SWAP1 POP PUSH1 0x0 DUP2 GT PUSH2 0x6A9 JUMPI PUSH1 0x40 MLOAD PUSH3 0x461BCD PUSH1 0xE5 SHL DUP2 MSTORE PUSH1 0x20 PUSH1 0x4 DUP3 ADD MSTORE PUSH1 0x1A PUSH1 0x24 DUP3 ADD MSTORE PUSH32 0x4E6F20746F6B656E732077657265207472616E73666572726564000000000000 PUSH1 0x44 DUP3 ADD MSTORE PUSH1 0x64 ADD PUSH2 0x484 JUMP JUMPDEST DUP1 PUSH1 0x6 PUSH1 0x0 DUP3 DUP3 SLOAD PUSH2 0x6BB SWAP2 SWAP1 PUSH2 0x22A7 JUMP JUMPDEST SWAP1 SWAP2 SSTORE POP POP CALLER PUSH1 0x0 SWAP1 DUP2 MSTORE PUSH1 0xD PUSH1 0x20 SWAP1 DUP2 MSTORE PUSH1 0x40 DUP1 DUP4 KECCAK256 PUSH1 0x1 PUSH1 0x1 PUSH1 0xA0 SHL SUB DUP11 AND DUP5 MSTORE SWAP1 SWAP2 MSTORE DUP2 KECCAK256 DUP1 SLOAD DUP4 SWAP3 SWAP1 PUSH2 0x6F3 SWAP1 DUP5 SWAP1 PUSH2 0x22A7 JUMP JUMPDEST SWAP1 SWAP2 SSTORE POP POP CALLER PUSH1 0x0 SWAP1 DUP2 MSTORE PUSH1 0xE PUSH1 0x20 MSTORE PUSH1 0x40 DUP2 KECCAK256 SLOAD SWAP1 SUB PUSH2 0x776 JUMPI PUSH1 0x9 DUP1 SLOAD CALLER PUSH1 0x0 DUP2 DUP2 MSTORE PUSH1 0xC PUSH1 0x20 MSTORE PUSH1 0x40 DUP2 KECCAK256 DUP4 SWAP1 SSTORE PUSH1 0x1 DUP4 ADD DUP5 SSTORE SWAP3 DUP4 MSTORE PUSH32 0x6E1540171B6C0C960B71A7020D9F60077F6AF931A8BBF590DA0223DACF75C7AF SWAP1 SWAP2 ADD DUP1 SLOAD PUSH1 0x1 PUSH1 0x1 PUSH1 0xA0 SHL SUB NOT AND SWAP1 SWAP2 OR SWAP1 SSTORE PUSH1 0x5 DUP1 SLOAD SWAP2 PUSH2 0x770 DUP4 PUSH2 0x224C JUMP JUMPDEST SWAP2 SWAP1 POP SSTORE POP JUMPDEST PUSH1 0x7 DUP1 SLOAD PUSH1 0x0 SWAP2 DUP3 PUSH2 0x787 DUP4 PUSH2 0x224C JUMP JUMPDEST SWAP1 SWAP2 SSTORE POP PUSH1 0x40 DUP1 MLOAD PUSH1 0xE0 DUP2 ADD DUP3 MSTORE CALLER DUP1 DUP3 MSTORE PUSH1 0x1 PUSH1 0x1 PUSH1 0xA0 SHL SUB DUP12 DUP2 AND PUSH1 0x20 DUP1 DUP6 ADD SWAP2 DUP3 MSTORE DUP5 DUP7 ADD DUP8 DUP2 MSTORE PUSH1 0x60 DUP7 ADD DUP11 DUP2 MSTORE TIMESTAMP PUSH1 0x80 DUP9 ADD SWAP1 DUP2 MSTORE PUSH1 0xA0 DUP9 ADD DUP16 DUP2 MSTORE PUSH1 0x0 PUSH1 0xC0 DUP11 ADD DUP2 DUP2 MSTORE DUP10 DUP3 MSTORE PUSH1 0xE DUP8 MSTORE DUP12 DUP3 KECCAK256 DUP1 SLOAD PUSH1 0x1 DUP2 DUP2 ADD DUP4 SSTORE SWAP2 DUP5 MSTORE DUP9 DUP5 KECCAK256 DUP14 MLOAD PUSH1 0x7 SWAP1 SWAP3 MUL ADD DUP1 SLOAD SWAP2 DUP13 AND PUSH1 0x1 PUSH1 0x1 PUSH1 0xA0 SHL SUB NOT SWAP3 DUP4 AND OR DUP2 SSTORE SWAP10 MLOAD SWAP2 DUP11 ADD DUP1 SLOAD SWAP3 SWAP1 SWAP12 AND SWAP2 DUP2 AND SWAP2 SWAP1 SWAP2 OR SWAP1 SWAP10 SSTORE SWAP5 MLOAD PUSH1 0x2 DUP9 ADD SSTORE SWAP3 MLOAD PUSH1 0x3 DUP8 ADD SSTORE SWAP1 MLOAD PUSH1 0x4 DUP7 ADD SSTORE MLOAD PUSH1 0x5 DUP6 ADD SSTORE SWAP1 MLOAD PUSH1 0x6 SWAP1 SWAP4 ADD DUP1 SLOAD SWAP4 ISZERO ISZERO PUSH1 0xFF NOT SWAP1 SWAP5 AND SWAP4 SWAP1 SWAP4 OR SWAP1 SWAP3 SSTORE DUP7 DUP3 MSTORE PUSH1 0xF DUP2 MSTORE DUP6 DUP3 KECCAK256 DUP1 SLOAD SWAP1 SWAP4 AND DUP5 OR SWAP1 SWAP3 SSTORE SWAP2 DUP3 MSTORE PUSH1 0xB SWAP1 MSTORE SWAP2 DUP3 KECCAK256 DUP1 SLOAD SWAP4 SWAP5 POP SWAP1 SWAP3 SWAP2 PUSH2 0x87E DUP4 PUSH2 0x224C JUMP JUMPDEST SWAP1 SWAP2 SSTORE POP POP PUSH1 0x40 DUP1 MLOAD PUSH1 0x1 PUSH1 0x1 PUSH1 0xA0 SHL SUB DUP11 AND DUP2 MSTORE PUSH1 0x20 DUP2 ADD DUP6 SWAP1 MSTORE SWAP1 DUP2 ADD DUP8 SWAP1 MSTORE CALLER SWAP1 PUSH32 0xF5681F9D0DB1B911AC18EE83D515A1CF1051853A9EAE418316A2FDF7DEA427C5 SWAP1 PUSH1 0x60 ADD PUSH1 0x40 MLOAD DUP1 SWAP2 SUB SWAP1 LOG2 POP POP POP POP POP PUSH2 0x8DE PUSH1 0x1 PUSH1 0x0 SSTORE JUMP JUMPDEST POP POP POP JUMP JUMPDEST PUSH1 0x10 SLOAD PUSH1 0x1 PUSH1 0x1 PUSH1 0xA0 SHL SUB AND CALLER EQ PUSH2 0x90D JUMPI PUSH1 0x40 MLOAD PUSH3 0x461BCD PUSH1 0xE5 SHL DUP2 MSTORE PUSH1 0x4 ADD PUSH2 0x484 SWAP1 PUSH2 0x22BA JUMP JUMPDEST PUSH1 0x1 PUSH1 0x1 PUSH1 0xA0 SHL SUB DUP2 AND PUSH2 0x95B JUMPI PUSH1 0x40 MLOAD PUSH3 0x461BCD PUSH1 0xE5 SHL DUP2 MSTORE PUSH1 0x20 PUSH1 0x4 DUP3 ADD MSTORE PUSH1 0x15 PUSH1 0x24 DUP3 ADD MSTORE PUSH21 0x496E76616C696420746F6B656E2061646472657373 PUSH1 0x58 SHL PUSH1 0x44 DUP3 ADD MSTORE PUSH1 0x64 ADD PUSH2 0x484 JUMP JUMPDEST PUSH1 0x1 PUSH1 0x1 PUSH1 0xA0 SHL SUB DUP2 AND PUSH1 0x0 SWAP1 DUP2 MSTORE PUSH1 0xA PUSH1 0x20 MSTORE PUSH1 0x40 SWAP1 KECCAK256 SLOAD PUSH1 0xFF AND ISZERO PUSH2 0x9C4 JUMPI PUSH1 0x40 MLOAD PUSH3 0x461BCD PUSH1 0xE5 SHL DUP2 MSTORE PUSH1 0x20 PUSH1 0x4 DUP3 ADD MSTORE PUSH1 0x1F PUSH1 0x24 DUP3 ADD MSTORE PUSH32 0x546F6B656E20616C726561647920616464656420616E6420616C6C6F77656400 PUSH1 0x44 DUP3 ADD MSTORE PUSH1 0x64 ADD PUSH2 0x484 JUMP JUMPDEST PUSH1 0x8 DUP1 SLOAD PUSH1 0x1 DUP1 DUP3 ADD SWAP1 SWAP3 SSTORE PUSH32 0xF3F7A9FE364FAAB93B216DA50A3214154F22A0A2B415B23A84C8169E8B636EE3 ADD DUP1 SLOAD PUSH1 0x1 PUSH1 0x1 PUSH1 0xA0 SHL SUB NOT AND PUSH1 0x1 PUSH1 0x1 PUSH1 0xA0 SHL SUB DUP5 AND SWAP1 DUP2 OR SWAP1 SWAP2 SSTORE PUSH1 0x0 DUP2 DUP2 MSTORE PUSH1 0xA PUSH1 0x20 SWAP1 DUP2 MSTORE PUSH1 0x40 SWAP2 DUP3 SWAP1 KECCAK256 DUP1 SLOAD PUSH1 0xFF NOT AND DUP6 OR SWAP1 SSTORE DUP2 MLOAD SWAP3 DUP4 MSTORE DUP3 ADD SWAP3 SWAP1 SWAP3 MSTORE PUSH32 0x35EC8A295A68C142349D2E1FF041D419582A35F45DE73279A3F0D331004C1E46 SWAP2 ADD PUSH1 0x40 MLOAD DUP1 SWAP2 SUB SWAP1 LOG1 POP JUMP JUMPDEST PUSH2 0xA6B PUSH2 0x1E23 JUMP JUMPDEST PUSH1 0x0 DUP2 DUP2 MSTORE PUSH1 0xF PUSH1 0x20 MSTORE PUSH1 0x40 SWAP1 KECCAK256 SLOAD PUSH1 0x1 PUSH1 0x1 PUSH1 0xA0 SHL SUB AND CALLER EQ PUSH2 0xAC6 JUMPI PUSH1 0x40 MLOAD PUSH3 0x461BCD PUSH1 0xE5 SHL DUP2 MSTORE PUSH1 0x20 PUSH1 0x4 DUP3 ADD MSTORE PUSH1 0x12 PUSH1 0x24 DUP3 ADD MSTORE PUSH18 0x2737BA103837B9B4BA34B7B71037BBB732B9 PUSH1 0x71 SHL PUSH1 0x44 DUP3 ADD MSTORE PUSH1 0x64 ADD PUSH2 0x484 JUMP JUMPDEST CALLER PUSH1 0x0 SWAP1 DUP2 MSTORE PUSH1 0xE PUSH1 0x20 MSTORE PUSH1 0x40 DUP2 KECCAK256 SWAP1 DUP1 DUP1 JUMPDEST DUP4 SLOAD DUP2 LT ISZERO PUSH2 0xB20 JUMPI DUP5 DUP5 DUP3 DUP2 SLOAD DUP2 LT PUSH2 0xAF5 JUMPI PUSH2 0xAF5 PUSH2 0x2220 JUMP JUMPDEST SWAP1 PUSH1 0x0 MSTORE PUSH1 0x20 PUSH1 0x0 KECCAK256 SWAP1 PUSH1 0x7 MUL ADD PUSH1 0x2 ADD SLOAD SUB PUSH2 0xB18 JUMPI DUP1 SWAP3 POP PUSH1 0x1 SWAP2 POP PUSH2 0xB20 JUMP JUMPDEST PUSH1 0x1 ADD PUSH2 0xAD9 JUMP JUMPDEST POP DUP1 PUSH2 0xB3E JUMPI PUSH1 0x40 MLOAD PUSH3 0x461BCD PUSH1 0xE5 SHL DUP2 MSTORE PUSH1 0x4 ADD PUSH2 0x484 SWAP1 PUSH2 0x22EA JUMP JUMPDEST PUSH1 0x0 DUP4 DUP4 DUP2 SLOAD DUP2 LT PUSH2 0xB52 JUMPI PUSH2 0xB52 PUSH2 0x2220 JUMP JUMPDEST PUSH1 0x0 SWAP2 DUP3 MSTORE PUSH1 0x20 SWAP1 SWAP2 KECCAK256 PUSH1 0x7 SWAP1 SWAP2 MUL ADD PUSH1 0x6 DUP2 ADD SLOAD SWAP1 SWAP2 POP PUSH1 0xFF AND ISZERO PUSH2 0xBAE JUMPI PUSH1 0x40 MLOAD PUSH3 0x461BCD PUSH1 0xE5 SHL DUP2 MSTORE PUSH1 0x20 PUSH1 0x4 DUP3 ADD MSTORE PUSH1 0x11 PUSH1 0x24 DUP3 ADD MSTORE PUSH17 0x20B63932B0B23C903BB4BA34323930BBB7 PUSH1 0x79 SHL PUSH1 0x44 DUP3 ADD MSTORE PUSH1 0x64 ADD PUSH2 0x484 JUMP JUMPDEST PUSH1 0x1 DUP2 ADD SLOAD PUSH1 0x3 DUP3 ADD SLOAD PUSH1 0x5 DUP4 ADD SLOAD PUSH1 0x4 DUP5 ADD SLOAD PUSH1 0x1 PUSH1 0x1 PUSH1 0xA0 SHL SUB SWAP1 SWAP4 AND SWAP3 PUSH2 0xBD8 SWAP2 SWAP1 PUSH2 0x22A7 JUMP JUMPDEST TIMESTAMP LT ISZERO PUSH2 0xC08 JUMPI PUSH1 0x0 PUSH1 0xA DUP5 PUSH1 0x3 ADD SLOAD PUSH2 0xBF2 SWAP2 SWAP1 PUSH2 0x2316 JUMP JUMPDEST SWAP1 POP DUP1 DUP5 PUSH1 0x3 ADD SLOAD PUSH2 0xC04 SWAP2 SWAP1 PUSH2 0x2294 JUMP JUMPDEST SWAP2 POP POP JUMPDEST PUSH1 0x40 MLOAD PUSH4 0x70A08231 PUSH1 0xE0 SHL DUP2 MSTORE ADDRESS PUSH1 0x4 DUP3 ADD MSTORE PUSH1 0x0 SWAP1 PUSH1 0x1 PUSH1 0x1 PUSH1 0xA0 SHL SUB DUP5 AND SWAP1 PUSH4 0x70A08231 SWAP1 PUSH1 0x24 ADD PUSH1 0x20 PUSH1 0x40 MLOAD DUP1 DUP4 SUB DUP2 DUP7 GAS STATICCALL ISZERO DUP1 ISZERO PUSH2 0xC4F JUMPI RETURNDATASIZE PUSH1 0x0 DUP1 RETURNDATACOPY RETURNDATASIZE PUSH1 0x0 REVERT JUMPDEST POP POP POP POP PUSH1 0x40 MLOAD RETURNDATASIZE PUSH1 0x1F NOT PUSH1 0x1F DUP3 ADD AND DUP3 ADD DUP1 PUSH1 0x40 MSTORE POP DUP2 ADD SWAP1 PUSH2 0xC73 SWAP2 SWAP1 PUSH2 0x227B JUMP JUMPDEST SWAP1 POP DUP2 DUP2 LT ISZERO PUSH2 0xC95 JUMPI PUSH1 0x40 MLOAD PUSH3 0x461BCD PUSH1 0xE5 SHL DUP2 MSTORE PUSH1 0x4 ADD PUSH2 0x484 SWAP1 PUSH2 0x2338 JUMP JUMPDEST DUP4 PUSH1 0x3 ADD SLOAD PUSH1 0x6 PUSH1 0x0 DUP3 DUP3 SLOAD PUSH2 0xCAB SWAP2 SWAP1 PUSH2 0x2294 JUMP JUMPDEST SWAP1 SWAP2 SSTORE POP POP PUSH1 0x3 DUP5 ADD SLOAD CALLER PUSH1 0x0 SWAP1 DUP2 MSTORE PUSH1 0xD PUSH1 0x20 SWAP1 DUP2 MSTORE PUSH1 0x40 DUP1 DUP4 KECCAK256 PUSH1 0x1 PUSH1 0x1 PUSH1 0xA0 SHL SUB DUP9 AND DUP5 MSTORE SWAP1 SWAP2 MSTORE DUP2 KECCAK256 DUP1 SLOAD SWAP1 SWAP2 SWAP1 PUSH2 0xCE8 SWAP1 DUP5 SWAP1 PUSH2 0x2294 JUMP JUMPDEST SWAP1 SWAP2 SSTORE POP POP PUSH1 0x6 DUP5 ADD DUP1 SLOAD PUSH1 0xFF NOT AND PUSH1 0x1 OR SWAP1 SSTORE PUSH1 0x0 DUP9 DUP2 MSTORE PUSH1 0xF PUSH1 0x20 SWAP1 DUP2 MSTORE PUSH1 0x40 DUP1 DUP4 KECCAK256 DUP1 SLOAD PUSH1 0x1 PUSH1 0x1 PUSH1 0xA0 SHL SUB NOT AND SWAP1 SSTORE CALLER DUP4 MSTORE PUSH1 0xB SWAP1 SWAP2 MSTORE DUP2 KECCAK256 DUP1 SLOAD SWAP2 PUSH2 0xD31 DUP4 PUSH2 0x237A JUMP JUMPDEST SWAP1 SWAP2 SSTORE POP POP CALLER PUSH1 0x0 SWAP1 DUP2 MSTORE PUSH1 0xB PUSH1 0x20 MSTORE PUSH1 0x40 DUP2 KECCAK256 SLOAD SWAP1 SUB PUSH2 0xE3E JUMPI PUSH1 0x9 SLOAD PUSH1 0x0 SWAP1 PUSH2 0xD5E SWAP1 PUSH1 0x1 SWAP1 PUSH2 0x2294 JUMP JUMPDEST SWAP1 POP PUSH1 0x0 PUSH1 0x9 DUP3 DUP2 SLOAD DUP2 LT PUSH2 0xD75 JUMPI PUSH2 0xD75 PUSH2 0x2220 JUMP JUMPDEST PUSH1 0x0 SWAP2 DUP3 MSTORE PUSH1 0x20 SWAP1 SWAP2 KECCAK256 ADD SLOAD PUSH1 0x1 PUSH1 0x1 PUSH1 0xA0 SHL SUB AND SWAP1 POP CALLER DUP2 EQ PUSH2 0xDF2 JUMPI CALLER PUSH1 0x0 SWAP1 DUP2 MSTORE PUSH1 0xC PUSH1 0x20 MSTORE PUSH1 0x40 SWAP1 KECCAK256 SLOAD PUSH1 0x9 DUP1 SLOAD DUP4 SWAP2 SWAP1 DUP4 SWAP1 DUP2 LT PUSH2 0xDBA JUMPI PUSH2 0xDBA PUSH2 0x2220 JUMP JUMPDEST PUSH1 0x0 SWAP2 DUP3 MSTORE PUSH1 0x20 DUP1 DUP4 KECCAK256 SWAP2 SWAP1 SWAP2 ADD DUP1 SLOAD PUSH1 0x1 PUSH1 0x1 PUSH1 0xA0 SHL SUB NOT AND PUSH1 0x1 PUSH1 0x1 PUSH1 0xA0 SHL SUB SWAP5 DUP6 AND OR SWAP1 SSTORE SWAP2 DUP5 AND DUP2 MSTORE PUSH1 0xC SWAP1 SWAP2 MSTORE PUSH1 0x40 SWAP1 KECCAK256 SSTORE JUMPDEST PUSH1 0x9 DUP1 SLOAD DUP1 PUSH2 0xE03 JUMPI PUSH2 0xE03 PUSH2 0x2391 JUMP JUMPDEST PUSH1 0x0 DUP3 DUP2 MSTORE PUSH1 0x20 DUP2 KECCAK256 DUP3 ADD PUSH1 0x0 NOT SWAP1 DUP2 ADD DUP1 SLOAD PUSH1 0x1 PUSH1 0x1 PUSH1 0xA0 SHL SUB NOT AND SWAP1 SSTORE SWAP1 SWAP2 ADD SWAP1 SWAP2 SSTORE PUSH1 0x5 DUP1 SLOAD SWAP2 PUSH2 0xE36 DUP4 PUSH2 0x237A JUMP JUMPDEST SWAP2 SWAP1 POP SSTORE POP POP POP JUMPDEST PUSH2 0xE52 PUSH1 0x1 PUSH1 0x1 PUSH1 0xA0 SHL SUB DUP5 AND CALLER DUP5 PUSH2 0x1EBA JUMP JUMPDEST PUSH1 0x40 DUP1 MLOAD PUSH1 0x1 PUSH1 0x1 PUSH1 0xA0 SHL SUB DUP6 AND DUP2 MSTORE PUSH1 0x20 DUP2 ADD DUP5 SWAP1 MSTORE PUSH1 0x0 DUP2 DUP4 ADD MSTORE SWAP1 MLOAD CALLER SWAP2 PUSH32 0x91FB9D98B786C57D74C099CCD2BECA1739E9F6A81FB49001CA465C4B7591BBE2 SWAP2 SWAP1 DUP2 SWAP1 SUB PUSH1 0x60 ADD SWAP1 LOG2 POP POP POP POP POP POP POP PUSH2 0xEAF PUSH1 0x1 PUSH1 0x0 SSTORE JUMP JUMPDEST POP JUMP JUMPDEST PUSH2 0xEBA PUSH2 0x1E23 JUMP JUMPDEST PUSH1 0x0 DUP2 DUP2 MSTORE PUSH1 0xF PUSH1 0x20 MSTORE PUSH1 0x40 SWAP1 KECCAK256 SLOAD PUSH1 0x1 PUSH1 0x1 PUSH1 0xA0 SHL SUB AND DUP1 PUSH2 0xF19 JUMPI PUSH1 0x40 MLOAD PUSH3 0x461BCD PUSH1 0xE5 SHL DUP2 MSTORE PUSH1 0x20 PUSH1 0x4 DUP3 ADD MSTORE PUSH1 0x17 PUSH1 0x24 DUP3 ADD MSTORE PUSH23 0x141BDCDA5D1A5BDB88191BD95CC81B9BDD08195E1A5CDD PUSH1 0x4A SHL PUSH1 0x44 DUP3 ADD MSTORE PUSH1 0x64 ADD PUSH2 0x484 JUMP JUMPDEST PUSH1 0x1 PUSH1 0x1 PUSH1 0xA0 SHL SUB DUP2 AND CALLER EQ PUSH2 0xF80 JUMPI PUSH1 0x40 MLOAD PUSH3 0x461BCD PUSH1 0xE5 SHL DUP2 MSTORE PUSH1 0x20 PUSH1 0x4 DUP3 ADD MSTORE PUSH1 0x26 PUSH1 0x24 DUP3 ADD MSTORE PUSH32 0x596F7520617265206E6F7420746865206F776E6572206F66207468697320706F PUSH1 0x44 DUP3 ADD MSTORE PUSH6 0x39B4BA34B7B7 PUSH1 0xD1 SHL PUSH1 0x64 DUP3 ADD MSTORE PUSH1 0x84 ADD PUSH2 0x484 JUMP JUMPDEST CALLER PUSH1 0x0 SWAP1 DUP2 MSTORE PUSH1 0xE PUSH1 0x20 MSTORE PUSH1 0x40 DUP2 KECCAK256 SWAP1 DUP1 DUP1 JUMPDEST DUP4 SLOAD DUP2 LT ISZERO PUSH2 0xFDA JUMPI DUP6 DUP5 DUP3 DUP2 SLOAD DUP2 LT PUSH2 0xFAF JUMPI PUSH2 0xFAF PUSH2 0x2220 JUMP JUMPDEST SWAP1 PUSH1 0x0 MSTORE PUSH1 0x20 PUSH1 0x0 KECCAK256 SWAP1 PUSH1 0x7 MUL ADD PUSH1 0x2 ADD SLOAD SUB PUSH2 0xFD2 JUMPI DUP1 SWAP3 POP PUSH1 0x1 SWAP2 POP PUSH2 0xFDA JUMP JUMPDEST PUSH1 0x1 ADD PUSH2 0xF93 JUMP JUMPDEST POP DUP1 PUSH2 0xFF8 JUMPI PUSH1 0x40 MLOAD PUSH3 0x461BCD PUSH1 0xE5 SHL DUP2 MSTORE PUSH1 0x4 ADD PUSH2 0x484 SWAP1 PUSH2 0x22EA JUMP JUMPDEST PUSH1 0x0 DUP4 DUP4 DUP2 SLOAD DUP2 LT PUSH2 0x100C JUMPI PUSH2 0x100C PUSH2 0x2220 JUMP JUMPDEST PUSH1 0x0 SWAP2 DUP3 MSTORE PUSH1 0x20 SWAP1 SWAP2 KECCAK256 PUSH1 0x7 SWAP1 SWAP2 MUL ADD PUSH1 0x6 DUP2 ADD SLOAD SWAP1 SWAP2 POP PUSH1 0xFF AND ISZERO PUSH2 0x1068 JUMPI PUSH1 0x40 MLOAD PUSH3 0x461BCD PUSH1 0xE5 SHL DUP2 MSTORE PUSH1 0x20 PUSH1 0x4 DUP3 ADD MSTORE PUSH1 0x11 PUSH1 0x24 DUP3 ADD MSTORE PUSH17 0x20B63932B0B23C903BB4BA34323930BBB7 PUSH1 0x79 SHL PUSH1 0x44 DUP3 ADD MSTORE PUSH1 0x64 ADD PUSH2 0x484 JUMP JUMPDEST DUP1 PUSH1 0x5 ADD SLOAD DUP2 PUSH1 0x4 ADD SLOAD PUSH2 0x107C SWAP2 SWAP1 PUSH2 0x22A7 JUMP JUMPDEST TIMESTAMP LT ISZERO PUSH2 0x10BA JUMPI PUSH1 0x40 MLOAD PUSH3 0x461BCD PUSH1 0xE5 SHL DUP2 MSTORE PUSH1 0x20 PUSH1 0x4 DUP3 ADD MSTORE PUSH1 0xC PUSH1 0x24 DUP3 ADD MSTORE PUSH12 0x14DD1A5B1B081B1BD8DAD959 PUSH1 0xA2 SHL PUSH1 0x44 DUP3 ADD MSTORE PUSH1 0x64 ADD PUSH2 0x484 JUMP JUMPDEST PUSH1 0x1 DUP2 ADD SLOAD PUSH1 0x3 DUP3 ADD SLOAD PUSH1 0x5 DUP4 ADD SLOAD PUSH1 0x1 PUSH1 0x1 PUSH1 0xA0 SHL SUB SWAP1 SWAP3 AND SWAP2 PUSH1 0x0 SWAP2 PUSH2 0x10E1 SWAP2 PUSH2 0x1C70 JUMP JUMPDEST PUSH1 0x40 MLOAD PUSH4 0x70A08231 PUSH1 0xE0 SHL DUP2 MSTORE ADDRESS PUSH1 0x4 DUP3 ADD MSTORE SWAP1 SWAP2 POP PUSH1 0x0 SWAP1 PUSH1 0x1 PUSH1 0x1 PUSH1 0xA0 SHL SUB DUP5 AND SWAP1 PUSH4 0x70A08231 SWAP1 PUSH1 0x24 ADD PUSH1 0x20 PUSH1 0x40 MLOAD DUP1 DUP4 SUB DUP2 DUP7 GAS STATICCALL ISZERO DUP1 ISZERO PUSH2 0x112B JUMPI RETURNDATASIZE PUSH1 0x0 DUP1 RETURNDATACOPY RETURNDATASIZE PUSH1 0x0 REVERT JUMPDEST POP POP POP POP PUSH1 0x40 MLOAD RETURNDATASIZE PUSH1 0x1F NOT PUSH1 0x1F DUP3 ADD AND DUP3 ADD DUP1 PUSH1 0x40 MSTORE POP DUP2 ADD SWAP1 PUSH2 0x114F SWAP2 SWAP1 PUSH2 0x227B JUMP JUMPDEST SWAP1 POP DUP2 DUP5 PUSH1 0x3 ADD SLOAD PUSH2 0x1161 SWAP2 SWAP1 PUSH2 0x22A7 JUMP JUMPDEST DUP2 LT ISZERO PUSH2 0x1180 JUMPI PUSH1 0x40 MLOAD PUSH3 0x461BCD PUSH1 0xE5 SHL DUP2 MSTORE PUSH1 0x4 ADD PUSH2 0x484 SWAP1 PUSH2 0x2338 JUMP JUMPDEST DUP4 PUSH1 0x3 ADD SLOAD PUSH1 0x6 PUSH1 0x0 DUP3 DUP3 SLOAD PUSH2 0x1196 SWAP2 SWAP1 PUSH2 0x2294 JUMP JUMPDEST SWAP1 SWAP2 SSTORE POP POP PUSH1 0x3 DUP5 ADD SLOAD CALLER PUSH1 0x0 SWAP1 DUP2 MSTORE PUSH1 0xD PUSH1 0x20 SWAP1 DUP2 MSTORE PUSH1 0x40 DUP1 DUP4 KECCAK256 PUSH1 0x1 PUSH1 0x1 PUSH1 0xA0 SHL SUB DUP9 AND DUP5 MSTORE SWAP1 SWAP2 MSTORE DUP2 KECCAK256 DUP1 SLOAD SWAP1 SWAP2 SWAP1 PUSH2 0x11D3 SWAP1 DUP5 SWAP1 PUSH2 0x2294 JUMP JUMPDEST SWAP1 SWAP2 SSTORE POP POP PUSH1 0x6 DUP5 ADD DUP1 SLOAD PUSH1 0xFF NOT AND PUSH1 0x1 OR SWAP1 SSTORE PUSH1 0x3 DUP5 ADD SLOAD PUSH2 0x1202 SWAP1 PUSH1 0x1 PUSH1 0x1 PUSH1 0xA0 SHL SUB DUP6 AND SWAP1 CALLER SWAP1 PUSH2 0x1EBA JUMP JUMPDEST PUSH2 0x1216 PUSH1 0x1 PUSH1 0x1 PUSH1 0xA0 SHL SUB DUP5 AND CALLER DUP5 PUSH2 0x1EBA JUMP JUMPDEST CALLER PUSH1 0x0 SWAP1 DUP2 MSTORE PUSH1 0xB PUSH1 0x20 MSTORE PUSH1 0x40 DUP2 KECCAK256 DUP1 SLOAD SWAP2 PUSH2 0x1231 DUP4 PUSH2 0x237A JUMP JUMPDEST SWAP1 SWAP2 SSTORE POP POP CALLER PUSH1 0x0 SWAP1 DUP2 MSTORE PUSH1 0xB PUSH1 0x20 MSTORE PUSH1 0x40 DUP2 KECCAK256 SLOAD SWAP1 SUB PUSH2 0x133E JUMPI PUSH1 0x9 SLOAD PUSH1 0x0 SWAP1 PUSH2 0x125E SWAP1 PUSH1 0x1 SWAP1 PUSH2 0x2294 JUMP JUMPDEST SWAP1 POP PUSH1 0x0 PUSH1 0x9 DUP3 DUP2 SLOAD DUP2 LT PUSH2 0x1275 JUMPI PUSH2 0x1275 PUSH2 0x2220 JUMP JUMPDEST PUSH1 0x0 SWAP2 DUP3 MSTORE PUSH1 0x20 SWAP1 SWAP2 KECCAK256 ADD SLOAD PUSH1 0x1 PUSH1 0x1 PUSH1 0xA0 SHL SUB AND SWAP1 POP CALLER DUP2 EQ PUSH2 0x12F2 JUMPI CALLER PUSH1 0x0 SWAP1 DUP2 MSTORE PUSH1 0xC PUSH1 0x20 MSTORE PUSH1 0x40 SWAP1 KECCAK256 SLOAD PUSH1 0x9 DUP1 SLOAD DUP4 SWAP2 SWAP1 DUP4 SWAP1 DUP2 LT PUSH2 0x12BA JUMPI PUSH2 0x12BA PUSH2 0x2220 JUMP JUMPDEST PUSH1 0x0 SWAP2 DUP3 MSTORE PUSH1 0x20 DUP1 DUP4 KECCAK256 SWAP2 SWAP1 SWAP2 ADD DUP1 SLOAD PUSH1 0x1 PUSH1 0x1 PUSH1 0xA0 SHL SUB NOT AND PUSH1 0x1 PUSH1 0x1 PUSH1 0xA0 SHL SUB SWAP5 DUP6 AND OR SWAP1 SSTORE SWAP2 DUP5 AND DUP2 MSTORE PUSH1 0xC SWAP1 SWAP2 MSTORE PUSH1 0x40 SWAP1 KECCAK256 SSTORE JUMPDEST PUSH1 0x9 DUP1 SLOAD DUP1 PUSH2 0x1303 JUMPI PUSH2 0x1303 PUSH2 0x2391 JUMP JUMPDEST PUSH1 0x0 DUP3 DUP2 MSTORE PUSH1 0x20 DUP2 KECCAK256 DUP3 ADD PUSH1 0x0 NOT SWAP1 DUP2 ADD DUP1 SLOAD PUSH1 0x1 PUSH1 0x1 PUSH1 0xA0 SHL SUB NOT AND SWAP1 SSTORE SWAP1 SWAP2 ADD SWAP1 SWAP2 SSTORE PUSH1 0x5 DUP1 SLOAD SWAP2 PUSH2 0x1336 DUP4 PUSH2 0x237A JUMP JUMPDEST SWAP2 SWAP1 POP SSTORE POP POP POP JUMPDEST PUSH1 0x0 DUP10 DUP2 MSTORE PUSH1 0xF PUSH1 0x20 SWAP1 DUP2 MSTORE PUSH1 0x40 SWAP2 DUP3 SWAP1 KECCAK256 DUP1 SLOAD PUSH1 0x1 PUSH1 0x1 PUSH1 0xA0 SHL SUB NOT AND SWAP1 SSTORE PUSH1 0x3 DUP7 ADD SLOAD DUP3 MLOAD PUSH1 0x1 PUSH1 0x1 PUSH1 0xA0 SHL SUB DUP8 AND DUP2 MSTORE SWAP2 DUP3 ADD MSTORE SWAP1 DUP2 ADD DUP4 SWAP1 MSTORE CALLER SWAP1 PUSH32 0x91FB9D98B786C57D74C099CCD2BECA1739E9F6A81FB49001CA465C4B7591BBE2 SWAP1 PUSH1 0x60 ADD PUSH1 0x40 MLOAD DUP1 SWAP2 SUB SWAP1 LOG2 POP POP POP POP POP POP POP POP PUSH2 0xEAF PUSH1 0x1 PUSH1 0x0 SSTORE JUMP JUMPDEST PUSH1 0x10 SLOAD PUSH1 0x1 PUSH1 0x1 PUSH1 0xA0 SHL SUB AND CALLER EQ PUSH2 0x13E6 JUMPI PUSH1 0x40 MLOAD PUSH3 0x461BCD PUSH1 0xE5 SHL DUP2 MSTORE PUSH1 0x4 ADD PUSH2 0x484 SWAP1 PUSH2 0x22BA JUMP JUMPDEST PUSH1 0x1 DUP4 SWAP1 SSTORE PUSH1 0x2 DUP3 SWAP1 SSTORE PUSH1 0x3 DUP2 SWAP1 SSTORE PUSH1 0x40 DUP1 MLOAD DUP5 DUP2 MSTORE PUSH1 0x20 DUP2 ADD DUP5 SWAP1 MSTORE SWAP1 DUP2 ADD DUP3 SWAP1 MSTORE PUSH32 0xEFEEAE12018CAD4C8C8285CE10D106BD4084B37DDD067FB0B5BA5567D7F8D4EB SWAP1 PUSH1 0x60 ADD PUSH1 0x40 MLOAD DUP1 SWAP2 SUB SWAP1 LOG1 POP POP POP JUMP JUMPDEST PUSH1 0x10 SLOAD PUSH1 0x1 PUSH1 0x1 PUSH1 0xA0 SHL SUB AND CALLER EQ PUSH2 0x1465 JUMPI PUSH1 0x40 MLOAD PUSH3 0x461BCD PUSH1 0xE5 SHL DUP2 MSTORE PUSH1 0x4 ADD PUSH2 0x484 SWAP1 PUSH2 0x22BA JUMP JUMPDEST PUSH1 0x1 PUSH1 0x1 PUSH1 0xA0 SHL SUB DUP3 AND PUSH1 0x0 DUP2 DUP2 MSTORE PUSH1 0xA PUSH1 0x20 SWAP1 DUP2 MSTORE PUSH1 0x40 SWAP2 DUP3 SWAP1 KECCAK256 DUP1 SLOAD PUSH1 0xFF NOT AND DUP6 ISZERO ISZERO SWAP1 DUP2 OR SWAP1 SWAP2 SSTORE DUP3 MLOAD SWAP4 DUP5 MSTORE SWAP1 DUP4 ADD MSTORE PUSH32 0x35EC8A295A68C142349D2E1FF041D419582A35F45DE73279A3F0D331004C1E46 SWAP2 ADD PUSH1 0x40 MLOAD DUP1 SWAP2 SUB SWAP1 LOG1 POP POP JUMP JUMPDEST PUSH1 0x60 PUSH1 0x0 DUP1 JUMPDEST PUSH1 0x9 SLOAD DUP2 LT ISZERO PUSH2 0x160B JUMPI PUSH1 0x0 PUSH1 0xE PUSH1 0x0 PUSH1 0x9 DUP5 DUP2 SLOAD DUP2 LT PUSH2 0x14F1 JUMPI PUSH2 0x14F1 PUSH2 0x2220 JUMP JUMPDEST PUSH1 0x0 SWAP2 DUP3 MSTORE PUSH1 0x20 DUP1 DUP4 KECCAK256 SWAP1 SWAP2 ADD SLOAD PUSH1 0x1 PUSH1 0x1 PUSH1 0xA0 SHL SUB AND DUP4 MSTORE DUP3 DUP2 ADD SWAP4 SWAP1 SWAP4 MSTORE PUSH1 0x40 SWAP2 DUP3 ADD DUP2 KECCAK256 DUP1 SLOAD DUP4 MLOAD DUP2 DUP7 MUL DUP2 ADD DUP7 ADD SWAP1 SWAP5 MSTORE DUP1 DUP5 MSTORE SWAP3 SWAP4 SWAP1 SWAP3 SWAP2 SWAP1 DUP5 ADD JUMPDEST DUP3 DUP3 LT ISZERO PUSH2 0x15B7 JUMPI PUSH1 0x0 DUP5 DUP2 MSTORE PUSH1 0x20 SWAP1 DUP2 SWAP1 KECCAK256 PUSH1 0x40 DUP1 MLOAD PUSH1 0xE0 DUP2 ADD DUP3 MSTORE PUSH1 0x7 DUP7 MUL SWAP1 SWAP3 ADD DUP1 SLOAD PUSH1 0x1 PUSH1 0x1 PUSH1 0xA0 SHL SUB SWAP1 DUP2 AND DUP5 MSTORE PUSH1 0x1 DUP1 DUP4 ADD SLOAD SWAP1 SWAP2 AND DUP5 DUP7 ADD MSTORE PUSH1 0x2 DUP3 ADD SLOAD SWAP3 DUP5 ADD SWAP3 SWAP1 SWAP3 MSTORE PUSH1 0x3 DUP2 ADD SLOAD PUSH1 0x60 DUP5 ADD MSTORE PUSH1 0x4 DUP2 ADD SLOAD PUSH1 0x80 DUP5 ADD MSTORE PUSH1 0x5 DUP2 ADD SLOAD PUSH1 0xA0 DUP5 ADD MSTORE PUSH1 0x6 ADD SLOAD PUSH1 0xFF AND ISZERO ISZERO PUSH1 0xC0 DUP4 ADD MSTORE SWAP1 DUP4 MSTORE SWAP1 SWAP3 ADD SWAP2 ADD PUSH2 0x1532 JUMP JUMPDEST POP POP POP POP SWAP1 POP PUSH1 0x0 JUMPDEST DUP2 MLOAD DUP2 LT ISZERO PUSH2 0x1601 JUMPI DUP2 DUP2 DUP2 MLOAD DUP2 LT PUSH2 0x15DB JUMPI PUSH2 0x15DB PUSH2 0x2220 JUMP JUMPDEST PUSH1 0x20 MUL PUSH1 0x20 ADD ADD MLOAD PUSH1 0xC0 ADD MLOAD PUSH2 0x15F9 JUMPI DUP4 PUSH2 0x15F5 DUP2 PUSH2 0x224C JUMP JUMPDEST SWAP5 POP POP JUMPDEST PUSH1 0x1 ADD PUSH2 0x15C0 JUMP JUMPDEST POP POP PUSH1 0x1 ADD PUSH2 0x14CE JUMP JUMPDEST POP DUP1 PUSH8 0xFFFFFFFFFFFFFFFF DUP2 GT ISZERO PUSH2 0x1625 JUMPI PUSH2 0x1625 PUSH2 0x2265 JUMP JUMPDEST PUSH1 0x40 MLOAD SWAP1 DUP1 DUP3 MSTORE DUP1 PUSH1 0x20 MUL PUSH1 0x20 ADD DUP3 ADD PUSH1 0x40 MSTORE DUP1 ISZERO PUSH2 0x165E JUMPI DUP2 PUSH1 0x20 ADD JUMPDEST PUSH2 0x164B PUSH2 0x1F5C JUMP JUMPDEST DUP2 MSTORE PUSH1 0x20 ADD SWAP1 PUSH1 0x1 SWAP1 SUB SWAP1 DUP2 PUSH2 0x1643 JUMPI SWAP1 POP JUMPDEST POP SWAP2 POP PUSH1 0x0 DUP1 JUMPDEST PUSH1 0x9 SLOAD DUP2 LT ISZERO PUSH2 0x17DA JUMPI PUSH1 0x0 PUSH1 0xE PUSH1 0x0 PUSH1 0x9 DUP5 DUP2 SLOAD DUP2 LT PUSH2 0x1688 JUMPI PUSH2 0x1688 PUSH2 0x2220 JUMP JUMPDEST PUSH1 0x0 SWAP2 DUP3 MSTORE PUSH1 0x20 DUP1 DUP4 KECCAK256 SWAP1 SWAP2 ADD SLOAD PUSH1 0x1 PUSH1 0x1 PUSH1 0xA0 SHL SUB AND DUP4 MSTORE DUP3 DUP2 ADD SWAP4 SWAP1 SWAP4 MSTORE PUSH1 0x40 SWAP2 DUP3 ADD DUP2 KECCAK256 DUP1 SLOAD DUP4 MLOAD DUP2 DUP7 MUL DUP2 ADD DUP7 ADD SWAP1 SWAP5 MSTORE DUP1 DUP5 MSTORE SWAP3 SWAP4 SWAP1 SWAP3 SWAP2 SWAP1 DUP5 ADD JUMPDEST DUP3 DUP3 LT ISZERO PUSH2 0x174E JUMPI PUSH1 0x0 DUP5 DUP2 MSTORE PUSH1 0x20 SWAP1 DUP2 SWAP1 KECCAK256 PUSH1 0x40 DUP1 MLOAD PUSH1 0xE0 DUP2 ADD DUP3 MSTORE PUSH1 0x7 DUP7 MUL SWAP1 SWAP3 ADD DUP1 SLOAD PUSH1 0x1 PUSH1 0x1 PUSH1 0xA0 SHL SUB SWAP1 DUP2 AND DUP5 MSTORE PUSH1 0x1 DUP1 DUP4 ADD SLOAD SWAP1 SWAP2 AND DUP5 DUP7 ADD MSTORE PUSH1 0x2 DUP3 ADD SLOAD SWAP3 DUP5 ADD SWAP3 SWAP1 SWAP3 MSTORE PUSH1 0x3 DUP2 ADD SLOAD PUSH1 0x60 DUP5 ADD MSTORE PUSH1 0x4 DUP2 ADD SLOAD PUSH1 0x80 DUP5 ADD MSTORE PUSH1 0x5 DUP2 ADD SLOAD PUSH1 0xA0 DUP5 ADD MSTORE PUSH1 0x6 ADD SLOAD PUSH1 0xFF AND ISZERO ISZERO PUSH1 0xC0 DUP4 ADD MSTORE SWAP1 DUP4 MSTORE SWAP1 SWAP3 ADD SWAP2 ADD PUSH2 0x16C9 JUMP JUMPDEST POP POP POP POP SWAP1 POP PUSH1 0x0 JUMPDEST DUP2 MLOAD DUP2 LT ISZERO PUSH2 0x17D0 JUMPI DUP2 DUP2 DUP2 MLOAD DUP2 LT PUSH2 0x1772 JUMPI PUSH2 0x1772 PUSH2 0x2220 JUMP JUMPDEST PUSH1 0x20 MUL PUSH1 0x20 ADD ADD MLOAD PUSH1 0xC0 ADD MLOAD PUSH2 0x17C8 JUMPI DUP2 DUP2 DUP2 MLOAD DUP2 LT PUSH2 0x1794 JUMPI PUSH2 0x1794 PUSH2 0x2220 JUMP JUMPDEST PUSH1 0x20 MUL PUSH1 0x20 ADD ADD MLOAD DUP7 DUP6 DUP2 MLOAD DUP2 LT PUSH2 0x17AE JUMPI PUSH2 0x17AE PUSH2 0x2220 JUMP JUMPDEST PUSH1 0x20 MUL PUSH1 0x20 ADD ADD DUP2 SWAP1 MSTORE POP DUP4 DUP1 PUSH2 0x17C4 SWAP1 PUSH2 0x224C JUMP JUMPDEST SWAP5 POP POP JUMPDEST PUSH1 0x1 ADD PUSH2 0x1757 JUMP JUMPDEST POP POP PUSH1 0x1 ADD PUSH2 0x1665 JUMP JUMPDEST POP POP POP SWAP1 JUMP JUMPDEST PUSH1 0x60 DUP1 PUSH1 0x0 DUP1 JUMPDEST PUSH1 0x8 SLOAD DUP2 LT ISZERO PUSH2 0x1854 JUMPI PUSH1 0x0 PUSH1 0x8 DUP3 DUP2 SLOAD DUP2 LT PUSH2 0x1806 JUMPI PUSH2 0x1806 PUSH2 0x2220 JUMP JUMPDEST PUSH1 0x0 SWAP2 DUP3 MSTORE PUSH1 0x20 DUP1 DUP4 KECCAK256 SWAP1 SWAP2 ADD SLOAD CALLER DUP4 MSTORE PUSH1 0xD DUP3 MSTORE PUSH1 0x40 DUP1 DUP5 KECCAK256 PUSH1 0x1 PUSH1 0x1 PUSH1 0xA0 SHL SUB SWAP1 SWAP3 AND DUP1 DUP6 MSTORE SWAP2 SWAP1 SWAP3 MSTORE SWAP2 KECCAK256 SLOAD SWAP1 SWAP2 POP ISZERO PUSH2 0x184B JUMPI DUP3 PUSH2 0x1847 DUP2 PUSH2 0x224C JUMP JUMPDEST SWAP4 POP POP JUMPDEST POP PUSH1 0x1 ADD PUSH2 0x17E7 JUMP JUMPDEST POP DUP1 PUSH8 0xFFFFFFFFFFFFFFFF DUP2 GT ISZERO PUSH2 0x186E JUMPI PUSH2 0x186E PUSH2 0x2265 JUMP JUMPDEST PUSH1 0x40 MLOAD SWAP1 DUP1 DUP3 MSTORE DUP1 PUSH1 0x20 MUL PUSH1 0x20 ADD DUP3 ADD PUSH1 0x40 MSTORE DUP1 ISZERO PUSH2 0x1897 JUMPI DUP2 PUSH1 0x20 ADD PUSH1 0x20 DUP3 MUL DUP1 CALLDATASIZE DUP4 CALLDATACOPY ADD SWAP1 POP JUMPDEST POP SWAP3 POP DUP1 PUSH8 0xFFFFFFFFFFFFFFFF DUP2 GT ISZERO PUSH2 0x18B3 JUMPI PUSH2 0x18B3 PUSH2 0x2265 JUMP JUMPDEST PUSH1 0x40 MLOAD SWAP1 DUP1 DUP3 MSTORE DUP1 PUSH1 0x20 MUL PUSH1 0x20 ADD DUP3 ADD PUSH1 0x40 MSTORE DUP1 ISZERO PUSH2 0x18DC JUMPI DUP2 PUSH1 0x20 ADD PUSH1 0x20 DUP3 MUL DUP1 CALLDATASIZE DUP4 CALLDATACOPY ADD SWAP1 POP JUMPDEST POP SWAP2 POP PUSH1 0x0 DUP1 JUMPDEST PUSH1 0x8 SLOAD DUP2 LT ISZERO PUSH2 0x19B6 JUMPI PUSH1 0x0 PUSH1 0x8 DUP3 DUP2 SLOAD DUP2 LT PUSH2 0x1902 JUMPI PUSH2 0x1902 PUSH2 0x2220 JUMP JUMPDEST PUSH1 0x0 SWAP2 DUP3 MSTORE PUSH1 0x20 DUP1 DUP4 KECCAK256 SWAP1 SWAP2 ADD SLOAD CALLER DUP4 MSTORE PUSH1 0xD DUP3 MSTORE PUSH1 0x40 DUP1 DUP5 KECCAK256 PUSH1 0x1 PUSH1 0x1 PUSH1 0xA0 SHL SUB SWAP1 SWAP3 AND DUP1 DUP6 MSTORE SWAP2 SWAP1 SWAP3 MSTORE SWAP2 KECCAK256 SLOAD SWAP1 SWAP2 POP ISZERO PUSH2 0x19AD JUMPI DUP1 DUP7 DUP5 DUP2 MLOAD DUP2 LT PUSH2 0x194C JUMPI PUSH2 0x194C PUSH2 0x2220 JUMP JUMPDEST PUSH1 0x1 PUSH1 0x1 PUSH1 0xA0 SHL SUB SWAP3 DUP4 AND PUSH1 0x20 SWAP2 DUP3 MUL SWAP3 SWAP1 SWAP3 ADD DUP2 ADD SWAP2 SWAP1 SWAP2 MSTORE CALLER PUSH1 0x0 SWAP1 DUP2 MSTORE PUSH1 0xD DUP3 MSTORE PUSH1 0x40 DUP1 DUP3 KECCAK256 SWAP4 DUP6 AND DUP3 MSTORE SWAP3 SWAP1 SWAP2 MSTORE KECCAK256 SLOAD DUP6 MLOAD DUP7 SWAP1 DUP6 SWAP1 DUP2 LT PUSH2 0x1994 JUMPI PUSH2 0x1994 PUSH2 0x2220 JUMP JUMPDEST PUSH1 0x20 SWAP1 DUP2 MUL SWAP2 SWAP1 SWAP2 ADD ADD MSTORE DUP3 PUSH2 0x19A9 DUP2 PUSH2 0x224C JUMP JUMPDEST SWAP4 POP POP JUMPDEST POP PUSH1 0x1 ADD PUSH2 0x18E3 JUMP JUMPDEST POP POP POP SWAP1 SWAP2 JUMP JUMPDEST PUSH1 0x10 SLOAD PUSH1 0x1 PUSH1 0x1 PUSH1 0xA0 SHL SUB AND CALLER EQ PUSH2 0x19E7 JUMPI PUSH1 0x40 MLOAD PUSH3 0x461BCD PUSH1 0xE5 SHL DUP2 MSTORE PUSH1 0x4 ADD PUSH2 0x484 SWAP1 PUSH2 0x22BA JUMP JUMPDEST PUSH1 0x0 DUP1 DUP1 JUMPDEST PUSH1 0x8 SLOAD DUP2 LT ISZERO PUSH2 0x1A41 JUMPI DUP4 PUSH1 0x1 PUSH1 0x1 PUSH1 0xA0 SHL SUB AND PUSH1 0x8 DUP3 DUP2 SLOAD DUP2 LT PUSH2 0x1A13 JUMPI PUSH2 0x1A13 PUSH2 0x2220 JUMP JUMPDEST PUSH1 0x0 SWAP2 DUP3 MSTORE PUSH1 0x20 SWAP1 SWAP2 KECCAK256 ADD SLOAD PUSH1 0x1 PUSH1 0x1 PUSH1 0xA0 SHL SUB AND SUB PUSH2 0x1A39 JUMPI DUP1 SWAP3 POP PUSH1 0x1 SWAP2 POP PUSH2 0x1A41 JUMP JUMPDEST PUSH1 0x1 ADD PUSH2 0x19EC JUMP JUMPDEST POP DUP1 PUSH2 0x1A99 JUMPI PUSH1 0x40 MLOAD PUSH3 0x461BCD PUSH1 0xE5 SHL DUP2 MSTORE PUSH1 0x20 PUSH1 0x4 DUP3 ADD MSTORE PUSH1 0x21 PUSH1 0x24 DUP3 ADD MSTORE PUSH32 0x546F6B656E206E6F7420666F756E6420696E20616C6C6F77656420746F6B656E PUSH1 0x44 DUP3 ADD MSTORE PUSH1 0x73 PUSH1 0xF8 SHL PUSH1 0x64 DUP3 ADD MSTORE PUSH1 0x84 ADD PUSH2 0x484 JUMP JUMPDEST PUSH1 0x0 PUSH2 0x1AA3 PUSH2 0x14C8 JUMP JUMPDEST SWAP1 POP PUSH1 0x0 JUMPDEST DUP2 MLOAD DUP2 LT ISZERO PUSH2 0x1B53 JUMPI DUP5 PUSH1 0x1 PUSH1 0x1 PUSH1 0xA0 SHL SUB AND DUP3 DUP3 DUP2 MLOAD DUP2 LT PUSH2 0x1ACD JUMPI PUSH2 0x1ACD PUSH2 0x2220 JUMP JUMPDEST PUSH1 0x20 MUL PUSH1 0x20 ADD ADD MLOAD PUSH1 0x20 ADD MLOAD PUSH1 0x1 PUSH1 0x1 PUSH1 0xA0 SHL SUB AND SUB PUSH2 0x1B4B JUMPI PUSH1 0x40 MLOAD PUSH3 0x461BCD PUSH1 0xE5 SHL DUP2 MSTORE PUSH1 0x20 PUSH1 0x4 DUP3 ADD MSTORE PUSH1 0x33 PUSH1 0x24 DUP3 ADD MSTORE PUSH32 0x546F6B656E2068617320616E2061637469766520706F736974696F6E2E204361 PUSH1 0x44 DUP3 ADD MSTORE PUSH19 0x6E6E6F742062652072656D6F766564206E6F77 PUSH1 0x68 SHL PUSH1 0x64 DUP3 ADD MSTORE PUSH1 0x84 ADD PUSH2 0x484 JUMP JUMPDEST PUSH1 0x1 ADD PUSH2 0x1AA8 JUMP JUMPDEST POP PUSH1 0x8 SLOAD PUSH1 0x0 SWAP1 PUSH2 0x1B66 SWAP1 PUSH1 0x1 SWAP1 PUSH2 0x2294 JUMP JUMPDEST SWAP1 POP DUP1 DUP5 EQ PUSH2 0x1BDD JUMPI PUSH1 0x8 DUP2 DUP2 SLOAD DUP2 LT PUSH2 0x1B82 JUMPI PUSH2 0x1B82 PUSH2 0x2220 JUMP JUMPDEST PUSH1 0x0 SWAP2 DUP3 MSTORE PUSH1 0x20 SWAP1 SWAP2 KECCAK256 ADD SLOAD PUSH1 0x8 DUP1 SLOAD PUSH1 0x1 PUSH1 0x1 PUSH1 0xA0 SHL SUB SWAP1 SWAP3 AND SWAP2 DUP7 SWAP1 DUP2 LT PUSH2 0x1BAE JUMPI PUSH2 0x1BAE PUSH2 0x2220 JUMP JUMPDEST SWAP1 PUSH1 0x0 MSTORE PUSH1 0x20 PUSH1 0x0 KECCAK256 ADD PUSH1 0x0 PUSH2 0x100 EXP DUP2 SLOAD DUP2 PUSH1 0x1 PUSH1 0x1 PUSH1 0xA0 SHL SUB MUL NOT AND SWAP1 DUP4 PUSH1 0x1 PUSH1 0x1 PUSH1 0xA0 SHL SUB AND MUL OR SWAP1 SSTORE POP JUMPDEST PUSH1 0x8 DUP1 SLOAD DUP1 PUSH2 0x1BEE JUMPI PUSH2 0x1BEE PUSH2 0x2391 JUMP JUMPDEST PUSH1 0x0 DUP3 DUP2 MSTORE PUSH1 0x20 DUP1 DUP3 KECCAK256 PUSH1 0x0 NOT SWAP1 DUP5 ADD DUP2 ADD DUP1 SLOAD PUSH1 0x1 PUSH1 0x1 PUSH1 0xA0 SHL SUB NOT AND SWAP1 SSTORE SWAP1 SWAP3 ADD SWAP1 SWAP3 SSTORE PUSH1 0x1 PUSH1 0x1 PUSH1 0xA0 SHL SUB DUP8 AND DUP1 DUP4 MSTORE PUSH1 0xA DUP3 MSTORE PUSH1 0x40 DUP1 DUP5 KECCAK256 DUP1 SLOAD PUSH1 0xFF NOT AND SWAP1 SSTORE DUP1 MLOAD SWAP2 DUP3 MSTORE SWAP2 DUP2 ADD SWAP3 SWAP1 SWAP3 MSTORE PUSH32 0x35EC8A295A68C142349D2E1FF041D419582A35F45DE73279A3F0D331004C1E46 SWAP2 ADD PUSH1 0x40 MLOAD DUP1 SWAP2 SUB SWAP1 LOG1 POP POP POP POP POP JUMP JUMPDEST PUSH1 0x1 SLOAD PUSH4 0xBBF81E00 DUP3 DUP5 MUL SWAP1 SWAP2 MUL DIV JUMPDEST SWAP3 SWAP2 POP POP JUMP JUMPDEST PUSH2 0x1C8E PUSH2 0x1F5C JUMP JUMPDEST PUSH1 0x0 DUP3 DUP2 MSTORE PUSH1 0xF PUSH1 0x20 MSTORE PUSH1 0x40 SWAP1 KECCAK256 SLOAD PUSH1 0x1 PUSH1 0x1 PUSH1 0xA0 SHL SUB AND DUP1 PUSH2 0x1CED JUMPI PUSH1 0x40 MLOAD PUSH3 0x461BCD PUSH1 0xE5 SHL DUP2 MSTORE PUSH1 0x20 PUSH1 0x4 DUP3 ADD MSTORE PUSH1 0x17 PUSH1 0x24 DUP3 ADD MSTORE PUSH23 0x141BDCDA5D1A5BDB88191BD95CC81B9BDD08195E1A5CDD PUSH1 0x4A SHL PUSH1 0x44 DUP3 ADD MSTORE PUSH1 0x64 ADD PUSH2 0x484 JUMP JUMPDEST PUSH1 0x1 PUSH1 0x1 PUSH1 0xA0 SHL SUB DUP2 AND PUSH1 0x0 SWAP1 DUP2 MSTORE PUSH1 0xE PUSH1 0x20 SWAP1 DUP2 MSTORE PUSH1 0x40 DUP1 DUP4 KECCAK256 DUP1 SLOAD DUP3 MLOAD DUP2 DUP6 MUL DUP2 ADD DUP6 ADD SWAP1 SWAP4 MSTORE DUP1 DUP4 MSTORE SWAP2 SWAP3 SWAP1 SWAP2 SWAP1 DUP5 SWAP1 DUP5 ADD JUMPDEST DUP3 DUP3 LT ISZERO PUSH2 0x1DA8 JUMPI PUSH1 0x0 DUP5 DUP2 MSTORE PUSH1 0x20 SWAP1 DUP2 SWAP1 KECCAK256 PUSH1 0x40 DUP1 MLOAD PUSH1 0xE0 DUP2 ADD DUP3 MSTORE PUSH1 0x7 DUP7 MUL SWAP1 SWAP3 ADD DUP1 SLOAD PUSH1 0x1 PUSH1 0x1 PUSH1 0xA0 SHL SUB SWAP1 DUP2 AND DUP5 MSTORE PUSH1 0x1 DUP1 DUP4 ADD SLOAD SWAP1 SWAP2 AND DUP5 DUP7 ADD MSTORE PUSH1 0x2 DUP3 ADD SLOAD SWAP3 DUP5 ADD SWAP3 SWAP1 SWAP3 MSTORE PUSH1 0x3 DUP2 ADD SLOAD PUSH1 0x60 DUP5 ADD MSTORE PUSH1 0x4 DUP2 ADD SLOAD PUSH1 0x80 DUP5 ADD MSTORE PUSH1 0x5 DUP2 ADD SLOAD PUSH1 0xA0 DUP5 ADD MSTORE PUSH1 0x6 ADD SLOAD PUSH1 0xFF AND ISZERO ISZERO PUSH1 0xC0 DUP4 ADD MSTORE SWAP1 DUP4 MSTORE SWAP1 SWAP3 ADD SWAP2 ADD PUSH2 0x1D23 JUMP JUMPDEST POP POP POP POP SWAP1 POP PUSH1 0x0 JUMPDEST DUP2 MLOAD DUP2 LT ISZERO PUSH2 0x1E0A JUMPI DUP5 DUP3 DUP3 DUP2 MLOAD DUP2 LT PUSH2 0x1DCD JUMPI PUSH2 0x1DCD PUSH2 0x2220 JUMP JUMPDEST PUSH1 0x20 MUL PUSH1 0x20 ADD ADD MLOAD PUSH1 0x40 ADD MLOAD SUB PUSH2 0x1E02 JUMPI DUP2 DUP2 DUP2 MLOAD DUP2 LT PUSH2 0x1DF0 JUMPI PUSH2 0x1DF0 PUSH2 0x2220 JUMP JUMPDEST PUSH1 0x20 MUL PUSH1 0x20 ADD ADD MLOAD SWAP4 POP POP POP POP SWAP2 SWAP1 POP JUMP JUMPDEST PUSH1 0x1 ADD PUSH2 0x1DB1 JUMP JUMPDEST POP PUSH1 0x40 MLOAD PUSH3 0x461BCD PUSH1 0xE5 SHL DUP2 MSTORE PUSH1 0x4 ADD PUSH2 0x484 SWAP1 PUSH2 0x22EA JUMP JUMPDEST PUSH1 0x2 PUSH1 0x0 SLOAD SUB PUSH2 0x1E46 JUMPI PUSH1 0x40 MLOAD PUSH4 0x3EE5AEB5 PUSH1 0xE0 SHL DUP2 MSTORE PUSH1 0x4 ADD PUSH1 0x40 MLOAD DUP1 SWAP2 SUB SWAP1 REVERT JUMPDEST PUSH1 0x2 PUSH1 0x0 SSTORE JUMP JUMPDEST PUSH1 0x40 MLOAD PUSH1 0x1 PUSH1 0x1 PUSH1 0xA0 SHL SUB DUP5 DUP2 AND PUSH1 0x24 DUP4 ADD MSTORE DUP4 DUP2 AND PUSH1 0x44 DUP4 ADD MSTORE PUSH1 0x64 DUP3 ADD DUP4 SWAP1 MSTORE PUSH2 0x1EB4 SWAP2 DUP7 SWAP2 DUP3 AND SWAP1 PUSH4 0x23B872DD SWAP1 PUSH1 0x84 ADD JUMPDEST PUSH1 0x40 MLOAD PUSH1 0x20 DUP2 DUP4 SUB SUB DUP2 MSTORE SWAP1 PUSH1 0x40 MSTORE SWAP2 POP PUSH1 0xE0 SHL PUSH1 0x20 DUP3 ADD DUP1 MLOAD PUSH1 0x1 PUSH1 0x1 PUSH1 0xE0 SHL SUB DUP4 DUP2 DUP4 AND OR DUP4 MSTORE POP POP POP POP PUSH2 0x1EEB JUMP JUMPDEST POP POP POP POP JUMP JUMPDEST PUSH1 0x40 MLOAD PUSH1 0x1 PUSH1 0x1 PUSH1 0xA0 SHL SUB DUP4 DUP2 AND PUSH1 0x24 DUP4 ADD MSTORE PUSH1 0x44 DUP3 ADD DUP4 SWAP1 MSTORE PUSH2 0x8DE SWAP2 DUP6 SWAP2 DUP3 AND SWAP1 PUSH4 0xA9059CBB SWAP1 PUSH1 0x64 ADD PUSH2 0x1E82 JUMP JUMPDEST PUSH1 0x0 DUP1 PUSH1 0x20 PUSH1 0x0 DUP5 MLOAD PUSH1 0x20 DUP7 ADD PUSH1 0x0 DUP9 GAS CALL DUP1 PUSH2 0x1F0E JUMPI PUSH1 0x40 MLOAD RETURNDATASIZE PUSH1 0x0 DUP3 RETURNDATACOPY RETURNDATASIZE DUP2 REVERT JUMPDEST POP POP PUSH1 0x0 MLOAD RETURNDATASIZE SWAP2 POP DUP2 ISZERO PUSH2 0x1F26 JUMPI DUP1 PUSH1 0x1 EQ ISZERO PUSH2 0x1F33 JUMP JUMPDEST PUSH1 0x1 PUSH1 0x1 PUSH1 0xA0 SHL SUB DUP5 AND EXTCODESIZE ISZERO JUMPDEST ISZERO PUSH2 0x1EB4 JUMPI PUSH1 0x40 MLOAD PUSH4 0x5274AFE7 PUSH1 0xE0 SHL DUP2 MSTORE PUSH1 0x1 PUSH1 0x1 PUSH1 0xA0 SHL SUB DUP6 AND PUSH1 0x4 DUP3 ADD MSTORE PUSH1 0x24 ADD PUSH2 0x484 JUMP JUMPDEST PUSH1 0x40 MLOAD DUP1 PUSH1 0xE0 ADD PUSH1 0x40 MSTORE DUP1 PUSH1 0x0 PUSH1 0x1 PUSH1 0x1 PUSH1 0xA0 SHL SUB AND DUP2 MSTORE PUSH1 0x20 ADD PUSH1 0x0 PUSH1 0x1 PUSH1 0x1 PUSH1 0xA0 SHL SUB AND DUP2 MSTORE PUSH1 0x20 ADD PUSH1 0x0 DUP2 MSTORE PUSH1 0x20 ADD PUSH1 0x0 DUP2 MSTORE PUSH1 0x20 ADD PUSH1 0x0 DUP2 MSTORE PUSH1 0x20 ADD PUSH1 0x0 DUP2 MSTORE PUSH1 0x20 ADD PUSH1 0x0 ISZERO ISZERO DUP2 MSTORE POP SWAP1 JUMP JUMPDEST PUSH1 0x0 DUP2 MLOAD DUP1 DUP5 MSTORE PUSH1 0x20 DUP5 ADD SWAP4 POP PUSH1 0x20 DUP4 ADD PUSH1 0x0 JUMPDEST DUP3 DUP2 LT ISZERO PUSH2 0x1FE8 JUMPI DUP2 MLOAD PUSH1 0x1 PUSH1 0x1 PUSH1 0xA0 SHL SUB AND DUP7 MSTORE PUSH1 0x20 SWAP6 DUP7 ADD SWAP6 SWAP1 SWAP2 ADD SWAP1 PUSH1 0x1 ADD PUSH2 0x1FC1 JUMP JUMPDEST POP SWAP4 SWAP5 SWAP4 POP POP POP POP JUMP JUMPDEST PUSH1 0x20 DUP2 MSTORE PUSH1 0x0 PUSH2 0x2005 PUSH1 0x20 DUP4 ADD DUP5 PUSH2 0x1FAD JUMP JUMPDEST SWAP4 SWAP3 POP POP POP JUMP JUMPDEST DUP1 CALLDATALOAD PUSH1 0x1 PUSH1 0x1 PUSH1 0xA0 SHL SUB DUP2 AND DUP2 EQ PUSH2 0x2023 JUMPI PUSH1 0x0 DUP1 REVERT JUMPDEST SWAP2 SWAP1 POP JUMP JUMPDEST PUSH1 0x0 DUP1 PUSH1 0x0 PUSH1 0x60 DUP5 DUP7 SUB SLT ISZERO PUSH2 0x203D JUMPI PUSH1 0x0 DUP1 REVERT JUMPDEST PUSH2 0x2046 DUP5 PUSH2 0x200C JUMP JUMPDEST SWAP6 PUSH1 0x20 DUP6 ADD CALLDATALOAD SWAP6 POP PUSH1 0x40 SWAP1 SWAP5 ADD CALLDATALOAD SWAP4 SWAP3 POP POP POP JUMP JUMPDEST PUSH1 0x0 PUSH1 0x20 DUP3 DUP5 SUB SLT ISZERO PUSH2 0x206D JUMPI PUSH1 0x0 DUP1 REVERT JUMPDEST PUSH2 0x2005 DUP3 PUSH2 0x200C JUMP JUMPDEST PUSH1 0x0 PUSH1 0x20 DUP3 DUP5 SUB SLT ISZERO PUSH2 0x2088 JUMPI PUSH1 0x0 DUP1 REVERT JUMPDEST POP CALLDATALOAD SWAP2 SWAP1 POP JUMP JUMPDEST PUSH1 0x0 DUP1 PUSH1 0x0 PUSH1 0x60 DUP5 DUP7 SUB SLT ISZERO PUSH2 0x20A4 JUMPI PUSH1 0x0 DUP1 REVERT JUMPDEST POP POP DUP2 CALLDATALOAD SWAP4 PUSH1 0x20 DUP4 ADD CALLDATALOAD SWAP4 POP PUSH1 0x40 SWAP1 SWAP3 ADD CALLDATALOAD SWAP2 SWAP1 POP JUMP JUMPDEST PUSH1 0x0 DUP1 PUSH1 0x40 DUP4 DUP6 SUB SLT ISZERO PUSH2 0x20CE JUMPI PUSH1 0x0 DUP1 REVERT JUMPDEST PUSH2 0x20D7 DUP4 PUSH2 0x200C JUMP JUMPDEST SWAP2 POP PUSH1 0x20 DUP4 ADD CALLDATALOAD DUP1 ISZERO ISZERO DUP2 EQ PUSH2 0x20EC JUMPI PUSH1 0x0 DUP1 REVERT JUMPDEST DUP1 SWAP2 POP POP SWAP3 POP SWAP3 SWAP1 POP JUMP JUMPDEST DUP1 MLOAD PUSH1 0x1 PUSH1 0x1 PUSH1 0xA0 SHL SUB SWAP1 DUP2 AND DUP4 MSTORE PUSH1 0x20 DUP1 DUP4 ADD MLOAD SWAP1 SWAP2 AND SWAP1 DUP4 ADD MSTORE PUSH1 0x40 DUP1 DUP3 ADD MLOAD SWAP1 DUP4 ADD MSTORE PUSH1 0x60 DUP1 DUP3 ADD MLOAD SWAP1 DUP4 ADD MSTORE PUSH1 0x80 DUP1 DUP3 ADD MLOAD SWAP1 DUP4 ADD MSTORE PUSH1 0xA0 DUP2 DUP2 ADD MLOAD SWAP1 DUP4 ADD MSTORE PUSH1 0xC0 SWAP1 DUP2 ADD MLOAD ISZERO ISZERO SWAP2 ADD MSTORE JUMP JUMPDEST PUSH1 0x20 DUP1 DUP3 MSTORE DUP3 MLOAD DUP3 DUP3 ADD DUP2 SWAP1 MSTORE PUSH1 0x0 SWAP2 DUP5 ADD SWAP1 PUSH1 0x40 DUP5 ADD SWAP1 DUP4 JUMPDEST DUP2 DUP2 LT ISZERO PUSH2 0x218B JUMPI PUSH2 0x2175 DUP4 DUP6 MLOAD PUSH2 0x20F7 JUMP JUMPDEST PUSH1 0x20 SWAP4 SWAP1 SWAP4 ADD SWAP3 PUSH1 0xE0 SWAP3 SWAP1 SWAP3 ADD SWAP2 PUSH1 0x1 ADD PUSH2 0x2162 JUMP JUMPDEST POP SWAP1 SWAP6 SWAP5 POP POP POP POP POP JUMP JUMPDEST PUSH1 0x40 DUP2 MSTORE PUSH1 0x0 PUSH2 0x21A9 PUSH1 0x40 DUP4 ADD DUP6 PUSH2 0x1FAD JUMP JUMPDEST DUP3 DUP2 SUB PUSH1 0x20 DUP5 ADD MSTORE DUP1 DUP5 MLOAD DUP1 DUP4 MSTORE PUSH1 0x20 DUP4 ADD SWAP2 POP PUSH1 0x20 DUP7 ADD SWAP3 POP PUSH1 0x0 JUMPDEST DUP2 DUP2 LT ISZERO PUSH2 0x21E4 JUMPI DUP4 MLOAD DUP4 MSTORE PUSH1 0x20 SWAP4 DUP5 ADD SWAP4 SWAP1 SWAP3 ADD SWAP2 PUSH1 0x1 ADD PUSH2 0x21C6 JUMP JUMPDEST POP SWAP1 SWAP7 SWAP6 POP POP POP POP POP POP JUMP JUMPDEST PUSH1 0x0 DUP1 PUSH1 0x40 DUP4 DUP6 SUB SLT ISZERO PUSH2 0x2203 JUMPI PUSH1 0x0 DUP1 REVERT JUMPDEST POP POP DUP1 CALLDATALOAD SWAP3 PUSH1 0x20 SWAP1 SWAP2 ADD CALLDATALOAD SWAP2 POP JUMP JUMPDEST PUSH1 0xE0 DUP2 ADD PUSH2 0x1C80 DUP3 DUP5 PUSH2 0x20F7 JUMP JUMPDEST PUSH4 0x4E487B71 PUSH1 0xE0 SHL PUSH1 0x0 MSTORE PUSH1 0x32 PUSH1 0x4 MSTORE PUSH1 0x24 PUSH1 0x0 REVERT JUMPDEST PUSH4 0x4E487B71 PUSH1 0xE0 SHL PUSH1 0x0 MSTORE PUSH1 0x11 PUSH1 0x4 MSTORE PUSH1 0x24 PUSH1 0x0 REVERT JUMPDEST PUSH1 0x0 PUSH1 0x1 DUP3 ADD PUSH2 0x225E JUMPI PUSH2 0x225E PUSH2 0x2236 JUMP JUMPDEST POP PUSH1 0x1 ADD SWAP1 JUMP JUMPDEST PUSH4 0x4E487B71 PUSH1 0xE0 SHL PUSH1 0x0 MSTORE PUSH1 0x41 PUSH1 0x4 MSTORE PUSH1 0x24 PUSH1 0x0 REVERT JUMPDEST PUSH1 0x0 PUSH1 0x20 DUP3 DUP5 SUB SLT ISZERO PUSH2 0x228D JUMPI PUSH1 0x0 DUP1 REVERT JUMPDEST POP MLOAD SWAP2 SWAP1 POP JUMP JUMPDEST DUP2 DUP2 SUB DUP2 DUP2 GT ISZERO PUSH2 0x1C80 JUMPI PUSH2 0x1C80 PUSH2 0x2236 JUMP JUMPDEST DUP1 DUP3 ADD DUP1 DUP3 GT ISZERO PUSH2 0x1C80 JUMPI PUSH2 0x1C80 PUSH2 0x2236 JUMP JUMPDEST PUSH1 0x20 DUP1 DUP3 MSTORE PUSH1 0x16 SWAP1 DUP3 ADD MSTORE PUSH22 0x2737BA103A34329031B7B73A3930B1BA1037BBB732B9 PUSH1 0x51 SHL PUSH1 0x40 DUP3 ADD MSTORE PUSH1 0x60 ADD SWAP1 JUMP JUMPDEST PUSH1 0x20 DUP1 DUP3 MSTORE PUSH1 0x12 SWAP1 DUP3 ADD MSTORE PUSH18 0x141BDCDA5D1A5BDB881B9BDD08199BDD5B99 PUSH1 0x72 SHL PUSH1 0x40 DUP3 ADD MSTORE PUSH1 0x60 ADD SWAP1 JUMP JUMPDEST PUSH1 0x0 DUP3 PUSH2 0x2333 JUMPI PUSH4 0x4E487B71 PUSH1 0xE0 SHL PUSH1 0x0 MSTORE PUSH1 0x12 PUSH1 0x4 MSTORE PUSH1 0x24 PUSH1 0x0 REVERT JUMPDEST POP DIV SWAP1 JUMP JUMPDEST PUSH1 0x20 DUP1 DUP3 MSTORE PUSH1 0x22 SWAP1 DUP3 ADD MSTORE PUSH32 0x496E73756666696369656E7420746F6B656E2062616C616E636520696E20706F PUSH1 0x40 DUP3 ADD MSTORE PUSH2 0x1BDB PUSH1 0xF2 SHL PUSH1 0x60 DUP3 ADD MSTORE PUSH1 0x80 ADD SWAP1 JUMP JUMPDEST PUSH1 0x0 DUP2 PUSH2 0x2389 JUMPI PUSH2 0x2389 PUSH2 0x2236 JUMP JUMPDEST POP PUSH1 0x0 NOT ADD SWAP1 JUMP JUMPDEST PUSH4 0x4E487B71 PUSH1 0xE0 SHL PUSH1 0x0 MSTORE PUSH1 0x31 PUSH1 0x4 MSTORE PUSH1 0x24 PUSH1 0x0 REVERT INVALID LOG2 PUSH5 0x6970667358 0x22 SLT KECCAK256 SLT 0xCC PUSH16 0x26C3BA50835D4B3331CB672B8AEB96B4 BLOBHASH 0xAE 0xC1 0x2B SWAP1 0x4F DUP4 0x2B EXTCODECOPY ADDRESS XOR SUB 0xE0 PUSH5 0x736F6C6343 STOP ADDMOD SHR STOP CALLER "},"methodIdentifiers":{"addAllowedTokens(address)":"171e44ea","calculateExpectedYield(uint256,uint256)":"b99732ee","deposit(address,uint256,uint256)":"0efe6a8b","getActivePositions()":"5fc75ec2","getAllowedTokens()":"024ece89","getMaxStakeDuration()":"76972999","getMinStakeDuration()":"0c5d13a2","getPosition(uint256)":"eb02c301","getTotalStakers()":"31ed0db4","getTotalValueLocked()":"b26025aa","getUserTokenBalances()":"864a65e5","getYieldRate()":"f1009899","getYieldToken()":"3b8dbc11","isTokenAllowed(address)":"f9eaee0d","modifyAllowedTokens(address,bool)":"5dd5999e","removeAllowedToken(address)":"90469a9d","unstake(uint256)":"2e17de78","updateYieldParameters(uint256,uint256,uint256)":"36c19428","withdraw(uint256)":"2e1a7d4d"}},"storageLayout":{"storage":[{"astId":1498,"contract":"contracts/YieldPool.sol:YieldPool","label":"_status","offset":0,"slot":"0","type":"t_uint256"},{"astId":2326,"contract":"contracts/YieldPool.sol:YieldPool","label":"yieldRate","offset":0,"slot":"1","type":"t_uint256"},{"astId":2331,"contract":"contracts/YieldPool.sol:YieldPool","label":"minDuration","offset":0,"slot":"2","type":"t_uint256"},{"astId":2333,"contract":"contracts/YieldPool.sol:YieldPool","label":"maxDuration","offset":0,"slot":"3","type":"t_uint256"},{"astId":2336,"contract":"contracts/YieldPool.sol:YieldPool","label":"yieldTokenV2","offset":0,"slot":"4","type":"t_contract(YieldToken)4224"},{"astId":2338,"contract":"contracts/YieldPool.sol:YieldPool","label":"totalStakers","offset":0,"slot":"5","type":"t_uint256"},{"astId":2340,"contract":"contracts/YieldPool.sol:YieldPool","label":"totalValueLocked","offset":0,"slot":"6","type":"t_uint256"},{"astId":2342,"contract":"contracts/YieldPool.sol:YieldPool","label":"nextPositionId","offset":0,"slot":"7","type":"t_uint256"},{"astId":2345,"contract":"contracts/YieldPool.sol:YieldPool","label":"allowedTokens","offset":0,"slot":"8","type":"t_array(t_address)dyn_storage"},{"astId":2348,"contract":"contracts/YieldPool.sol:YieldPool","label":"activeStakers","offset":0,"slot":"9","type":"t_array(t_address)dyn_storage"},{"astId":2352,"contract":"contracts/YieldPool.sol:YieldPool","label":"allowedTokensMap","offset":0,"slot":"10","type":"t_mapping(t_address,t_bool)"},{"astId":2356,"contract":"contracts/YieldPool.sol:YieldPool","label":"activePositionsCount","offset":0,"slot":"11","type":"t_mapping(t_address,t_uint256)"},{"astId":2360,"contract":"contracts/YieldPool.sol:YieldPool","label":"stakerIndex","offset":0,"slot":"12","type":"t_mapping(t_address,t_uint256)"},{"astId":2366,"contract":"contracts/YieldPool.sol:YieldPool","label":"userTokenBalance","offset":0,"slot":"13","type":"t_mapping(t_address,t_mapping(t_address,t_uint256))"},{"astId":2387,"contract":"contracts/YieldPool.sol:YieldPool","label":"positions","offset":0,"slot":"14","type":"t_mapping(t_address,t_array(t_struct(Position)2381_storage)dyn_storage)"},{"astId":2391,"contract":"contracts/YieldPool.sol:YieldPool","label":"positionOwners","offset":0,"slot":"15","type":"t_mapping(t_uint256,t_address)"},{"astId":2395,"contract":"contracts/YieldPool.sol:YieldPool","label":"owner","offset":0,"slot":"16","type":"t_address"}],"types":{"t_address":{"encoding":"inplace","label":"address","numberOfBytes":"20"},"t_array(t_address)dyn_storage":{"base":"t_address","encoding":"dynamic_array","label":"address[]","numberOfBytes":"32"},"t_array(t_struct(Position)2381_storage)dyn_storage":{"base":"t_struct(Position)2381_storage","encoding":"dynamic_array","label":"struct YieldPool.Position[]","numberOfBytes":"32"},"t_bool":{"encoding":"inplace","label":"bool","numberOfBytes":"1"},"t_contract(YieldToken)4224":{"encoding":"inplace","label":"contract YieldToken","numberOfBytes":"20"},"t_mapping(t_address,t_array(t_struct(Position)2381_storage)dyn_storage)":{"encoding":"mapping","key":"t_address","label":"mapping(address => struct YieldPool.Position[])","numberOfBytes":"32","value":"t_array(t_struct(Position)2381_storage)dyn_storage"},"t_mapping(t_address,t_bool)":{"encoding":"mapping","key":"t_address","label":"mapping(address => bool)","numberOfBytes":"32","value":"t_bool"},"t_mapping(t_address,t_mapping(t_address,t_uint256))":{"encoding":"mapping","key":"t_address","label":"mapping(address => mapping(address => uint256))","numberOfBytes":"32","value":"t_mapping(t_address,t_uint256)"},"t_mapping(t_address,t_uint256)":{"encoding":"mapping","key":"t_address","label":"mapping(address => uint256)","numberOfBytes":"32","value":"t_uint256"},"t_mapping(t_uint256,t_address)":{"encoding":"mapping","key":"t_uint256","label":"mapping(uint256 => address)","numberOfBytes":"32","value":"t_address"},"t_struct(Position)2381_storage":{"encoding":"inplace","label":"struct YieldPool.Position","members":[{"astId":2368,"contract":"contracts/YieldPool.sol:YieldPool","label":"positionAddress","offset":0,"slot":"0","type":"t_address"},{"astId":2370,"contract":"contracts/YieldPool.sol:YieldPool","label":"token","offset":0,"slot":"1","type":"t_address"},{"astId":2372,"contract":"contracts/YieldPool.sol:YieldPool","label":"id","offset":0,"slot":"2","type":"t_uint256"},{"astId":2374,"contract":"contracts/YieldPool.sol:YieldPool","label":"amount","offset":0,"slot":"3","type":"t_uint256"},{"astId":2376,"contract":"contracts/YieldPool.sol:YieldPool","label":"startTime","offset":0,"slot":"4","type":"t_uint256"},{"astId":2378,"contract":"contracts/YieldPool.sol:YieldPool","label":"lockDuration","offset":0,"slot":"5","type":"t_uint256"},{"astId":2380,"contract":"contracts/YieldPool.sol:YieldPool","label":"withdrawn","offset":0,"slot":"6","type":"t_bool"}],"numberOfBytes":"224"},"t_uint256":{"encoding":"inplace","label":"uint256","numberOfBytes":"32"}}}}}}