{"contracts/BorrowProtocol.sol":{"BorrowProtocol":{"abi":[{"inputs":[{"internalType":"address","name":"_yieldPoolAddress","type":"address"},{"internalType":"address","name":"_owner","type":"address"}],"stateMutability":"nonpayable","type":"constructor"},{"inputs":[{"internalType":"address","name":"owner","type":"address"}],"name":"OwnableInvalidOwner","type":"error"},{"inputs":[{"internalType":"address","name":"account","type":"address"}],"name":"OwnableUnauthorizedAccount","type":"error"},{"inputs":[],"name":"ReentrancyGuardReentrantCall","type":"error"},{"inputs":[{"internalType":"address","name":"token","type":"address"}],"name":"SafeERC20FailedOperation","type":"error"},{"anonymous":false,"inputs":[{"indexed":true,"internalType":"address","name":"user","type":"address"},{"indexed":true,"internalType":"address","name":"token","type":"address"},{"indexed":false,"internalType":"uint256","name":"amount","type":"uint256"}],"name":"CollateralDeposited","type":"event"},{"anonymous":false,"inputs":[{"indexed":true,"internalType":"address","name":"user","type":"address"},{"indexed":false,"internalType":"uint256","name":"loanId","type":"uint256"},{"indexed":false,"internalType":"uint256","name":"amount","type":"uint256"}],"name":"CollateralWithdrawn","type":"event"},{"anonymous":false,"inputs":[{"indexed":true,"internalType":"address","name":"user","type":"address"},{"indexed":false,"internalType":"uint256","name":"loanId","type":"uint256"},{"indexed":false,"internalType":"uint256","name":"amount","type":"uint256"},{"indexed":false,"internalType":"address","name":"token","type":"address"},{"indexed":false,"internalType":"uint256","name":"duration","type":"uint256"}],"name":"LoanCreated","type":"event"},{"anonymous":false,"inputs":[{"indexed":true,"internalType":"address","name":"user","type":"address"},{"indexed":false,"internalType":"uint256","name":"loanId","type":"uint256"},{"indexed":false,"internalType":"address","name":"liquidator","type":"address"}],"name":"LoanLiquidated","type":"event"},{"anonymous":false,"inputs":[{"indexed":true,"internalType":"address","name":"user","type":"address"},{"indexed":false,"internalType":"uint256","name":"loanId","type":"uint256"},{"indexed":false,"internalType":"uint256","name":"amount","type":"uint256"}],"name":"LoanRepaid","type":"event"},{"anonymous":false,"inputs":[{"indexed":true,"internalType":"address","name":"previousOwner","type":"address"},{"indexed":true,"internalType":"address","name":"newOwner","type":"address"}],"name":"OwnershipTransferred","type":"event"},{"inputs":[{"internalType":"address","name":"_collateralToken","type":"address"},{"internalType":"uint256","name":"_collateralAmount","type":"uint256"},{"internalType":"address","name":"_borrowToken","type":"address"},{"internalType":"uint256","name":"_borrowAmount","type":"uint256"},{"internalType":"uint256","name":"_duration","type":"uint256"},{"internalType":"uint256","name":"_interestRate","type":"uint256"}],"name":"Borrow","outputs":[],"stateMutability":"nonpayable","type":"function"},{"inputs":[{"internalType":"uint256","name":"_collateralAmount","type":"uint256"},{"internalType":"uint256","name":"_borrowAmount","type":"uint256"}],"name":"calculateHealthFactorSimulated","outputs":[{"internalType":"uint256","name":"","type":"uint256"}],"stateMutability":"pure","type":"function"},{"inputs":[{"internalType":"address","name":"user","type":"address"},{"internalType":"uint256","name":"loanId","type":"uint256"}],"name":"calculateTotalDue","outputs":[{"internalType":"uint256","name":"","type":"uint256"}],"stateMutability":"view","type":"function"},{"inputs":[],"name":"currentLoanId","outputs":[{"internalType":"uint256","name":"","type":"uint256"}],"stateMutability":"view","type":"function"},{"inputs":[{"internalType":"address","name":"token","type":"address"},{"internalType":"uint256","name":"amount","type":"uint256"}],"name":"fundPool","outputs":[],"stateMutability":"nonpayable","type":"function"},{"inputs":[],"name":"getMinHealthFactor","outputs":[{"internalType":"uint256","name":"","type":"uint256"}],"stateMutability":"view","type":"function"},{"inputs":[{"internalType":"address","name":"user","type":"address"}],"name":"getUserLoans","outputs":[{"components":[{"internalType":"uint256","name":"loanId","type":"uint256"},{"internalType":"uint256","name":"collateralAmount","type":"uint256"},{"internalType":"address","name":"collateralToken","type":"address"},{"internalType":"address","name":"borrowToken","type":"address"},{"internalType":"uint256","name":"borrowAmount","type":"uint256"},{"internalType":"uint256","name":"duration","type":"uint256"},{"internalType":"uint256","name":"startTime","type":"uint256"},{"internalType":"uint256","name":"interestRate","type":"uint256"},{"internalType":"address","name":"userAddress","type":"address"},{"internalType":"bool","name":"active","type":"bool"}],"internalType":"struct BorrowProtocol.Loan[]","name":"","type":"tuple[]"}],"stateMutability":"view","type":"function"},{"inputs":[{"internalType":"address","name":"user","type":"address"},{"internalType":"uint256","name":"loanId","type":"uint256"}],"name":"liquidate","outputs":[],"stateMutability":"nonpayable","type":"function"},{"inputs":[{"internalType":"address","name":"","type":"address"}],"name":"liquidationThresholds","outputs":[{"internalType":"uint256","name":"","type":"uint256"}],"stateMutability":"view","type":"function"},{"inputs":[],"name":"minHealthFactor","outputs":[{"internalType":"uint256","name":"","type":"uint256"}],"stateMutability":"view","type":"function"},{"inputs":[],"name":"minimumCollateralAmount","outputs":[{"internalType":"uint256","name":"","type":"uint256"}],"stateMutability":"view","type":"function"},{"inputs":[],"name":"minimumDuration","outputs":[{"internalType":"uint256","name":"","type":"uint256"}],"stateMutability":"view","type":"function"},{"inputs":[],"name":"owner","outputs":[{"internalType":"address","name":"","type":"address"}],"stateMutability":"view","type":"function"},{"inputs":[{"internalType":"uint256","name":"_loanId","type":"uint256"},{"internalType":"uint256","name":"_amount","type":"uint256"}],"name":"payLoan","outputs":[],"stateMutability":"nonpayable","type":"function"},{"inputs":[],"name":"renounceOwnership","outputs":[],"stateMutability":"nonpayable","type":"function"},{"inputs":[{"internalType":"address","name":"token","type":"address"},{"internalType":"uint256","name":"threshold","type":"uint256"}],"name":"setLiquidationThreshold","outputs":[],"stateMutability":"nonpayable","type":"function"},{"inputs":[{"internalType":"uint256","name":"_minimumCollateralAmount","type":"uint256"}],"name":"setMinCollateralAmount","outputs":[],"stateMutability":"nonpayable","type":"function"},{"inputs":[{"internalType":"uint256","name":"_minHealthFactor","type":"uint256"}],"name":"setMinHealthFactor","outputs":[],"stateMutability":"nonpayable","type":"function"},{"inputs":[{"internalType":"uint256","name":"_minimumDuration","type":"uint256"}],"name":"setMinimumDuration","outputs":[],"stateMutability":"nonpayable","type":"function"},{"inputs":[{"internalType":"address","name":"newOwner","type":"address"}],"name":"transferOwnership","outputs":[],"stateMutability":"nonpayable","type":"function"},{"inputs":[{"internalType":"address","name":"","type":"address"},{"internalType":"uint256","name":"","type":"uint256"}],"name":"userLoanIds","outputs":[{"internalType":"uint256","name":"","type":"uint256"}],"stateMutability":"view","type":"function"},{"inputs":[{"internalType":"address","name":"","type":"address"},{"internalType":"uint256","name":"","type":"uint256"}],"name":"userLoans","outputs":[{"internalType":"uint256","name":"loanId","type":"uint256"},{"internalType":"uint256","name":"collateralAmount","type":"uint256"},{"internalType":"address","name":"collateralToken","type":"address"},{"internalType":"address","name":"borrowToken","type":"address"},{"internalType":"uint256","name":"borrowAmount","type":"uint256"},{"internalType":"uint256","name":"duration","type":"uint256"},{"internalType":"uint256","name":"startTime","type":"uint256"},{"internalType":"uint256","name":"interestRate","type":"uint256"},{"internalType":"address","name":"userAddress","type":"address"},{"internalType":"bool","name":"active","type":"bool"}],"stateMutability":"view","type":"function"},{"inputs":[],"name":"yieldPool","outputs":[{"internalType":"contract IYieldPool","name":"","type":"address"}],"stateMutability":"view","type":"function"}],"evm":{"bytecode":{"linkReferences":{},"object":"60806040526096600655670de0b6b3a76400006007556201518060085534801561002857600080fd5b5060405161185838038061185883398101604081905261004791610119565b6001600055806001600160a01b03811661007b57604051631e4fbdf760e01b81526000600482015260240160405180910390fd5b610084816100ab565b5050600280546001600160a01b0319166001600160a01b039290921691909117905561014c565b600180546001600160a01b038381166001600160a01b0319831681179093556040519116919082907f8be0079c531659141344cd1fd0a4f28419497f9722a3daafe3b4186f6b6457e090600090a35050565b80516001600160a01b038116811461011457600080fd5b919050565b6000806040838503121561012c57600080fd5b610135836100fd565b9150610143602084016100fd565b90509250929050565b6116fd8061015b6000396000f3fe608060405234801561001057600080fd5b506004361061014d5760003560e01c806389306e61116100c3578063cd06b6e91161007c578063cd06b6e9146102b0578063d8bad5bd146102c3578063e1b4264c1461039b578063ed5ec648146103a4578063eee2518a146103b7578063f2fde38b146103c057600080fd5b806389306e61146102375780638c1ae6c81461024a5780638da5cb5b146102525780638f188dd414610277578063ae2ebc581461028a578063bcbaf4871461029d57600080fd5b8063461fbf5a11610115578063461fbf5a146101cd57806348defde3146101e05780634d5c11ee146101f3578063715018a614610206578063783274381461020e57806387f7d5bd1461022e57600080fd5b806301b08d581461015257806302bf321f146101675780630e30428d146101905780632bfd5146146101a35780633e3ee5a2146101b6575b600080fd5b610165610160366004611409565b6103d3565b005b61017a61017536600461143e565b6103e0565b6040516101879190611459565b60405180910390f35b61016561019e366004611540565b610613565b6101656101b1366004611540565b61068d565b6101bf60085481565b604051908152602001610187565b6101bf6101db36600461156a565b6106ae565b6101bf6101ee366004611540565b6106e0565b61016561020136600461158c565b610711565b610165610cce565b6101bf61021c36600461143e565b60046020526000908152604090205481565b6101bf60095481565b61016561024536600461156a565b610ce2565b6006546101bf565b6001546001600160a01b03165b6040516001600160a01b039091168152602001610187565b60025461025f906001600160a01b031681565b610165610298366004611409565b610f8a565b6101656102ab366004611540565b610f97565b6101bf6102be366004611540565b61117e565b6103406102d1366004611540565b60036020818152600093845260408085209091529183529120805460018201546002830154938301546004840154600585015460068601546007870154600890970154959794966001600160a01b0395861696948616959394929391929091811690600160a01b900460ff168a565b604080519a8b5260208b01999099526001600160a01b03978816988a01989098529486166060890152608088019390935260a087019190915260c086015260e085015216610100830152151561012082015261014001610187565b6101bf60065481565b6101656103b2366004611409565b611201565b6101bf60075481565b6101656103ce36600461143e565b61120e565b6103db61124c565b600655565b6001600160a01b038116600090815260056020908152604080832080548251818502810185019093528083526060949383018282801561043f57602002820191906000526020600020905b81548152602001906001019080831161042b575b505050505090506000815167ffffffffffffffff811115610462576104626115e4565b60405190808252806020026020018201604052801561050657816020015b6104f3604051806101400160405280600081526020016000815260200160006001600160a01b0316815260200160006001600160a01b031681526020016000815260200160008152602001600081526020016000815260200160006001600160a01b031681526020016000151581525090565b8152602001906001900390816104805790505b50905060005b825181101561060b576001600160a01b03851660009081526003602052604081208451909190859084908110610544576105446115fa565b60209081029190910181015182528181019290925260409081016000208151610140810183528154815260018201549381019390935260028101546001600160a01b039081169284019290925260038101548216606084015260048101546080840152600581015460a0840152600681015460c0840152600781015460e084015260080154908116610100830152600160a01b900460ff16151561012082015282518390839081106105f8576105f86115fa565b602090810291909101015260010161050c565b509392505050565b61061b61124c565b60648111156106715760405162461bcd60e51b815260206004820152601960248201527f5468726573686f6c64206d757374206265203c3d20313030250000000000000060448201526064015b60405180910390fd5b6001600160a01b03909116600090815260046020526040902055565b61069561124c565b6106aa6001600160a01b038316333084611279565b5050565b6000816000036106c157506000196106da565b816106cd846064611626565b6106d7919061163d565b90505b92915050565b600560205281600052604060002081815481106106fc57600080fd5b90600052602060002001600091509150505481565b6107196112e6565b60025460405163f9eaee0d60e01b81526001600160a01b0388811660048301529091169063f9eaee0d90602401602060405180830381865afa158015610763573d6000803e3d6000fd5b505050506040513d601f19601f82011682018060405250810190610787919061165f565b6107d35760405162461bcd60e51b815260206004820152601b60248201527f636f6c6c61746572616c546f6b656e206e6f7420616c6c6f77656400000000006044820152606401610668565b60025460405163f9eaee0d60e01b81526001600160a01b0386811660048301529091169063f9eaee0d90602401602060405180830381865afa15801561081d573d6000803e3d6000fd5b505050506040513d601f19601f82011682018060405250810190610841919061165f565b61088d5760405162461bcd60e51b815260206004820152601760248201527f626f72726f77546f6b656e206e6f7420616c6c6f7765640000000000000000006044820152606401610668565b600081116108d55760405162461bcd60e51b8152602060048201526015602482015274696e76616c696420696e746572657374207261746560581b6044820152606401610668565b60075485101561091c5760405162461bcd60e51b8152602060048201526012602482015271636f6c6c61746572616c20746f6f206c6f7760701b6044820152606401610668565b600083116109615760405162461bcd60e51b81526020600482015260126024820152710626f72726f7720616d6f756e7420697320360741b6044820152606401610668565b6008548210156109a85760405162461bcd60e51b8152602060048201526012602482015271191d5c985d1a5bdb881d1bdbc81cda1bdc9d60721b6044820152606401610668565b60006109b486856106ae565b9050600654811015610a005760405162461bcd60e51b81526020600482015260156024820152744865616c746820666163746f7220746f6f206c6f7760581b6044820152606401610668565b610a156001600160a01b038816333089611279565b610a296001600160a01b0386163386611310565b6009805460009182610a3a83611688565b91905055905060006040518061014001604052808381526020018981526020018a6001600160a01b03168152602001886001600160a01b03168152602001878152602001868152602001428152602001858152602001336001600160a01b0316815260200160011515815250905060056000336001600160a01b03166001600160a01b031681526020019081526020016000208290806001815401808255809150506001900390600052602060002001600090919091909150558060036000336001600160a01b03166001600160a01b031681526020019081526020016000206000848152602001908152602001600020600082015181600001556020820151816001015560408201518160020160006101000a8154816001600160a01b0302191690836001600160a01b0316021790555060608201518160030160006101000a8154816001600160a01b0302191690836001600160a01b031602179055506080820151816004015560a0820151816005015560c0820151816006015560e082015181600701556101008201518160080160006101000a8154816001600160a01b0302191690836001600160a01b031602179055506101208201518160080160146101000a81548160ff021916908315150217905550905050336001600160a01b03167f3b2b81666fe526902fa85ba380549dd59f155d7258e132ec0bb898f26ede3d2083888a89604051610c71949392919093845260208401929092526001600160a01b03166040830152606082015260800190565b60405180910390a26040518881526001600160a01b038a169033907ff1c0dd7e9b98bbff859029005ef89b127af049cd18df1a8d79f0b7e019911e569060200160405180910390a3505050610cc66001600055565b505050505050565b610cd661124c565b610ce06000611346565b565b610cea6112e6565b336000908152600360209081526040808320858452909152902080548314610d455760405162461bcd60e51b815260206004820152600e60248201526d131bd85b881b9bdd08199bdd5b9960921b6044820152606401610668565b6008810154600160a01b900460ff16610d955760405162461bcd60e51b81526020600482015260126024820152714c6f616e206973206e6f742061637469766560701b6044820152606401610668565b80600501548160060154610da991906116a1565b421115610de75760405162461bcd60e51b815260206004820152600c60248201526b131bd85b88195e1c1a5c995960a21b6044820152606401610668565b6000610df3338561117e565b9050808310610ecc576003820154610e16906001600160a01b0316333084611279565b60088201805460ff60a01b1916905560018201546002830154610e46916001600160a01b03909116903390611310565b604080518581526020810183905233917fc7ce0a35f17b490de2a317e7fecb2cae86b1abffb03800b2f492823521382698910160405180910390a2600182015460405133917fdaed309a628faec6cab72194019e2a1a34e890ca9bf9be99788992dd5469281991610ebf91888252602082015260400190565b60405180910390a2610f7e565b6003820154610ee6906001600160a01b0316333086611279565b81600401548311610f105782826004016000828254610f0591906116b4565b90915550610f429050565b6004820154610f1f90826116b4565b610f2990846116b4565b826004016000828254610f3c91906116b4565b90915550505b604080518581526020810185905233917fc7ce0a35f17b490de2a317e7fecb2cae86b1abffb03800b2f492823521382698910160405180910390a25b50506106aa6001600055565b610f9261124c565b600755565b610f9f6112e6565b6001600160a01b038216600090815260036020908152604080832084845290915290206008810154600160a01b900460ff166110125760405162461bcd60e51b81526020600482015260126024820152714c6f616e206973206e6f742061637469766560701b6044820152606401610668565b60028101546001600160a01b03166000908152600460205260409020548061107c5760405162461bcd60e51b815260206004820152601d60248201527f4c69717569646174696f6e207468726573686f6c64206e6f74207365740000006044820152606401610668565b6000611088858561117e565b9050600061109a8460010154836106ae565b90508281106110fd5760405162461bcd60e51b815260206004820152602960248201527f4865616c746820666163746f722061626f7665206c69717569646174696f6e206044820152681d1a1c995cda1bdb1960ba1b6064820152608401610668565b60088401805460ff60a01b191690556001840154600285015461112d916001600160a01b03909116903390611310565b604080518681523360208201526001600160a01b038816917fde21b2a43b0a2c2109c049fb1e4bb8653fd67d0ffd74fdcb662db381f1eeab38910160405180910390a2505050506106aa6001600055565b6001600160a01b03821660009081526003602090815260408083208484529091528120600681015482906111b290426116b4565b9050600064496cebb80082846007015485600401546111d19190611626565b6111db9190611626565b6111e5919061163d565b90508083600401546111f791906116a1565b9695505050505050565b61120961124c565b600855565b61121661124c565b6001600160a01b03811661124057604051631e4fbdf760e01b815260006004820152602401610668565b61124981611346565b50565b6001546001600160a01b03163314610ce05760405163118cdaa760e01b8152336004820152602401610668565b6040516001600160a01b0384811660248301528381166044830152606482018390526112e09186918216906323b872dd906084015b604051602081830303815290604052915060e01b6020820180516001600160e01b038381831617835250505050611398565b50505050565b60026000540361130957604051633ee5aeb560e01b815260040160405180910390fd5b6002600055565b6040516001600160a01b0383811660248301526044820183905261134191859182169063a9059cbb906064016112ae565b505050565b600180546001600160a01b038381166001600160a01b0319831681179093556040519116919082907f8be0079c531659141344cd1fd0a4f28419497f9722a3daafe3b4186f6b6457e090600090a35050565b600080602060008451602086016000885af1806113bb576040513d6000823e3d81fd5b50506000513d915081156113d35780600114156113e0565b6001600160a01b0384163b155b156112e057604051635274afe760e01b81526001600160a01b0385166004820152602401610668565b60006020828403121561141b57600080fd5b5035919050565b80356001600160a01b038116811461143957600080fd5b919050565b60006020828403121561145057600080fd5b6106d782611422565b602080825282518282018190526000918401906040840190835b81811015611535578351805184526020810151602085015260408101516114a560408601826001600160a01b03169052565b5060608101516114c060608601826001600160a01b03169052565b506080810151608085015260a081015160a085015260c081015160c085015260e081015160e08501526101008101516115056101008601826001600160a01b03169052565b50610120810151905061151d61012085018215159052565b50602093909301926101409290920191600101611473565b509095945050505050565b6000806040838503121561155357600080fd5b61155c83611422565b946020939093013593505050565b6000806040838503121561157d57600080fd5b50508035926020909101359150565b60008060008060008060c087890312156115a557600080fd5b6115ae87611422565b9550602087013594506115c360408801611422565b959894975094956060810135955060808101359460a0909101359350915050565b634e487b7160e01b600052604160045260246000fd5b634e487b7160e01b600052603260045260246000fd5b634e487b7160e01b600052601160045260246000fd5b80820281158282048414176106da576106da611610565b60008261165a57634e487b7160e01b600052601260045260246000fd5b500490565b60006020828403121561167157600080fd5b8151801515811461168157600080fd5b9392505050565b60006001820161169a5761169a611610565b5060010190565b808201808211156106da576106da611610565b818103818111156106da576106da61161056fea264697066735822122033e4f232ec7d1efdd70eb1544eb615b43fa6e877c06c7547b7047add8bad982b64736f6c634300081c0033","opcodes":"PUSH1 0x80 PUSH1 0x40 MSTORE PUSH1 0x96 PUSH1 0x6 SSTORE PUSH8 0xDE0B6B3A7640000 PUSH1 0x7 SSTORE PUSH3 0x15180 PUSH1 0x8 SSTORE CALLVALUE DUP1 ISZERO PUSH2 0x28 JUMPI PUSH1 0x0 DUP1 REVERT JUMPDEST POP PUSH1 0x40 MLOAD PUSH2 0x1858 CODESIZE SUB DUP1 PUSH2 0x1858 DUP4 CODECOPY DUP2 ADD PUSH1 0x40 DUP2 SWAP1 MSTORE PUSH2 0x47 SWAP2 PUSH2 0x119 JUMP JUMPDEST PUSH1 0x1 PUSH1 0x0 SSTORE DUP1 PUSH1 0x1 PUSH1 0x1 PUSH1 0xA0 SHL SUB DUP2 AND PUSH2 0x7B JUMPI PUSH1 0x40 MLOAD PUSH4 0x1E4FBDF7 PUSH1 0xE0 SHL DUP2 MSTORE PUSH1 0x0 PUSH1 0x4 DUP3 ADD MSTORE PUSH1 0x24 ADD PUSH1 0x40 MLOAD DUP1 SWAP2 SUB SWAP1 REVERT JUMPDEST PUSH2 0x84 DUP2 PUSH2 0xAB JUMP JUMPDEST POP POP PUSH1 0x2 DUP1 SLOAD PUSH1 0x1 PUSH1 0x1 PUSH1 0xA0 SHL SUB NOT AND PUSH1 0x1 PUSH1 0x1 PUSH1 0xA0 SHL SUB SWAP3 SWAP1 SWAP3 AND SWAP2 SWAP1 SWAP2 OR SWAP1 SSTORE PUSH2 0x14C JUMP JUMPDEST PUSH1 0x1 DUP1 SLOAD PUSH1 0x1 PUSH1 0x1 PUSH1 0xA0 SHL SUB DUP4 DUP2 AND PUSH1 0x1 PUSH1 0x1 PUSH1 0xA0 SHL SUB NOT DUP4 AND DUP2 OR SWAP1 SWAP4 SSTORE PUSH1 0x40 MLOAD SWAP2 AND SWAP2 SWAP1 DUP3 SWAP1 PUSH32 0x8BE0079C531659141344CD1FD0A4F28419497F9722A3DAAFE3B4186F6B6457E0 SWAP1 PUSH1 0x0 SWAP1 LOG3 POP POP JUMP JUMPDEST DUP1 MLOAD PUSH1 0x1 PUSH1 0x1 PUSH1 0xA0 SHL SUB DUP2 AND DUP2 EQ PUSH2 0x114 JUMPI PUSH1 0x0 DUP1 REVERT JUMPDEST SWAP2 SWAP1 POP JUMP JUMPDEST PUSH1 0x0 DUP1 PUSH1 0x40 DUP4 DUP6 SUB SLT ISZERO PUSH2 0x12C JUMPI PUSH1 0x0 DUP1 REVERT JUMPDEST PUSH2 0x135 DUP4 PUSH2 0xFD JUMP JUMPDEST SWAP2 POP PUSH2 0x143 PUSH1 0x20 DUP5 ADD PUSH2 0xFD JUMP JUMPDEST SWAP1 POP SWAP3 POP SWAP3 SWAP1 POP JUMP JUMPDEST PUSH2 0x16FD DUP1 PUSH2 0x15B PUSH1 0x0 CODECOPY PUSH1 0x0 RETURN INVALID PUSH1 0x80 PUSH1 0x40 MSTORE CALLVALUE DUP1 ISZERO PUSH2 0x10 JUMPI PUSH1 0x0 DUP1 REVERT JUMPDEST POP PUSH1 0x4 CALLDATASIZE LT PUSH2 0x14D JUMPI PUSH1 0x0 CALLDATALOAD PUSH1 0xE0 SHR DUP1 PUSH4 0x89306E61 GT PUSH2 0xC3 JUMPI DUP1 PUSH4 0xCD06B6E9 GT PUSH2 0x7C JUMPI DUP1 PUSH4 0xCD06B6E9 EQ PUSH2 0x2B0 JUMPI DUP1 PUSH4 0xD8BAD5BD EQ PUSH2 0x2C3 JUMPI DUP1 PUSH4 0xE1B4264C EQ PUSH2 0x39B JUMPI DUP1 PUSH4 0xED5EC648 EQ PUSH2 0x3A4 JUMPI DUP1 PUSH4 0xEEE2518A EQ PUSH2 0x3B7 JUMPI DUP1 PUSH4 0xF2FDE38B EQ PUSH2 0x3C0 JUMPI PUSH1 0x0 DUP1 REVERT JUMPDEST DUP1 PUSH4 0x89306E61 EQ PUSH2 0x237 JUMPI DUP1 PUSH4 0x8C1AE6C8 EQ PUSH2 0x24A JUMPI DUP1 PUSH4 0x8DA5CB5B EQ PUSH2 0x252 JUMPI DUP1 PUSH4 0x8F188DD4 EQ PUSH2 0x277 JUMPI DUP1 PUSH4 0xAE2EBC58 EQ PUSH2 0x28A JUMPI DUP1 PUSH4 0xBCBAF487 EQ PUSH2 0x29D JUMPI PUSH1 0x0 DUP1 REVERT JUMPDEST DUP1 PUSH4 0x461FBF5A GT PUSH2 0x115 JUMPI DUP1 PUSH4 0x461FBF5A EQ PUSH2 0x1CD JUMPI DUP1 PUSH4 0x48DEFDE3 EQ PUSH2 0x1E0 JUMPI DUP1 PUSH4 0x4D5C11EE EQ PUSH2 0x1F3 JUMPI DUP1 PUSH4 0x715018A6 EQ PUSH2 0x206 JUMPI DUP1 PUSH4 0x78327438 EQ PUSH2 0x20E JUMPI DUP1 PUSH4 0x87F7D5BD EQ PUSH2 0x22E JUMPI PUSH1 0x0 DUP1 REVERT JUMPDEST DUP1 PUSH4 0x1B08D58 EQ PUSH2 0x152 JUMPI DUP1 PUSH4 0x2BF321F EQ PUSH2 0x167 JUMPI DUP1 PUSH4 0xE30428D EQ PUSH2 0x190 JUMPI DUP1 PUSH4 0x2BFD5146 EQ PUSH2 0x1A3 JUMPI DUP1 PUSH4 0x3E3EE5A2 EQ PUSH2 0x1B6 JUMPI JUMPDEST PUSH1 0x0 DUP1 REVERT JUMPDEST PUSH2 0x165 PUSH2 0x160 CALLDATASIZE PUSH1 0x4 PUSH2 0x1409 JUMP JUMPDEST PUSH2 0x3D3 JUMP JUMPDEST STOP JUMPDEST PUSH2 0x17A PUSH2 0x175 CALLDATASIZE PUSH1 0x4 PUSH2 0x143E JUMP JUMPDEST PUSH2 0x3E0 JUMP JUMPDEST PUSH1 0x40 MLOAD PUSH2 0x187 SWAP2 SWAP1 PUSH2 0x1459 JUMP JUMPDEST PUSH1 0x40 MLOAD DUP1 SWAP2 SUB SWAP1 RETURN JUMPDEST PUSH2 0x165 PUSH2 0x19E CALLDATASIZE PUSH1 0x4 PUSH2 0x1540 JUMP JUMPDEST PUSH2 0x613 JUMP JUMPDEST PUSH2 0x165 PUSH2 0x1B1 CALLDATASIZE PUSH1 0x4 PUSH2 0x1540 JUMP JUMPDEST PUSH2 0x68D JUMP JUMPDEST PUSH2 0x1BF PUSH1 0x8 SLOAD DUP2 JUMP JUMPDEST PUSH1 0x40 MLOAD SWAP1 DUP2 MSTORE PUSH1 0x20 ADD PUSH2 0x187 JUMP JUMPDEST PUSH2 0x1BF PUSH2 0x1DB CALLDATASIZE PUSH1 0x4 PUSH2 0x156A JUMP JUMPDEST PUSH2 0x6AE JUMP JUMPDEST PUSH2 0x1BF PUSH2 0x1EE CALLDATASIZE PUSH1 0x4 PUSH2 0x1540 JUMP JUMPDEST PUSH2 0x6E0 JUMP JUMPDEST PUSH2 0x165 PUSH2 0x201 CALLDATASIZE PUSH1 0x4 PUSH2 0x158C JUMP JUMPDEST PUSH2 0x711 JUMP JUMPDEST PUSH2 0x165 PUSH2 0xCCE JUMP JUMPDEST PUSH2 0x1BF PUSH2 0x21C CALLDATASIZE PUSH1 0x4 PUSH2 0x143E JUMP JUMPDEST PUSH1 0x4 PUSH1 0x20 MSTORE PUSH1 0x0 SWAP1 DUP2 MSTORE PUSH1 0x40 SWAP1 KECCAK256 SLOAD DUP2 JUMP JUMPDEST PUSH2 0x1BF PUSH1 0x9 SLOAD DUP2 JUMP JUMPDEST PUSH2 0x165 PUSH2 0x245 CALLDATASIZE PUSH1 0x4 PUSH2 0x156A JUMP JUMPDEST PUSH2 0xCE2 JUMP JUMPDEST PUSH1 0x6 SLOAD PUSH2 0x1BF JUMP JUMPDEST PUSH1 0x1 SLOAD PUSH1 0x1 PUSH1 0x1 PUSH1 0xA0 SHL SUB AND JUMPDEST PUSH1 0x40 MLOAD PUSH1 0x1 PUSH1 0x1 PUSH1 0xA0 SHL SUB SWAP1 SWAP2 AND DUP2 MSTORE PUSH1 0x20 ADD PUSH2 0x187 JUMP JUMPDEST PUSH1 0x2 SLOAD PUSH2 0x25F SWAP1 PUSH1 0x1 PUSH1 0x1 PUSH1 0xA0 SHL SUB AND DUP2 JUMP JUMPDEST PUSH2 0x165 PUSH2 0x298 CALLDATASIZE PUSH1 0x4 PUSH2 0x1409 JUMP JUMPDEST PUSH2 0xF8A JUMP JUMPDEST PUSH2 0x165 PUSH2 0x2AB CALLDATASIZE PUSH1 0x4 PUSH2 0x1540 JUMP JUMPDEST PUSH2 0xF97 JUMP JUMPDEST PUSH2 0x1BF PUSH2 0x2BE CALLDATASIZE PUSH1 0x4 PUSH2 0x1540 JUMP JUMPDEST PUSH2 0x117E JUMP JUMPDEST PUSH2 0x340 PUSH2 0x2D1 CALLDATASIZE PUSH1 0x4 PUSH2 0x1540 JUMP JUMPDEST PUSH1 0x3 PUSH1 0x20 DUP2 DUP2 MSTORE PUSH1 0x0 SWAP4 DUP5 MSTORE PUSH1 0x40 DUP1 DUP6 KECCAK256 SWAP1 SWAP2 MSTORE SWAP2 DUP4 MSTORE SWAP2 KECCAK256 DUP1 SLOAD PUSH1 0x1 DUP3 ADD SLOAD PUSH1 0x2 DUP4 ADD SLOAD SWAP4 DUP4 ADD SLOAD PUSH1 0x4 DUP5 ADD SLOAD PUSH1 0x5 DUP6 ADD SLOAD PUSH1 0x6 DUP7 ADD SLOAD PUSH1 0x7 DUP8 ADD SLOAD PUSH1 0x8 SWAP1 SWAP8 ADD SLOAD SWAP6 SWAP8 SWAP5 SWAP7 PUSH1 0x1 PUSH1 0x1 PUSH1 0xA0 SHL SUB SWAP6 DUP7 AND SWAP7 SWAP5 DUP7 AND SWAP6 SWAP4 SWAP5 SWAP3 SWAP4 SWAP2 SWAP3 SWAP1 SWAP2 DUP2 AND SWAP1 PUSH1 0x1 PUSH1 0xA0 SHL SWAP1 DIV PUSH1 0xFF AND DUP11 JUMP JUMPDEST PUSH1 0x40 DUP1 MLOAD SWAP11 DUP12 MSTORE PUSH1 0x20 DUP12 ADD SWAP10 SWAP1 SWAP10 MSTORE PUSH1 0x1 PUSH1 0x1 PUSH1 0xA0 SHL SUB SWAP8 DUP9 AND SWAP9 DUP11 ADD SWAP9 SWAP1 SWAP9 MSTORE SWAP5 DUP7 AND PUSH1 0x60 DUP10 ADD MSTORE PUSH1 0x80 DUP9 ADD SWAP4 SWAP1 SWAP4 MSTORE PUSH1 0xA0 DUP8 ADD SWAP2 SWAP1 SWAP2 MSTORE PUSH1 0xC0 DUP7 ADD MSTORE PUSH1 0xE0 DUP6 ADD MSTORE AND PUSH2 0x100 DUP4 ADD MSTORE ISZERO ISZERO PUSH2 0x120 DUP3 ADD MSTORE PUSH2 0x140 ADD PUSH2 0x187 JUMP JUMPDEST PUSH2 0x1BF PUSH1 0x6 SLOAD DUP2 JUMP JUMPDEST PUSH2 0x165 PUSH2 0x3B2 CALLDATASIZE PUSH1 0x4 PUSH2 0x1409 JUMP JUMPDEST PUSH2 0x1201 JUMP JUMPDEST PUSH2 0x1BF PUSH1 0x7 SLOAD DUP2 JUMP JUMPDEST PUSH2 0x165 PUSH2 0x3CE CALLDATASIZE PUSH1 0x4 PUSH2 0x143E JUMP JUMPDEST PUSH2 0x120E JUMP JUMPDEST PUSH2 0x3DB PUSH2 0x124C JUMP JUMPDEST PUSH1 0x6 SSTORE JUMP JUMPDEST PUSH1 0x1 PUSH1 0x1 PUSH1 0xA0 SHL SUB DUP2 AND PUSH1 0x0 SWAP1 DUP2 MSTORE PUSH1 0x5 PUSH1 0x20 SWAP1 DUP2 MSTORE PUSH1 0x40 DUP1 DUP4 KECCAK256 DUP1 SLOAD DUP3 MLOAD DUP2 DUP6 MUL DUP2 ADD DUP6 ADD SWAP1 SWAP4 MSTORE DUP1 DUP4 MSTORE PUSH1 0x60 SWAP5 SWAP4 DUP4 ADD DUP3 DUP3 DUP1 ISZERO PUSH2 0x43F JUMPI PUSH1 0x20 MUL DUP3 ADD SWAP2 SWAP1 PUSH1 0x0 MSTORE PUSH1 0x20 PUSH1 0x0 KECCAK256 SWAP1 JUMPDEST DUP2 SLOAD DUP2 MSTORE PUSH1 0x20 ADD SWAP1 PUSH1 0x1 ADD SWAP1 DUP1 DUP4 GT PUSH2 0x42B JUMPI JUMPDEST POP POP POP POP POP SWAP1 POP PUSH1 0x0 DUP2 MLOAD PUSH8 0xFFFFFFFFFFFFFFFF DUP2 GT ISZERO PUSH2 0x462 JUMPI PUSH2 0x462 PUSH2 0x15E4 JUMP JUMPDEST PUSH1 0x40 MLOAD SWAP1 DUP1 DUP3 MSTORE DUP1 PUSH1 0x20 MUL PUSH1 0x20 ADD DUP3 ADD PUSH1 0x40 MSTORE DUP1 ISZERO PUSH2 0x506 JUMPI DUP2 PUSH1 0x20 ADD JUMPDEST PUSH2 0x4F3 PUSH1 0x40 MLOAD DUP1 PUSH2 0x140 ADD PUSH1 0x40 MSTORE DUP1 PUSH1 0x0 DUP2 MSTORE PUSH1 0x20 ADD PUSH1 0x0 DUP2 MSTORE PUSH1 0x20 ADD PUSH1 0x0 PUSH1 0x1 PUSH1 0x1 PUSH1 0xA0 SHL SUB AND DUP2 MSTORE PUSH1 0x20 ADD PUSH1 0x0 PUSH1 0x1 PUSH1 0x1 PUSH1 0xA0 SHL SUB AND DUP2 MSTORE PUSH1 0x20 ADD PUSH1 0x0 DUP2 MSTORE PUSH1 0x20 ADD PUSH1 0x0 DUP2 MSTORE PUSH1 0x20 ADD PUSH1 0x0 DUP2 MSTORE PUSH1 0x20 ADD PUSH1 0x0 DUP2 MSTORE PUSH1 0x20 ADD PUSH1 0x0 PUSH1 0x1 PUSH1 0x1 PUSH1 0xA0 SHL SUB AND DUP2 MSTORE PUSH1 0x20 ADD PUSH1 0x0 ISZERO ISZERO DUP2 MSTORE POP SWAP1 JUMP JUMPDEST DUP2 MSTORE PUSH1 0x20 ADD SWAP1 PUSH1 0x1 SWAP1 SUB SWAP1 DUP2 PUSH2 0x480 JUMPI SWAP1 POP JUMPDEST POP SWAP1 POP PUSH1 0x0 JUMPDEST DUP3 MLOAD DUP2 LT ISZERO PUSH2 0x60B JUMPI PUSH1 0x1 PUSH1 0x1 PUSH1 0xA0 SHL SUB DUP6 AND PUSH1 0x0 SWAP1 DUP2 MSTORE PUSH1 0x3 PUSH1 0x20 MSTORE PUSH1 0x40 DUP2 KECCAK256 DUP5 MLOAD SWAP1 SWAP2 SWAP1 DUP6 SWAP1 DUP5 SWAP1 DUP2 LT PUSH2 0x544 JUMPI PUSH2 0x544 PUSH2 0x15FA JUMP JUMPDEST PUSH1 0x20 SWAP1 DUP2 MUL SWAP2 SWAP1 SWAP2 ADD DUP2 ADD MLOAD DUP3 MSTORE DUP2 DUP2 ADD SWAP3 SWAP1 SWAP3 MSTORE PUSH1 0x40 SWAP1 DUP2 ADD PUSH1 0x0 KECCAK256 DUP2 MLOAD PUSH2 0x140 DUP2 ADD DUP4 MSTORE DUP2 SLOAD DUP2 MSTORE PUSH1 0x1 DUP3 ADD SLOAD SWAP4 DUP2 ADD SWAP4 SWAP1 SWAP4 MSTORE PUSH1 0x2 DUP2 ADD SLOAD PUSH1 0x1 PUSH1 0x1 PUSH1 0xA0 SHL SUB SWAP1 DUP2 AND SWAP3 DUP5 ADD SWAP3 SWAP1 SWAP3 MSTORE PUSH1 0x3 DUP2 ADD SLOAD DUP3 AND PUSH1 0x60 DUP5 ADD MSTORE PUSH1 0x4 DUP2 ADD SLOAD PUSH1 0x80 DUP5 ADD MSTORE PUSH1 0x5 DUP2 ADD SLOAD PUSH1 0xA0 DUP5 ADD MSTORE PUSH1 0x6 DUP2 ADD SLOAD PUSH1 0xC0 DUP5 ADD MSTORE PUSH1 0x7 DUP2 ADD SLOAD PUSH1 0xE0 DUP5 ADD MSTORE PUSH1 0x8 ADD SLOAD SWAP1 DUP2 AND PUSH2 0x100 DUP4 ADD MSTORE PUSH1 0x1 PUSH1 0xA0 SHL SWAP1 DIV PUSH1 0xFF AND ISZERO ISZERO PUSH2 0x120 DUP3 ADD MSTORE DUP3 MLOAD DUP4 SWAP1 DUP4 SWAP1 DUP2 LT PUSH2 0x5F8 JUMPI PUSH2 0x5F8 PUSH2 0x15FA JUMP JUMPDEST PUSH1 0x20 SWAP1 DUP2 MUL SWAP2 SWAP1 SWAP2 ADD ADD MSTORE PUSH1 0x1 ADD PUSH2 0x50C JUMP JUMPDEST POP SWAP4 SWAP3 POP POP POP JUMP JUMPDEST PUSH2 0x61B PUSH2 0x124C JUMP JUMPDEST PUSH1 0x64 DUP2 GT ISZERO PUSH2 0x671 JUMPI PUSH1 0x40 MLOAD PUSH3 0x461BCD PUSH1 0xE5 SHL DUP2 MSTORE PUSH1 0x20 PUSH1 0x4 DUP3 ADD MSTORE PUSH1 0x19 PUSH1 0x24 DUP3 ADD MSTORE PUSH32 0x5468726573686F6C64206D757374206265203C3D203130302500000000000000 PUSH1 0x44 DUP3 ADD MSTORE PUSH1 0x64 ADD JUMPDEST PUSH1 0x40 MLOAD DUP1 SWAP2 SUB SWAP1 REVERT JUMPDEST PUSH1 0x1 PUSH1 0x1 PUSH1 0xA0 SHL SUB SWAP1 SWAP2 AND PUSH1 0x0 SWAP1 DUP2 MSTORE PUSH1 0x4 PUSH1 0x20 MSTORE PUSH1 0x40 SWAP1 KECCAK256 SSTORE JUMP JUMPDEST PUSH2 0x695 PUSH2 0x124C JUMP JUMPDEST PUSH2 0x6AA PUSH1 0x1 PUSH1 0x1 PUSH1 0xA0 SHL SUB DUP4 AND CALLER ADDRESS DUP5 PUSH2 0x1279 JUMP JUMPDEST POP POP JUMP JUMPDEST PUSH1 0x0 DUP2 PUSH1 0x0 SUB PUSH2 0x6C1 JUMPI POP PUSH1 0x0 NOT PUSH2 0x6DA JUMP JUMPDEST DUP2 PUSH2 0x6CD DUP5 PUSH1 0x64 PUSH2 0x1626 JUMP JUMPDEST PUSH2 0x6D7 SWAP2 SWAP1 PUSH2 0x163D JUMP JUMPDEST SWAP1 POP JUMPDEST SWAP3 SWAP2 POP POP JUMP JUMPDEST PUSH1 0x5 PUSH1 0x20 MSTORE DUP2 PUSH1 0x0 MSTORE PUSH1 0x40 PUSH1 0x0 KECCAK256 DUP2 DUP2 SLOAD DUP2 LT PUSH2 0x6FC JUMPI PUSH1 0x0 DUP1 REVERT JUMPDEST SWAP1 PUSH1 0x0 MSTORE PUSH1 0x20 PUSH1 0x0 KECCAK256 ADD PUSH1 0x0 SWAP2 POP SWAP2 POP POP SLOAD DUP2 JUMP JUMPDEST PUSH2 0x719 PUSH2 0x12E6 JUMP JUMPDEST PUSH1 0x2 SLOAD PUSH1 0x40 MLOAD PUSH4 0xF9EAEE0D PUSH1 0xE0 SHL DUP2 MSTORE PUSH1 0x1 PUSH1 0x1 PUSH1 0xA0 SHL SUB DUP9 DUP2 AND PUSH1 0x4 DUP4 ADD MSTORE SWAP1 SWAP2 AND SWAP1 PUSH4 0xF9EAEE0D SWAP1 PUSH1 0x24 ADD PUSH1 0x20 PUSH1 0x40 MLOAD DUP1 DUP4 SUB DUP2 DUP7 GAS STATICCALL ISZERO DUP1 ISZERO PUSH2 0x763 JUMPI RETURNDATASIZE PUSH1 0x0 DUP1 RETURNDATACOPY RETURNDATASIZE PUSH1 0x0 REVERT JUMPDEST POP POP POP POP PUSH1 0x40 MLOAD RETURNDATASIZE PUSH1 0x1F NOT PUSH1 0x1F DUP3 ADD AND DUP3 ADD DUP1 PUSH1 0x40 MSTORE POP DUP2 ADD SWAP1 PUSH2 0x787 SWAP2 SWAP1 PUSH2 0x165F JUMP JUMPDEST PUSH2 0x7D3 JUMPI PUSH1 0x40 MLOAD PUSH3 0x461BCD PUSH1 0xE5 SHL DUP2 MSTORE PUSH1 0x20 PUSH1 0x4 DUP3 ADD MSTORE PUSH1 0x1B PUSH1 0x24 DUP3 ADD MSTORE PUSH32 0x636F6C6C61746572616C546F6B656E206E6F7420616C6C6F7765640000000000 PUSH1 0x44 DUP3 ADD MSTORE PUSH1 0x64 ADD PUSH2 0x668 JUMP JUMPDEST PUSH1 0x2 SLOAD PUSH1 0x40 MLOAD PUSH4 0xF9EAEE0D PUSH1 0xE0 SHL DUP2 MSTORE PUSH1 0x1 PUSH1 0x1 PUSH1 0xA0 SHL SUB DUP7 DUP2 AND PUSH1 0x4 DUP4 ADD MSTORE SWAP1 SWAP2 AND SWAP1 PUSH4 0xF9EAEE0D SWAP1 PUSH1 0x24 ADD PUSH1 0x20 PUSH1 0x40 MLOAD DUP1 DUP4 SUB DUP2 DUP7 GAS STATICCALL ISZERO DUP1 ISZERO PUSH2 0x81D JUMPI RETURNDATASIZE PUSH1 0x0 DUP1 RETURNDATACOPY RETURNDATASIZE PUSH1 0x0 REVERT JUMPDEST POP POP POP POP PUSH1 0x40 MLOAD RETURNDATASIZE PUSH1 0x1F NOT PUSH1 0x1F DUP3 ADD AND DUP3 ADD DUP1 PUSH1 0x40 MSTORE POP DUP2 ADD SWAP1 PUSH2 0x841 SWAP2 SWAP1 PUSH2 0x165F JUMP JUMPDEST PUSH2 0x88D JUMPI PUSH1 0x40 MLOAD PUSH3 0x461BCD PUSH1 0xE5 SHL DUP2 MSTORE PUSH1 0x20 PUSH1 0x4 DUP3 ADD MSTORE PUSH1 0x17 PUSH1 0x24 DUP3 ADD MSTORE PUSH32 0x626F72726F77546F6B656E206E6F7420616C6C6F776564000000000000000000 PUSH1 0x44 DUP3 ADD MSTORE PUSH1 0x64 ADD PUSH2 0x668 JUMP JUMPDEST PUSH1 0x0 DUP2 GT PUSH2 0x8D5 JUMPI PUSH1 0x40 MLOAD PUSH3 0x461BCD PUSH1 0xE5 SHL DUP2 MSTORE PUSH1 0x20 PUSH1 0x4 DUP3 ADD MSTORE PUSH1 0x15 PUSH1 0x24 DUP3 ADD MSTORE PUSH21 0x696E76616C696420696E7465726573742072617465 PUSH1 0x58 SHL PUSH1 0x44 DUP3 ADD MSTORE PUSH1 0x64 ADD PUSH2 0x668 JUMP JUMPDEST PUSH1 0x7 SLOAD DUP6 LT ISZERO PUSH2 0x91C JUMPI PUSH1 0x40 MLOAD PUSH3 0x461BCD PUSH1 0xE5 SHL DUP2 MSTORE PUSH1 0x20 PUSH1 0x4 DUP3 ADD MSTORE PUSH1 0x12 PUSH1 0x24 DUP3 ADD MSTORE PUSH18 0x636F6C6C61746572616C20746F6F206C6F77 PUSH1 0x70 SHL PUSH1 0x44 DUP3 ADD MSTORE PUSH1 0x64 ADD PUSH2 0x668 JUMP JUMPDEST PUSH1 0x0 DUP4 GT PUSH2 0x961 JUMPI PUSH1 0x40 MLOAD PUSH3 0x461BCD PUSH1 0xE5 SHL DUP2 MSTORE PUSH1 0x20 PUSH1 0x4 DUP3 ADD MSTORE PUSH1 0x12 PUSH1 0x24 DUP3 ADD MSTORE PUSH18 0x626F72726F7720616D6F756E74206973203 PUSH1 0x74 SHL PUSH1 0x44 DUP3 ADD MSTORE PUSH1 0x64 ADD PUSH2 0x668 JUMP JUMPDEST PUSH1 0x8 SLOAD DUP3 LT ISZERO PUSH2 0x9A8 JUMPI PUSH1 0x40 MLOAD PUSH3 0x461BCD PUSH1 0xE5 SHL DUP2 MSTORE PUSH1 0x20 PUSH1 0x4 DUP3 ADD MSTORE PUSH1 0x12 PUSH1 0x24 DUP3 ADD MSTORE PUSH18 0x191D5C985D1A5BDB881D1BDBC81CDA1BDC9D PUSH1 0x72 SHL PUSH1 0x44 DUP3 ADD MSTORE PUSH1 0x64 ADD PUSH2 0x668 JUMP JUMPDEST PUSH1 0x0 PUSH2 0x9B4 DUP7 DUP6 PUSH2 0x6AE JUMP JUMPDEST SWAP1 POP PUSH1 0x6 SLOAD DUP2 LT ISZERO PUSH2 0xA00 JUMPI PUSH1 0x40 MLOAD PUSH3 0x461BCD PUSH1 0xE5 SHL DUP2 MSTORE PUSH1 0x20 PUSH1 0x4 DUP3 ADD MSTORE PUSH1 0x15 PUSH1 0x24 DUP3 ADD MSTORE PUSH21 0x4865616C746820666163746F7220746F6F206C6F77 PUSH1 0x58 SHL PUSH1 0x44 DUP3 ADD MSTORE PUSH1 0x64 ADD PUSH2 0x668 JUMP JUMPDEST PUSH2 0xA15 PUSH1 0x1 PUSH1 0x1 PUSH1 0xA0 SHL SUB DUP9 AND CALLER ADDRESS DUP10 PUSH2 0x1279 JUMP JUMPDEST PUSH2 0xA29 PUSH1 0x1 PUSH1 0x1 PUSH1 0xA0 SHL SUB DUP7 AND CALLER DUP7 PUSH2 0x1310 JUMP JUMPDEST PUSH1 0x9 DUP1 SLOAD PUSH1 0x0 SWAP2 DUP3 PUSH2 0xA3A DUP4 PUSH2 0x1688 JUMP JUMPDEST SWAP2 SWAP1 POP SSTORE SWAP1 POP PUSH1 0x0 PUSH1 0x40 MLOAD DUP1 PUSH2 0x140 ADD PUSH1 0x40 MSTORE DUP1 DUP4 DUP2 MSTORE PUSH1 0x20 ADD DUP10 DUP2 MSTORE PUSH1 0x20 ADD DUP11 PUSH1 0x1 PUSH1 0x1 PUSH1 0xA0 SHL SUB AND DUP2 MSTORE PUSH1 0x20 ADD DUP9 PUSH1 0x1 PUSH1 0x1 PUSH1 0xA0 SHL SUB AND DUP2 MSTORE PUSH1 0x20 ADD DUP8 DUP2 MSTORE PUSH1 0x20 ADD DUP7 DUP2 MSTORE PUSH1 0x20 ADD TIMESTAMP DUP2 MSTORE PUSH1 0x20 ADD DUP6 DUP2 MSTORE PUSH1 0x20 ADD CALLER PUSH1 0x1 PUSH1 0x1 PUSH1 0xA0 SHL SUB AND DUP2 MSTORE PUSH1 0x20 ADD PUSH1 0x1 ISZERO ISZERO DUP2 MSTORE POP SWAP1 POP PUSH1 0x5 PUSH1 0x0 CALLER PUSH1 0x1 PUSH1 0x1 PUSH1 0xA0 SHL SUB AND PUSH1 0x1 PUSH1 0x1 PUSH1 0xA0 SHL SUB AND DUP2 MSTORE PUSH1 0x20 ADD SWAP1 DUP2 MSTORE PUSH1 0x20 ADD PUSH1 0x0 KECCAK256 DUP3 SWAP1 DUP1 PUSH1 0x1 DUP2 SLOAD ADD DUP1 DUP3 SSTORE DUP1 SWAP2 POP POP PUSH1 0x1 SWAP1 SUB SWAP1 PUSH1 0x0 MSTORE PUSH1 0x20 PUSH1 0x0 KECCAK256 ADD PUSH1 0x0 SWAP1 SWAP2 SWAP1 SWAP2 SWAP1 SWAP2 POP SSTORE DUP1 PUSH1 0x3 PUSH1 0x0 CALLER PUSH1 0x1 PUSH1 0x1 PUSH1 0xA0 SHL SUB AND PUSH1 0x1 PUSH1 0x1 PUSH1 0xA0 SHL SUB AND DUP2 MSTORE PUSH1 0x20 ADD SWAP1 DUP2 MSTORE PUSH1 0x20 ADD PUSH1 0x0 KECCAK256 PUSH1 0x0 DUP5 DUP2 MSTORE PUSH1 0x20 ADD SWAP1 DUP2 MSTORE PUSH1 0x20 ADD PUSH1 0x0 KECCAK256 PUSH1 0x0 DUP3 ADD MLOAD DUP2 PUSH1 0x0 ADD SSTORE PUSH1 0x20 DUP3 ADD MLOAD DUP2 PUSH1 0x1 ADD SSTORE PUSH1 0x40 DUP3 ADD MLOAD DUP2 PUSH1 0x2 ADD PUSH1 0x0 PUSH2 0x100 EXP DUP2 SLOAD DUP2 PUSH1 0x1 PUSH1 0x1 PUSH1 0xA0 SHL SUB MUL NOT AND SWAP1 DUP4 PUSH1 0x1 PUSH1 0x1 PUSH1 0xA0 SHL SUB AND MUL OR SWAP1 SSTORE POP PUSH1 0x60 DUP3 ADD MLOAD DUP2 PUSH1 0x3 ADD PUSH1 0x0 PUSH2 0x100 EXP DUP2 SLOAD DUP2 PUSH1 0x1 PUSH1 0x1 PUSH1 0xA0 SHL SUB MUL NOT AND SWAP1 DUP4 PUSH1 0x1 PUSH1 0x1 PUSH1 0xA0 SHL SUB AND MUL OR SWAP1 SSTORE POP PUSH1 0x80 DUP3 ADD MLOAD DUP2 PUSH1 0x4 ADD SSTORE PUSH1 0xA0 DUP3 ADD MLOAD DUP2 PUSH1 0x5 ADD SSTORE PUSH1 0xC0 DUP3 ADD MLOAD DUP2 PUSH1 0x6 ADD SSTORE PUSH1 0xE0 DUP3 ADD MLOAD DUP2 PUSH1 0x7 ADD SSTORE PUSH2 0x100 DUP3 ADD MLOAD DUP2 PUSH1 0x8 ADD PUSH1 0x0 PUSH2 0x100 EXP DUP2 SLOAD DUP2 PUSH1 0x1 PUSH1 0x1 PUSH1 0xA0 SHL SUB MUL NOT AND SWAP1 DUP4 PUSH1 0x1 PUSH1 0x1 PUSH1 0xA0 SHL SUB AND MUL OR SWAP1 SSTORE POP PUSH2 0x120 DUP3 ADD MLOAD DUP2 PUSH1 0x8 ADD PUSH1 0x14 PUSH2 0x100 EXP DUP2 SLOAD DUP2 PUSH1 0xFF MUL NOT AND SWAP1 DUP4 ISZERO ISZERO MUL OR SWAP1 SSTORE POP SWAP1 POP POP CALLER PUSH1 0x1 PUSH1 0x1 PUSH1 0xA0 SHL SUB AND PUSH32 0x3B2B81666FE526902FA85BA380549DD59F155D7258E132EC0BB898F26EDE3D20 DUP4 DUP9 DUP11 DUP10 PUSH1 0x40 MLOAD PUSH2 0xC71 SWAP5 SWAP4 SWAP3 SWAP2 SWAP1 SWAP4 DUP5 MSTORE PUSH1 0x20 DUP5 ADD SWAP3 SWAP1 SWAP3 MSTORE PUSH1 0x1 PUSH1 0x1 PUSH1 0xA0 SHL SUB AND PUSH1 0x40 DUP4 ADD MSTORE PUSH1 0x60 DUP3 ADD MSTORE PUSH1 0x80 ADD SWAP1 JUMP JUMPDEST PUSH1 0x40 MLOAD DUP1 SWAP2 SUB SWAP1 LOG2 PUSH1 0x40 MLOAD DUP9 DUP2 MSTORE PUSH1 0x1 PUSH1 0x1 PUSH1 0xA0 SHL SUB DUP11 AND SWAP1 CALLER SWAP1 PUSH32 0xF1C0DD7E9B98BBFF859029005EF89B127AF049CD18DF1A8D79F0B7E019911E56 SWAP1 PUSH1 0x20 ADD PUSH1 0x40 MLOAD DUP1 SWAP2 SUB SWAP1 LOG3 POP POP POP PUSH2 0xCC6 PUSH1 0x1 PUSH1 0x0 SSTORE JUMP JUMPDEST POP POP POP POP POP POP JUMP JUMPDEST PUSH2 0xCD6 PUSH2 0x124C JUMP JUMPDEST PUSH2 0xCE0 PUSH1 0x0 PUSH2 0x1346 JUMP JUMPDEST JUMP JUMPDEST PUSH2 0xCEA PUSH2 0x12E6 JUMP JUMPDEST CALLER PUSH1 0x0 SWAP1 DUP2 MSTORE PUSH1 0x3 PUSH1 0x20 SWAP1 DUP2 MSTORE PUSH1 0x40 DUP1 DUP4 KECCAK256 DUP6 DUP5 MSTORE SWAP1 SWAP2 MSTORE SWAP1 KECCAK256 DUP1 SLOAD DUP4 EQ PUSH2 0xD45 JUMPI PUSH1 0x40 MLOAD PUSH3 0x461BCD PUSH1 0xE5 SHL DUP2 MSTORE PUSH1 0x20 PUSH1 0x4 DUP3 ADD MSTORE PUSH1 0xE PUSH1 0x24 DUP3 ADD MSTORE PUSH14 0x131BD85B881B9BDD08199BDD5B99 PUSH1 0x92 SHL PUSH1 0x44 DUP3 ADD MSTORE PUSH1 0x64 ADD PUSH2 0x668 JUMP JUMPDEST PUSH1 0x8 DUP2 ADD SLOAD PUSH1 0x1 PUSH1 0xA0 SHL SWAP1 DIV PUSH1 0xFF AND PUSH2 0xD95 JUMPI PUSH1 0x40 MLOAD PUSH3 0x461BCD PUSH1 0xE5 SHL DUP2 MSTORE PUSH1 0x20 PUSH1 0x4 DUP3 ADD MSTORE PUSH1 0x12 PUSH1 0x24 DUP3 ADD MSTORE PUSH18 0x4C6F616E206973206E6F7420616374697665 PUSH1 0x70 SHL PUSH1 0x44 DUP3 ADD MSTORE PUSH1 0x64 ADD PUSH2 0x668 JUMP JUMPDEST DUP1 PUSH1 0x5 ADD SLOAD DUP2 PUSH1 0x6 ADD SLOAD PUSH2 0xDA9 SWAP2 SWAP1 PUSH2 0x16A1 JUMP JUMPDEST TIMESTAMP GT ISZERO PUSH2 0xDE7 JUMPI PUSH1 0x40 MLOAD PUSH3 0x461BCD PUSH1 0xE5 SHL DUP2 MSTORE PUSH1 0x20 PUSH1 0x4 DUP3 ADD MSTORE PUSH1 0xC PUSH1 0x24 DUP3 ADD MSTORE PUSH12 0x131BD85B88195E1C1A5C9959 PUSH1 0xA2 SHL PUSH1 0x44 DUP3 ADD MSTORE PUSH1 0x64 ADD PUSH2 0x668 JUMP JUMPDEST PUSH1 0x0 PUSH2 0xDF3 CALLER DUP6 PUSH2 0x117E JUMP JUMPDEST SWAP1 POP DUP1 DUP4 LT PUSH2 0xECC JUMPI PUSH1 0x3 DUP3 ADD SLOAD PUSH2 0xE16 SWAP1 PUSH1 0x1 PUSH1 0x1 PUSH1 0xA0 SHL SUB AND CALLER ADDRESS DUP5 PUSH2 0x1279 JUMP JUMPDEST PUSH1 0x8 DUP3 ADD DUP1 SLOAD PUSH1 0xFF PUSH1 0xA0 SHL NOT AND SWAP1 SSTORE PUSH1 0x1 DUP3 ADD SLOAD PUSH1 0x2 DUP4 ADD SLOAD PUSH2 0xE46 SWAP2 PUSH1 0x1 PUSH1 0x1 PUSH1 0xA0 SHL SUB SWAP1 SWAP2 AND SWAP1 CALLER SWAP1 PUSH2 0x1310 JUMP JUMPDEST PUSH1 0x40 DUP1 MLOAD DUP6 DUP2 MSTORE PUSH1 0x20 DUP2 ADD DUP4 SWAP1 MSTORE CALLER SWAP2 PUSH32 0xC7CE0A35F17B490DE2A317E7FECB2CAE86B1ABFFB03800B2F492823521382698 SWAP2 ADD PUSH1 0x40 MLOAD DUP1 SWAP2 SUB SWAP1 LOG2 PUSH1 0x1 DUP3 ADD SLOAD PUSH1 0x40 MLOAD CALLER SWAP2 PUSH32 0xDAED309A628FAEC6CAB72194019E2A1A34E890CA9BF9BE99788992DD54692819 SWAP2 PUSH2 0xEBF SWAP2 DUP9 DUP3 MSTORE PUSH1 0x20 DUP3 ADD MSTORE PUSH1 0x40 ADD SWAP1 JUMP JUMPDEST PUSH1 0x40 MLOAD DUP1 SWAP2 SUB SWAP1 LOG2 PUSH2 0xF7E JUMP JUMPDEST PUSH1 0x3 DUP3 ADD SLOAD PUSH2 0xEE6 SWAP1 PUSH1 0x1 PUSH1 0x1 PUSH1 0xA0 SHL SUB AND CALLER ADDRESS DUP7 PUSH2 0x1279 JUMP JUMPDEST DUP2 PUSH1 0x4 ADD SLOAD DUP4 GT PUSH2 0xF10 JUMPI DUP3 DUP3 PUSH1 0x4 ADD PUSH1 0x0 DUP3 DUP3 SLOAD PUSH2 0xF05 SWAP2 SWAP1 PUSH2 0x16B4 JUMP JUMPDEST SWAP1 SWAP2 SSTORE POP PUSH2 0xF42 SWAP1 POP JUMP JUMPDEST PUSH1 0x4 DUP3 ADD SLOAD PUSH2 0xF1F SWAP1 DUP3 PUSH2 0x16B4 JUMP JUMPDEST PUSH2 0xF29 SWAP1 DUP5 PUSH2 0x16B4 JUMP JUMPDEST DUP3 PUSH1 0x4 ADD PUSH1 0x0 DUP3 DUP3 SLOAD PUSH2 0xF3C SWAP2 SWAP1 PUSH2 0x16B4 JUMP JUMPDEST SWAP1 SWAP2 SSTORE POP POP JUMPDEST PUSH1 0x40 DUP1 MLOAD DUP6 DUP2 MSTORE PUSH1 0x20 DUP2 ADD DUP6 SWAP1 MSTORE CALLER SWAP2 PUSH32 0xC7CE0A35F17B490DE2A317E7FECB2CAE86B1ABFFB03800B2F492823521382698 SWAP2 ADD PUSH1 0x40 MLOAD DUP1 SWAP2 SUB SWAP1 LOG2 JUMPDEST POP POP PUSH2 0x6AA PUSH1 0x1 PUSH1 0x0 SSTORE JUMP JUMPDEST PUSH2 0xF92 PUSH2 0x124C JUMP JUMPDEST PUSH1 0x7 SSTORE JUMP JUMPDEST PUSH2 0xF9F PUSH2 0x12E6 JUMP JUMPDEST PUSH1 0x1 PUSH1 0x1 PUSH1 0xA0 SHL SUB DUP3 AND PUSH1 0x0 SWAP1 DUP2 MSTORE PUSH1 0x3 PUSH1 0x20 SWAP1 DUP2 MSTORE PUSH1 0x40 DUP1 DUP4 KECCAK256 DUP5 DUP5 MSTORE SWAP1 SWAP2 MSTORE SWAP1 KECCAK256 PUSH1 0x8 DUP2 ADD SLOAD PUSH1 0x1 PUSH1 0xA0 SHL SWAP1 DIV PUSH1 0xFF AND PUSH2 0x1012 JUMPI PUSH1 0x40 MLOAD PUSH3 0x461BCD PUSH1 0xE5 SHL DUP2 MSTORE PUSH1 0x20 PUSH1 0x4 DUP3 ADD MSTORE PUSH1 0x12 PUSH1 0x24 DUP3 ADD MSTORE PUSH18 0x4C6F616E206973206E6F7420616374697665 PUSH1 0x70 SHL PUSH1 0x44 DUP3 ADD MSTORE PUSH1 0x64 ADD PUSH2 0x668 JUMP JUMPDEST PUSH1 0x2 DUP2 ADD SLOAD PUSH1 0x1 PUSH1 0x1 PUSH1 0xA0 SHL SUB AND PUSH1 0x0 SWAP1 DUP2 MSTORE PUSH1 0x4 PUSH1 0x20 MSTORE PUSH1 0x40 SWAP1 KECCAK256 SLOAD DUP1 PUSH2 0x107C JUMPI PUSH1 0x40 MLOAD PUSH3 0x461BCD PUSH1 0xE5 SHL DUP2 MSTORE PUSH1 0x20 PUSH1 0x4 DUP3 ADD MSTORE PUSH1 0x1D PUSH1 0x24 DUP3 ADD MSTORE PUSH32 0x4C69717569646174696F6E207468726573686F6C64206E6F7420736574000000 PUSH1 0x44 DUP3 ADD MSTORE PUSH1 0x64 ADD PUSH2 0x668 JUMP JUMPDEST PUSH1 0x0 PUSH2 0x1088 DUP6 DUP6 PUSH2 0x117E JUMP JUMPDEST SWAP1 POP PUSH1 0x0 PUSH2 0x109A DUP5 PUSH1 0x1 ADD SLOAD DUP4 PUSH2 0x6AE JUMP JUMPDEST SWAP1 POP DUP3 DUP2 LT PUSH2 0x10FD JUMPI PUSH1 0x40 MLOAD PUSH3 0x461BCD PUSH1 0xE5 SHL DUP2 MSTORE PUSH1 0x20 PUSH1 0x4 DUP3 ADD MSTORE PUSH1 0x29 PUSH1 0x24 DUP3 ADD MSTORE PUSH32 0x4865616C746820666163746F722061626F7665206C69717569646174696F6E20 PUSH1 0x44 DUP3 ADD MSTORE PUSH9 0x1D1A1C995CDA1BDB19 PUSH1 0xBA SHL PUSH1 0x64 DUP3 ADD MSTORE PUSH1 0x84 ADD PUSH2 0x668 JUMP JUMPDEST PUSH1 0x8 DUP5 ADD DUP1 SLOAD PUSH1 0xFF PUSH1 0xA0 SHL NOT AND SWAP1 SSTORE PUSH1 0x1 DUP5 ADD SLOAD PUSH1 0x2 DUP6 ADD SLOAD PUSH2 0x112D SWAP2 PUSH1 0x1 PUSH1 0x1 PUSH1 0xA0 SHL SUB SWAP1 SWAP2 AND SWAP1 CALLER SWAP1 PUSH2 0x1310 JUMP JUMPDEST PUSH1 0x40 DUP1 MLOAD DUP7 DUP2 MSTORE CALLER PUSH1 0x20 DUP3 ADD MSTORE PUSH1 0x1 PUSH1 0x1 PUSH1 0xA0 SHL SUB DUP9 AND SWAP2 PUSH32 0xDE21B2A43B0A2C2109C049FB1E4BB8653FD67D0FFD74FDCB662DB381F1EEAB38 SWAP2 ADD PUSH1 0x40 MLOAD DUP1 SWAP2 SUB SWAP1 LOG2 POP POP POP POP PUSH2 0x6AA PUSH1 0x1 PUSH1 0x0 SSTORE JUMP JUMPDEST PUSH1 0x1 PUSH1 0x1 PUSH1 0xA0 SHL SUB DUP3 AND PUSH1 0x0 SWAP1 DUP2 MSTORE PUSH1 0x3 PUSH1 0x20 SWAP1 DUP2 MSTORE PUSH1 0x40 DUP1 DUP4 KECCAK256 DUP5 DUP5 MSTORE SWAP1 SWAP2 MSTORE DUP2 KECCAK256 PUSH1 0x6 DUP2 ADD SLOAD DUP3 SWAP1 PUSH2 0x11B2 SWAP1 TIMESTAMP PUSH2 0x16B4 JUMP JUMPDEST SWAP1 POP PUSH1 0x0 PUSH5 0x496CEBB800 DUP3 DUP5 PUSH1 0x7 ADD SLOAD DUP6 PUSH1 0x4 ADD SLOAD PUSH2 0x11D1 SWAP2 SWAP1 PUSH2 0x1626 JUMP JUMPDEST PUSH2 0x11DB SWAP2 SWAP1 PUSH2 0x1626 JUMP JUMPDEST PUSH2 0x11E5 SWAP2 SWAP1 PUSH2 0x163D JUMP JUMPDEST SWAP1 POP DUP1 DUP4 PUSH1 0x4 ADD SLOAD PUSH2 0x11F7 SWAP2 SWAP1 PUSH2 0x16A1 JUMP JUMPDEST SWAP7 SWAP6 POP POP POP POP POP POP JUMP JUMPDEST PUSH2 0x1209 PUSH2 0x124C JUMP JUMPDEST PUSH1 0x8 SSTORE JUMP JUMPDEST PUSH2 0x1216 PUSH2 0x124C JUMP JUMPDEST PUSH1 0x1 PUSH1 0x1 PUSH1 0xA0 SHL SUB DUP2 AND PUSH2 0x1240 JUMPI PUSH1 0x40 MLOAD PUSH4 0x1E4FBDF7 PUSH1 0xE0 SHL DUP2 MSTORE PUSH1 0x0 PUSH1 0x4 DUP3 ADD MSTORE PUSH1 0x24 ADD PUSH2 0x668 JUMP JUMPDEST PUSH2 0x1249 DUP2 PUSH2 0x1346 JUMP JUMPDEST POP JUMP JUMPDEST PUSH1 0x1 SLOAD PUSH1 0x1 PUSH1 0x1 PUSH1 0xA0 SHL SUB AND CALLER EQ PUSH2 0xCE0 JUMPI PUSH1 0x40 MLOAD PUSH4 0x118CDAA7 PUSH1 0xE0 SHL DUP2 MSTORE CALLER PUSH1 0x4 DUP3 ADD MSTORE PUSH1 0x24 ADD PUSH2 0x668 JUMP JUMPDEST PUSH1 0x40 MLOAD PUSH1 0x1 PUSH1 0x1 PUSH1 0xA0 SHL SUB DUP5 DUP2 AND PUSH1 0x24 DUP4 ADD MSTORE DUP4 DUP2 AND PUSH1 0x44 DUP4 ADD MSTORE PUSH1 0x64 DUP3 ADD DUP4 SWAP1 MSTORE PUSH2 0x12E0 SWAP2 DUP7 SWAP2 DUP3 AND SWAP1 PUSH4 0x23B872DD SWAP1 PUSH1 0x84 ADD JUMPDEST PUSH1 0x40 MLOAD PUSH1 0x20 DUP2 DUP4 SUB SUB DUP2 MSTORE SWAP1 PUSH1 0x40 MSTORE SWAP2 POP PUSH1 0xE0 SHL PUSH1 0x20 DUP3 ADD DUP1 MLOAD PUSH1 0x1 PUSH1 0x1 PUSH1 0xE0 SHL SUB DUP4 DUP2 DUP4 AND OR DUP4 MSTORE POP POP POP POP PUSH2 0x1398 JUMP JUMPDEST POP POP POP POP JUMP JUMPDEST PUSH1 0x2 PUSH1 0x0 SLOAD SUB PUSH2 0x1309 JUMPI PUSH1 0x40 MLOAD PUSH4 0x3EE5AEB5 PUSH1 0xE0 SHL DUP2 MSTORE PUSH1 0x4 ADD PUSH1 0x40 MLOAD DUP1 SWAP2 SUB SWAP1 REVERT JUMPDEST PUSH1 0x2 PUSH1 0x0 SSTORE JUMP JUMPDEST PUSH1 0x40 MLOAD PUSH1 0x1 PUSH1 0x1 PUSH1 0xA0 SHL SUB DUP4 DUP2 AND PUSH1 0x24 DUP4 ADD MSTORE PUSH1 0x44 DUP3 ADD DUP4 SWAP1 MSTORE PUSH2 0x1341 SWAP2 DUP6 SWAP2 DUP3 AND SWAP1 PUSH4 0xA9059CBB SWAP1 PUSH1 0x64 ADD PUSH2 0x12AE JUMP JUMPDEST POP POP POP JUMP JUMPDEST PUSH1 0x1 DUP1 SLOAD PUSH1 0x1 PUSH1 0x1 PUSH1 0xA0 SHL SUB DUP4 DUP2 AND PUSH1 0x1 PUSH1 0x1 PUSH1 0xA0 SHL SUB NOT DUP4 AND DUP2 OR SWAP1 SWAP4 SSTORE PUSH1 0x40 MLOAD SWAP2 AND SWAP2 SWAP1 DUP3 SWAP1 PUSH32 0x8BE0079C531659141344CD1FD0A4F28419497F9722A3DAAFE3B4186F6B6457E0 SWAP1 PUSH1 0x0 SWAP1 LOG3 POP POP JUMP JUMPDEST PUSH1 0x0 DUP1 PUSH1 0x20 PUSH1 0x0 DUP5 MLOAD PUSH1 0x20 DUP7 ADD PUSH1 0x0 DUP9 GAS CALL DUP1 PUSH2 0x13BB JUMPI PUSH1 0x40 MLOAD RETURNDATASIZE PUSH1 0x0 DUP3 RETURNDATACOPY RETURNDATASIZE DUP2 REVERT JUMPDEST POP POP PUSH1 0x0 MLOAD RETURNDATASIZE SWAP2 POP DUP2 ISZERO PUSH2 0x13D3 JUMPI DUP1 PUSH1 0x1 EQ ISZERO PUSH2 0x13E0 JUMP JUMPDEST PUSH1 0x1 PUSH1 0x1 PUSH1 0xA0 SHL SUB DUP5 AND EXTCODESIZE ISZERO JUMPDEST ISZERO PUSH2 0x12E0 JUMPI PUSH1 0x40 MLOAD PUSH4 0x5274AFE7 PUSH1 0xE0 SHL DUP2 MSTORE PUSH1 0x1 PUSH1 0x1 PUSH1 0xA0 SHL SUB DUP6 AND PUSH1 0x4 DUP3 ADD MSTORE PUSH1 0x24 ADD PUSH2 0x668 JUMP JUMPDEST PUSH1 0x0 PUSH1 0x20 DUP3 DUP5 SUB SLT ISZERO PUSH2 0x141B JUMPI PUSH1 0x0 DUP1 REVERT JUMPDEST POP CALLDATALOAD SWAP2 SWAP1 POP JUMP JUMPDEST DUP1 CALLDATALOAD PUSH1 0x1 PUSH1 0x1 PUSH1 0xA0 SHL SUB DUP2 AND DUP2 EQ PUSH2 0x1439 JUMPI PUSH1 0x0 DUP1 REVERT JUMPDEST SWAP2 SWAP1 POP JUMP JUMPDEST PUSH1 0x0 PUSH1 0x20 DUP3 DUP5 SUB SLT ISZERO PUSH2 0x1450 JUMPI PUSH1 0x0 DUP1 REVERT JUMPDEST PUSH2 0x6D7 DUP3 PUSH2 0x1422 JUMP JUMPDEST PUSH1 0x20 DUP1 DUP3 MSTORE DUP3 MLOAD DUP3 DUP3 ADD DUP2 SWAP1 MSTORE PUSH1 0x0 SWAP2 DUP5 ADD SWAP1 PUSH1 0x40 DUP5 ADD SWAP1 DUP4 JUMPDEST DUP2 DUP2 LT ISZERO PUSH2 0x1535 JUMPI DUP4 MLOAD DUP1 MLOAD DUP5 MSTORE PUSH1 0x20 DUP2 ADD MLOAD PUSH1 0x20 DUP6 ADD MSTORE PUSH1 0x40 DUP2 ADD MLOAD PUSH2 0x14A5 PUSH1 0x40 DUP7 ADD DUP3 PUSH1 0x1 PUSH1 0x1 PUSH1 0xA0 SHL SUB AND SWAP1 MSTORE JUMP JUMPDEST POP PUSH1 0x60 DUP2 ADD MLOAD PUSH2 0x14C0 PUSH1 0x60 DUP7 ADD DUP3 PUSH1 0x1 PUSH1 0x1 PUSH1 0xA0 SHL SUB AND SWAP1 MSTORE JUMP JUMPDEST POP PUSH1 0x80 DUP2 ADD MLOAD PUSH1 0x80 DUP6 ADD MSTORE PUSH1 0xA0 DUP2 ADD MLOAD PUSH1 0xA0 DUP6 ADD MSTORE PUSH1 0xC0 DUP2 ADD MLOAD PUSH1 0xC0 DUP6 ADD MSTORE PUSH1 0xE0 DUP2 ADD MLOAD PUSH1 0xE0 DUP6 ADD MSTORE PUSH2 0x100 DUP2 ADD MLOAD PUSH2 0x1505 PUSH2 0x100 DUP7 ADD DUP3 PUSH1 0x1 PUSH1 0x1 PUSH1 0xA0 SHL SUB AND SWAP1 MSTORE JUMP JUMPDEST POP PUSH2 0x120 DUP2 ADD MLOAD SWAP1 POP PUSH2 0x151D PUSH2 0x120 DUP6 ADD DUP3 ISZERO ISZERO SWAP1 MSTORE JUMP JUMPDEST POP PUSH1 0x20 SWAP4 SWAP1 SWAP4 ADD SWAP3 PUSH2 0x140 SWAP3 SWAP1 SWAP3 ADD SWAP2 PUSH1 0x1 ADD PUSH2 0x1473 JUMP JUMPDEST POP SWAP1 SWAP6 SWAP5 POP POP POP POP POP JUMP JUMPDEST PUSH1 0x0 DUP1 PUSH1 0x40 DUP4 DUP6 SUB SLT ISZERO PUSH2 0x1553 JUMPI PUSH1 0x0 DUP1 REVERT JUMPDEST PUSH2 0x155C DUP4 PUSH2 0x1422 JUMP JUMPDEST SWAP5 PUSH1 0x20 SWAP4 SWAP1 SWAP4 ADD CALLDATALOAD SWAP4 POP POP POP JUMP JUMPDEST PUSH1 0x0 DUP1 PUSH1 0x40 DUP4 DUP6 SUB SLT ISZERO PUSH2 0x157D JUMPI PUSH1 0x0 DUP1 REVERT JUMPDEST POP POP DUP1 CALLDATALOAD SWAP3 PUSH1 0x20 SWAP1 SWAP2 ADD CALLDATALOAD SWAP2 POP JUMP JUMPDEST PUSH1 0x0 DUP1 PUSH1 0x0 DUP1 PUSH1 0x0 DUP1 PUSH1 0xC0 DUP8 DUP10 SUB SLT ISZERO PUSH2 0x15A5 JUMPI PUSH1 0x0 DUP1 REVERT JUMPDEST PUSH2 0x15AE DUP8 PUSH2 0x1422 JUMP JUMPDEST SWAP6 POP PUSH1 0x20 DUP8 ADD CALLDATALOAD SWAP5 POP PUSH2 0x15C3 PUSH1 0x40 DUP9 ADD PUSH2 0x1422 JUMP JUMPDEST SWAP6 SWAP9 SWAP5 SWAP8 POP SWAP5 SWAP6 PUSH1 0x60 DUP2 ADD CALLDATALOAD SWAP6 POP PUSH1 0x80 DUP2 ADD CALLDATALOAD SWAP5 PUSH1 0xA0 SWAP1 SWAP2 ADD CALLDATALOAD SWAP4 POP SWAP2 POP POP JUMP JUMPDEST PUSH4 0x4E487B71 PUSH1 0xE0 SHL PUSH1 0x0 MSTORE PUSH1 0x41 PUSH1 0x4 MSTORE PUSH1 0x24 PUSH1 0x0 REVERT JUMPDEST PUSH4 0x4E487B71 PUSH1 0xE0 SHL PUSH1 0x0 MSTORE PUSH1 0x32 PUSH1 0x4 MSTORE PUSH1 0x24 PUSH1 0x0 REVERT JUMPDEST PUSH4 0x4E487B71 PUSH1 0xE0 SHL PUSH1 0x0 MSTORE PUSH1 0x11 PUSH1 0x4 MSTORE PUSH1 0x24 PUSH1 0x0 REVERT JUMPDEST DUP1 DUP3 MUL DUP2 ISZERO DUP3 DUP3 DIV DUP5 EQ OR PUSH2 0x6DA JUMPI PUSH2 0x6DA PUSH2 0x1610 JUMP JUMPDEST PUSH1 0x0 DUP3 PUSH2 0x165A JUMPI PUSH4 0x4E487B71 PUSH1 0xE0 SHL PUSH1 0x0 MSTORE PUSH1 0x12 PUSH1 0x4 MSTORE PUSH1 0x24 PUSH1 0x0 REVERT JUMPDEST POP DIV SWAP1 JUMP JUMPDEST PUSH1 0x0 PUSH1 0x20 DUP3 DUP5 SUB SLT ISZERO PUSH2 0x1671 JUMPI PUSH1 0x0 DUP1 REVERT JUMPDEST DUP2 MLOAD DUP1 ISZERO ISZERO DUP2 EQ PUSH2 0x1681 JUMPI PUSH1 0x0 DUP1 REVERT JUMPDEST SWAP4 SWAP3 POP POP POP JUMP JUMPDEST PUSH1 0x0 PUSH1 0x1 DUP3 ADD PUSH2 0x169A JUMPI PUSH2 0x169A PUSH2 0x1610 JUMP JUMPDEST POP PUSH1 0x1 ADD SWAP1 JUMP JUMPDEST DUP1 DUP3 ADD DUP1 DUP3 GT ISZERO PUSH2 0x6DA JUMPI PUSH2 0x6DA PUSH2 0x1610 JUMP JUMPDEST DUP2 DUP2 SUB DUP2 DUP2 GT ISZERO PUSH2 0x6DA JUMPI PUSH2 0x6DA PUSH2 0x1610 JUMP INVALID LOG2 PUSH5 0x6970667358 0x22 SLT KECCAK256 CALLER 0xE4 CALLCODE ORIGIN 0xEC PUSH30 0x1EFDD70EB1544EB615B43FA6E877C06C7547B7047ADD8BAD982B64736F6C PUSH4 0x4300081C STOP CALLER "},"methodIdentifiers":{"Borrow(address,uint256,address,uint256,uint256,uint256)":"4d5c11ee","calculateHealthFactorSimulated(uint256,uint256)":"461fbf5a","calculateTotalDue(address,uint256)":"cd06b6e9","currentLoanId()":"87f7d5bd","fundPool(address,uint256)":"2bfd5146","getMinHealthFactor()":"8c1ae6c8","getUserLoans(address)":"02bf321f","liquidate(address,uint256)":"bcbaf487","liquidationThresholds(address)":"78327438","minHealthFactor()":"e1b4264c","minimumCollateralAmount()":"eee2518a","minimumDuration()":"3e3ee5a2","owner()":"8da5cb5b","payLoan(uint256,uint256)":"89306e61","renounceOwnership()":"715018a6","setLiquidationThreshold(address,uint256)":"0e30428d","setMinCollateralAmount(uint256)":"ae2ebc58","setMinHealthFactor(uint256)":"01b08d58","setMinimumDuration(uint256)":"ed5ec648","transferOwnership(address)":"f2fde38b","userLoanIds(address,uint256)":"48defde3","userLoans(address,uint256)":"d8bad5bd","yieldPool()":"8f188dd4"}},"storageLayout":{"storage":[{"astId":1498,"contract":"contracts/BorrowProtocol.sol:BorrowProtocol","label":"_status","offset":0,"slot":"0","type":"t_uint256"},{"astId":8,"contract":"contracts/BorrowProtocol.sol:BorrowProtocol","label":"_owner","offset":0,"slot":"1","type":"t_address"},{"astId":1593,"contract":"contracts/BorrowProtocol.sol:BorrowProtocol","label":"yieldPool","offset":0,"slot":"2","type":"t_contract(IYieldPool)1582"},{"astId":1621,"contract":"contracts/BorrowProtocol.sol:BorrowProtocol","label":"userLoans","offset":0,"slot":"3","type":"t_mapping(t_address,t_mapping(t_uint256,t_struct(Loan)1614_storage))"},{"astId":1625,"contract":"contracts/BorrowProtocol.sol:BorrowProtocol","label":"liquidationThresholds","offset":0,"slot":"4","type":"t_mapping(t_address,t_uint256)"},{"astId":1630,"contract":"contracts/BorrowProtocol.sol:BorrowProtocol","label":"userLoanIds","offset":0,"slot":"5","type":"t_mapping(t_address,t_array(t_uint256)dyn_storage)"},{"astId":1633,"contract":"contracts/BorrowProtocol.sol:BorrowProtocol","label":"minHealthFactor","offset":0,"slot":"6","type":"t_uint256"},{"astId":1636,"contract":"contracts/BorrowProtocol.sol:BorrowProtocol","label":"minimumCollateralAmount","offset":0,"slot":"7","type":"t_uint256"},{"astId":1639,"contract":"contracts/BorrowProtocol.sol:BorrowProtocol","label":"minimumDuration","offset":0,"slot":"8","type":"t_uint256"},{"astId":1641,"contract":"contracts/BorrowProtocol.sol:BorrowProtocol","label":"currentLoanId","offset":0,"slot":"9","type":"t_uint256"}],"types":{"t_address":{"encoding":"inplace","label":"address","numberOfBytes":"20"},"t_array(t_uint256)dyn_storage":{"base":"t_uint256","encoding":"dynamic_array","label":"uint256[]","numberOfBytes":"32"},"t_bool":{"encoding":"inplace","label":"bool","numberOfBytes":"1"},"t_contract(IYieldPool)1582":{"encoding":"inplace","label":"contract IYieldPool","numberOfBytes":"20"},"t_mapping(t_address,t_array(t_uint256)dyn_storage)":{"encoding":"mapping","key":"t_address","label":"mapping(address => uint256[])","numberOfBytes":"32","value":"t_array(t_uint256)dyn_storage"},"t_mapping(t_address,t_mapping(t_uint256,t_struct(Loan)1614_storage))":{"encoding":"mapping","key":"t_address","label":"mapping(address => mapping(uint256 => struct BorrowProtocol.Loan))","numberOfBytes":"32","value":"t_mapping(t_uint256,t_struct(Loan)1614_storage)"},"t_mapping(t_address,t_uint256)":{"encoding":"mapping","key":"t_address","label":"mapping(address => uint256)","numberOfBytes":"32","value":"t_uint256"},"t_mapping(t_uint256,t_struct(Loan)1614_storage)":{"encoding":"mapping","key":"t_uint256","label":"mapping(uint256 => struct BorrowProtocol.Loan)","numberOfBytes":"32","value":"t_struct(Loan)1614_storage"},"t_struct(Loan)1614_storage":{"encoding":"inplace","label":"struct BorrowProtocol.Loan","members":[{"astId":1595,"contract":"contracts/BorrowProtocol.sol:BorrowProtocol","label":"loanId","offset":0,"slot":"0","type":"t_uint256"},{"astId":1597,"contract":"contracts/BorrowProtocol.sol:BorrowProtocol","label":"collateralAmount","offset":0,"slot":"1","type":"t_uint256"},{"astId":1599,"contract":"contracts/BorrowProtocol.sol:BorrowProtocol","label":"collateralToken","offset":0,"slot":"2","type":"t_address"},{"astId":1601,"contract":"contracts/BorrowProtocol.sol:BorrowProtocol","label":"borrowToken","offset":0,"slot":"3","type":"t_address"},{"astId":1603,"contract":"contracts/BorrowProtocol.sol:BorrowProtocol","label":"borrowAmount","offset":0,"slot":"4","type":"t_uint256"},{"astId":1605,"contract":"contracts/BorrowProtocol.sol:BorrowProtocol","label":"duration","offset":0,"slot":"5","type":"t_uint256"},{"astId":1607,"contract":"contracts/BorrowProtocol.sol:BorrowProtocol","label":"startTime","offset":0,"slot":"6","type":"t_uint256"},{"astId":1609,"contract":"contracts/BorrowProtocol.sol:BorrowProtocol","label":"interestRate","offset":0,"slot":"7","type":"t_uint256"},{"astId":1611,"contract":"contracts/BorrowProtocol.sol:BorrowProtocol","label":"userAddress","offset":0,"slot":"8","type":"t_address"},{"astId":1613,"contract":"contracts/BorrowProtocol.sol:BorrowProtocol","label":"active","offset":20,"slot":"8","type":"t_bool"}],"numberOfBytes":"288"},"t_uint256":{"encoding":"inplace","label":"uint256","numberOfBytes":"32"}}}}}}